:100000000C94FE000C9426010C9426010C9401041F
:100010000C9401040C9401040C9426010C94260108
:100020000C9426010C9426010C9426010C942601B4
:100030000C9426010C9426010C9426010C942601A4
:100040000C94B7030C9426010C94D8020C94B202C1
:100050000C9426010C9426010C9426010C94260184
:100060000C9426010C9426010000000024002700B7
:100070002A0000000008000201000003040700003D
:1000800000000000000000000000250028002B00F8
:1000900000000000230026002900040404040404D6
:1000A0000404020202020202030303030303010227
:1000B00004081020408001020408102001020408F6
:1000C00010204E414E494E495459494E46CDCCCC54
:1000D0003D0AD7233C17B7D13877CC2B329595E61C
:1000E000241FB14F0A000020410000C84200401CFC
:1000F0004620BCBE4CCA1B0E5AAEC59D7400407A49
:1001000010F35A00A0724E18090010A5D4E80000A0
:10011000E87648170000E40B54020000CA9A3B003E
:100120000000E1F505000080969800000040420FB5
:10013000000000A08601000000102700000000E879
:1001400003000000006400000000000A000000003E
:10015000000100000000002C76D888DC674F0823DF
:10016000DFC1DFAE59E1B1B796E5E3E453C63AE645
:1001700051997696E8E6C28426EB898C9B62ED4025
:100180007C6FFCEFBC9C9F40F2BAA56FA5F4900574
:100190005A2AF75C936B6CF9676DC11BFCE0E40DA8
:1001A00047FEF520E6B500D0ED902E03009435779C
:1001B000050080841E080000204E0A000000C80CC4
:1001C000333333330F986E12831141EF8D2114892D
:1001D0003BE65516CFFEE6DB18D1844B381BF77C87
:1001E0001D901DA4BBE424203284725E228100C9CC
:1001F000F124ECA1E53D2700B20A990A11241FBEA3
:10020000CFEFD8E0DEBFCDBF11E0A0E0B1E0EEEA75
:10021000FBE202C005900D92A43CB107D9F723E0A0
:10022000A4ECB1E001C01D92AC36B207E1F710E0DA
:10023000CDEFD0E004C02197FE010E94E10BCC3F3E
:10024000D107C9F70E94EF060C94CA150C94000060
:10025000FC01918D828D981761F0828DDF01A80FCE
:10026000B11D5D968C91928D9F5F9F73928F90E0F0
:1002700008958FEF9FEF0895FC01918D828D98175F
:1002800031F0828DE80FF11D858D90E008958FEF9C
:100290009FEF0895FC01918D228D892F90E0805C65
:1002A0009F4F821B91098F739927089585E992E0EA
:1002B0000E944A0121E0892B09F420E0822F089551
:1002C000FC01848DDF01A80FB11DA35ABF4F2C91F3
:1002D000848D90E001968F739927848FA689B789C2
:1002E0002C93A089B1898C9180648C93938D848D9B
:1002F000981306C00288F389E02D80818F7D80836A
:100300000895EF92FF920F931F93CF93DF93EC0129
:1003100081E0888F9B8D8C8D981305C0E889F989C1
:10032000808185FD24C0F62E0B8D10E00F5F1F4FDE
:100330000F731127E02E8C8DE8120CC00FB607FC4E
:10034000FACFE889F989808185FFF5CFCE010E9437
:100350006001F1CF8B8DFE01E80FF11DE35AFF4FD5
:10036000F0820B8FEA89FB898081806207C0EE8969
:10037000FF896083E889F98980818064808381E0D6
:1003800090E0DF91CF911F910F91FF90EF90089532
:10039000CF93DF93EC01888D8823C9F0EA89FB892C
:1003A000808185FD05C0A889B9898C9186FD0FC023
:1003B0000FB607FCF5CF808185FFF2CFA889B989F8
:1003C0008C9185FFEDCFCE010E946001E7CFDF91D8
:1003D000CF91089580E090E0892B29F00E9456018A
:1003E00081110C940000089520910F0230911002A9
:1003F0002817390771F490910D0280910E02981719
:1004000041F0E0910D02F0E0EC53FE4F808190E06E
:1004100008958FEF9FEF089508951F93CF93DF9373
:10042000DC015C962D913C915D972115310539F4E5
:1004300081E090E013969C938E9312973DC0519665
:10044000ED91FC91529750969C915097892F8095F1
:100450001FB75E964C915E9741FB772770F941FD7F
:100460006095F8944081772311F0492B01C048230F
:100470004083E9012197F1F748E0508160FF02C015
:10048000592B01C058235083E9012197F1F7669554
:10049000415099F7772321F090818923808303C00D
:1004A0008081982B90831FBF5C968D919C915D9766
:1004B0000197F1F721E030E0C901DF91CF911F9161
:1004C000089520910F02309110022817390771F416
:1004D00080910E0220910D0290E0805C9F4F821B64
:1004E000910960E470E00E94CD0B089580E090E0F7
:1004F000089520910F023091100228173907B9F49E
:1005000090910D0280910E02981789F0E0910D02F2
:10051000F0E0EC53FE4F808120910D0230E02F5F20
:100520003F4F2F73332720930D0290E008958FEFF4
:100530009FEF0895E0910F02F0911002E817F9077C
:1005400069F4A389B4899C918589809589238C93CA
:100550001092100210920F0281E0089580E0089539
:100560000E94F60E1F920F920FB60F9211242F9336
:100570003F934F935F936F937F938F939F93AF932B
:10058000BF93EF93FF9385E992E00E946001FF9192
:10059000EF91BF91AF919F918F917F916F915F91FB
:1005A0004F913F912F910F900FBE0F901F90189574
:1005B0001F920F920FB60F9211242F938F939F9338
:1005C000EF93FF93E091A502F091A6028081E09164
:1005D000AB02F091AC0282FD12C090818091AE021C
:1005E0008F5F8F732091AF02821751F0E091AE02BE
:1005F000F0E0EB56FD4F958F8093AE0201C08081F5
:10060000FF91EF919F918F912F910F900FBE0F90BF
:100610001F90189590E0FC01EE58FF4F3491FC01BB
:10062000E255FF4F2491FC01E656FF4FE491EE2383
:1006300009F43BC0332339F1333091F038F43130D1
:10064000A9F0323001F584B58F7D12C0373091F0BA
:100650003830A1F03430B9F4809180008F7D03C030
:10066000809180008F77809380000DC084B58F7754
:1006700084BD09C08091B0008F7703C08091B00025
:100680008F7D8093B000F0E0EE0FFF1FEA57FF4F21
:10069000A591B4918FB7F894EC91611103C02095A6
:1006A0002E2301C02E2B2C938FBF0895CF93DF9361
:1006B00090E0FC01E255FF4F2491FC01E656FF4F0C
:1006C0008491882361F190E0880F991FFC01E8591B
:1006D000FF4FC591D491FC01EA57FF4FA591B4910A
:1006E000611109C09FB7F89488812095822388837F
:1006F000EC912E230BC0623061F49FB7F8943881DF
:10070000822F809583238883EC912E2B2C939FBF7F
:1007100006C08FB7F894E8812E2B28838FBFDF9116
:10072000CF9108953FB7F8948091090290910A0201
:10073000A0910B02B0910C0226B5A89B05C02F3FDB
:1007400019F00196A11DB11D3FBFBA2FA92F982FF7
:100750008827820F911DA11DB11DBC01CD0142E072
:10076000660F771F881F991F4A95D1F708951F922A
:100770000F920FB60F9211242F933F938F939F9355
:10078000AF93BF938091050290910602A09107025A
:10079000B09108023091040223E0230F2D3720F49A
:1007A0000196A11DB11D05C026E8230F0296A11DCB
:1007B000B11D209304028093050290930602A0933A
:1007C0000702B09308028091090290910A02A09159
:1007D0000B02B0910C020196A11DB11D809309027C
:1007E00090930A02A0930B02B0930C02BF91AF91B9
:1007F0009F918F913F912F910F900FBE0F901F905F
:1008000018951F920F920FB60F9211242F933F93BA
:100810004F935F936F937F938F939F93AF93BF9308
:10082000EF93FF93E0910F02F0911002309709F4DB
:1008300051C0968DA685B785858591FF04C09C9192
:10084000892329F447C09C91892309F043C0A389D7
:10085000B4899C918589809589238C938689978911
:100860000197F1F7608D718DA685B785558538E0C4
:1008700020E0CB010197F1F7822F90E095958795C5
:10088000282F4C91452309F02068315091F7868D2F
:1008900081FD209580910E0290E001968F7399273B
:1008A00030910D02381749F0A0910E02B0E0AC5320
:1008B000BE4F2C9380930E0203C0868D8160868F7D
:1008C000828D938D0197F1F7A389B4899C918589D5
:1008D000892B8C93FF91EF91BF91AF919F918F9155
:1008E0007F916F915F914F913F912F910F900FBE2C
:1008F0000F901F901895CF92DF92EF92FF920F9377
:100900001F93CF93DF936C017A018B01C0E0D0E09D
:10091000CE15DF0589F0D8016D918D01D601ED91DD
:10092000FC910190F081E02DC6010995892B11F40D
:100930007E0102C02196ECCFC701DF91CF911F91BC
:100940000F91FF90EF90DF90CF9008950F931F933A
:10095000CF93DF93CDB7DEB729970FB6F894DEBFFC
:100960000FBECDBF0E94920300914003109141033E
:100970002091420330914303DC01CB01801B910B9A
:10098000A20BB30BC297A105B10560F3F894809157
:100990003603909137039A838983E0913A03F0916B
:1009A0003B03DF0111968081898790913203E091AA
:1009B0004403F091450380914603992309F42EC026
:1009C0009081982B98879081809589238F838F8140
:1009D0008C8388E08B8358856F8149853B812C818E
:1009E00089819A81508347FD252F3A952083262FB0
:1009F00039F0441F00C000006083000000C0F2CF47
:100A000038E04D9160830000019761F7F093450352
:100A1000E093440349873B832C8338C09081982B13
:100A200098879081809589238F838F818E8388E03A
:100A30008D8358856F8149853D812E8189819A8179
:100A4000508347FD252F00C000C0208300C000C098
:100A500000C000C000C060830000262F3A9541F01E
:100A6000441F000000C000C000C000C000C0E8CFAC
:100A700038E04D9100C0608300C0019709F7F09302
:100A80004503E093440349873D832E839A838983FA
:100A900078940E9492036093400370934103809383
:100AA00042039093430329960FB6F894DEBF0FBE1E
:100AB000CDBFDF91CF911F910F910895EF92FF92DB
:100AC0000F931F93CF93DF93EC017B018881998172
:100AD0006115710519F1FB0101900020E9F73197CB
:100AE0008F01061B170B009729F02A813B812017E5
:100AF0003107F8F4B8016F5F7F4F0E942C0E00970A
:100B000059F0998388831B830A832C813D81232B91
:100B100081F4FC0110820DC088819981009711F049
:100B20000E94940D198218821D821C821B821A82D7
:100B300007C01D830C83B701888199810E94040F2F
:100B4000CE01DF91CF911F910F91FF90EF9008950B
:100B50006115710579F0FB0101900020E9F73197EB
:100B6000AF01461B570BDC01ED91FC910280F38134
:100B7000E02D099480E090E008958F929F92AF92CB
:100B8000BF920F931F93CF93DF93CDB7DEB7A1979B
:100B90000FB6F894DEBF0FBECDBF19A2423008F4E5
:100BA0004AE08E010F5D1F4F842E912CA12CB12C99
:100BB000A50194010E945715E62FB901CA01015001
:100BC0001109EA3014F4E05D01C0E95CD801EC934E
:100BD000232B242B252B61F7B80185E992E00E9495
:100BE000A805A1960FB6F894DEBF0FBECDBFDF916A
:100BF000CF911F910F91BF90AF909F908F900895CC
:100C00004F925F926F927F928F929F92AF92BF921C
:100C1000CF92DF92EF92FF926B017C019B01AC01BE
:100C20000E94FA0C882319F068EB71E01AC04601A3
:100C30005701E894B7F82FEF3FEF4FE75FE7C501A3
:100C4000B4010E94FA0C811112C02FEF3FEF4FE761
:100C50005FE7C501B4010E94BA11181644F46CEBA9
:100C600071E085E992E00E94A8057C018FC02FEF1A
:100C70003FEF4FE75FE4C701B6010E94F50C18167D
:100C80001CF460EC71E0EDCF2FEF3FEF4FE75FEC2E
:100C9000C701B6010E94BA1187FDF3CF20E030E012
:100CA000A901C701B6010E94BA1187FF11C0E091E6
:100CB0009502F09196020190F081E02D6DE285E9B8
:100CC00092E009955C01F7FAF094F7F8F09402C00D
:100CD000A12CB12C2AE037ED43EA5BE3C701B60152
:100CE0000E94E80B2B013C010E94C60C6B017C01A9
:100CF0000E94BF119B01AC01C301B2010E94E70B2E
:100D00002B013C014AE0C701B6010E94BD057C01F0
:100D1000EA0CFB1CE0919502F09196020190F081A3
:100D2000E02D6EE285E992E00995E80EF91E20E0DB
:100D300030E040E251E4C301B2010E9420122B01D5
:100D40003C010E94C60C4B01A12CB12C4AE0C5010C
:100D5000B4010E94BD05E80EF91EC501B4010E9450
:100D6000BF119B01AC01C301B2010E94E70B20E05F
:100D700030E040E251E40E9420120E94C60C80E064
:100D800090E04AE00E94BD05E80EF91E62EA71E0BB
:100D900085E992E00E94A8058E0D9F1DFF90EF90BF
:100DA000DF90CF90BF90AF909F908F907F906F908B
:100DB0005F904F9008950F931F93CF93DF93EC01B3
:100DC0000E94A8058C0162EA71E0CE010E94A8058C
:100DD000800F911FDF91CF911F910F910895CF93B5
:100DE000DF93CDB7DEB7E4970FB6F894DEBF0FBE42
:100DF000CDBF789484B5826084BD84B5816084BDA4
:100E000085B5826085BD85B5816085BD80916E00A8
:100E1000816080936E0010928100809181008260D9
:100E20008093810080918100816080938100809116
:100E300080008160809380008091B1008460809305
:100E4000B1008091B00081608093B00080917A0001
:100E5000846080937A0080917A00826080937A0027
:100E600080917A00816080937A0080917A00806816
:100E700080937A001092C100E091A502F091A60241
:100E800082E08083E091A102F091A2021082E091C1
:100E9000A302F091A40280E180831092AD02E09160
:100EA000A902F091AA0286E08083E091A702F09166
:100EB000A802808180618083E091A702F091A8025E
:100EC000808188608083E091A702F091A8028081F0
:100ED00080688083E091A702F091A80280818F7DD5
:100EE00080838091380387FD08C061E00E9456032B
:100EF00060E0809138030E940A0381E0809333030D
:100F000080913A0390913B03892B11F00E94A60433
:100F100060913903613221F120913A0330913B0312
:100F2000615031F070E08FEF90E20E94B90B02C087
:100F300060E070E0F9014091360350913703CF0132
:100F4000821B930B8417950740F44081469FC00194
:100F5000479F900D11249193EECF81E28093390346
:100F600010926203109261031092600310925F036B
:100F700010925E0310925D038DE991E090936403FB
:100F80008093630390915303963108F057C02DEB83
:100F900030E030935E0320935D032BE931E0309322
:100FA000600320935F032CE231E0309362032093CF
:100FB000610320916800983050F031E09E3008F4D1
:100FC00030E081E001C0880F3A95EAF701C084E083
:100FD000822B80936800983038F09E3040F0963134
:100FE00048F020E030E008C02DE630E005C02BE6F8
:100FF00030E002C02CE630E030935B0320935A03CC
:10100000983030F481E001C0880F9A95EAF70EC05D
:10101000292F30E09E3018F42850310902C02E509C
:10102000310981E001C0880F2A95EAF780935C03BB
:1010300080916303909164030197F1F780916103BC
:1010400090916203892B21F180910F0290911002FF
:1010500023E087349207E1F0009711F00E949A0292
:10106000809165038E7F8093650310920E0210922B
:101070000D0287E493E09093100280930F02E091B9
:101080005A03F0915B03908180915C03892B8083EC
:1010900066E271E087E493E00E94DB0667E371E0BB
:1010A00087E493E00E94DB0660E571E087E493E06B
:1010B0000E94DB0662E871E085E992E00E94DB06AF
:1010C000E3E9F1E080E090E08230910544F4208192
:1010D000AFE2B0E0AC0FBD1FA80FB91F09C0DC0123
:1010E000129722E230E02C0F3D1FA20FB31F208188
:1010F0002C93019631968930910531F760E070E0CC
:10110000CE018F960E942B0F2B013C0160E070E016
:10111000CE0182960E942B0F4B015C0120E030E053
:1011200040E752E40E94540C9B01AC01C301B201A0
:101130000E94E80B6B017C01BE01615D7F4F85E978
:1011400092E00E94DB06BE016E5D7F4F85E992E072
:101150000E94DB061AA619A61CA61BA61EA61DA683
:101160008E010F5F1F4F26E048E0C301B2010E94CD
:101170000B0FBC01CE0189960E945E0569A57AA578
:1011800085E992E00E94DB0689A59AA50E94940D4C
:101190001AA619A61CA61BA61EA61DA626E048E098
:1011A000C501B4010E940B0FBC01CE0189960E94BB
:1011B0005E0569A57AA585E992E00E94DB0689A50E
:1011C0009AA50E94940D1AA619A61CA61BA61EA6D7
:1011D0001DA6C701B601905826E048E00E940B0FFB
:1011E000BC01CE0189960E945E0569A57AA585E9B4
:1011F00092E00E94DB0689A59AA50E94940DE1E188
:10120000F2E020E811922A95E9F710E087E493E0F4
:101210000E94F4010196D1F387E493E00E947902E1
:10122000E12FF0E0EF5EFD4F8083112329F084323F
:1012300019F48093110210E080911102843231F789
:1012400081E0810FE12FF0E0EF5EFD4F90819A3059
:1012500011F0182FDBCF90E0FC01E15FFD4F108211
:101260008C0105501109F801EF5EFD4F20812A32F3
:1012700061F640E150E060E070E0835F9D4F0E94C6
:10128000881021E0822F90E0801791073CF4FC0148
:10129000EF5EFD4F808168272F5FF4CF6111B5CFDE
:1012A000409091025090920260909302709094024C
:1012B00020E030E04AE753E4C301B2010E94540C3D
:1012C0000E94C60C162F70E080E090E00E94C111D1
:1012D00020E030E04CEC51E40E9420124B015C0114
:1012E00094E0E92EF12C23E0C22ED12C2224239469
:1012F000312C00E08091340390913503101708F4ED
:1013000042C02816390608F066C0A501940160E0C5
:1013100070E08FE793E40E94E70B0E94C60C562F03
:10132000C501B4015CAB0E94C60C262F6091390345
:101330005CA9662341F0269F90011124232F569F1C
:10134000B0011124572F30913F0340913C0380910D
:101350003A0390913B03341303C08C0D9D1D06C0CE
:101360008E0D9F1DFC01E30FF11D108230913C0397
:10137000FC01E30FF11D208320913D03FC01E20FEE
:10138000F11D508322C02816390628F520913F030D
:1013900030913C0380913A0390913B03231303C0A7
:1013A0008C0D9D1D06C08E0D9F1DFC01E20FF11DD1
:1013B000108220913C03FC01E20FF11D108220916C
:1013C0003D03FC01E20FF11D108220913E03FC0160
:1013D000E20FF11D10820F5F68E0260E311C88E1DC
:1013E000C80ED11CE0E2EE0EF11C053009F082CFF0
:1013F00080913A0390913B03892B11F00E94A6043F
:101400000E9492039B01AC0184E6C82ED12CE12CF2
:10141000F12C29AB3AAB4BAB5CAB0E94920329A9F0
:101420003AA94BA95CA9DC01CB01821B930BA40B4D
:10143000B50B883E9340A105B10548F0F1E0CF1A05
:10144000D108E108F10828513C4F4F4F5F4FC114BC
:10145000D104E104F104E9F620E030E0A901C30180
:10146000B2010E94BA11811105C080E090E4ACE99C
:10147000B4E40EC020E030E44CE954E4C301B2010E
:101480000E94BA1181110DC080E090E4ACE1B5E496
:101490008093910290939202A0939302B09394024E
:1014A00012C020E030E44CE155E4C301B2010E94D7
:1014B000BA11811108C010929102109292021092FA
:1014C0009302109294026DE971E085E992E00E9426
:1014D000A805612F70E080E090E04AE00E94BD0521
:1014E00062EA71E085E992E00E94A80565EA71E090
:1014F00085E992E00E94A805C501B4010E9400069A
:101500006DEA71E085E992E00E94A8056091910280
:101510007091920280919302909194020E94000631
:1015200061E172E085E992E00E94DB060E94EA0137
:1015300066CE80913A0390913B03009711F00E9490
:10154000940D8091380387FD03C060E00E9456032C
:101550008AE191E0909348038093470387E493E006
:101560000C949A02109298021092970288EE93E0DF
:10157000A0E0B0E08093990290939A02A0939B021E
:10158000B0939C022AE031E03093960220939502BA
:1015900025EC30E03093A2022093A10224EC30E04D
:1015A0003093A4022093A30220EC30E03093A602F3
:1015B0002093A50221EC30E03093A8022093A702EB
:1015C00022EC30E03093AA022093A90226EC30E00E
:1015D0003093AC022093AB021092AE021092AF0295
:1015E0001092B0021092B10210924A031092490375
:1015F00080934B0390934C03A0934D03B0934E0301
:101600008AE191E0909348038093470310925E0330
:1016100010925D031092600310925F0310926203B8
:10162000109261031092640310926303609165034A
:101630006E7F6D7F609365036695617081E06827BA
:1016400087E00E940A0361E087E00E945603E5EB11
:10165000F0E0E491E0935703E1EAF0E0E491F0E098
:10166000EE0FFF1FEA57FF4F859194919093590316
:101670008093580360E088E00E94560380916503E0
:1016800081FD04C061E088E00E940A0388E0809345
:101690005303E6EBF0E0E491E0935403E2EAF0E078
:1016A000E491F0E0EE0FFF1FE057FF4F859194911A
:1016B000909356038093550310923303109239038D
:1016C0001092400310924103109242031092430380
:1016D00081E080933F0380933C0310923D0392E0AE
:1016E00090933E038093320388E790E09093370312
:1016F000809336030E94FF0C90933B0380933A0340
:10170000009761F028E7FC0111922A95E9F788E239
:1017100090E0909335038093340308C01092370310
:1017200010923603109235031092340386E08093B2
:10173000380380913303882341F061E086E00E9402
:10174000560360E086E00E940A03E0EAF0E0E491DC
:10175000F0E0EE0FFF1FEA57FF4F859194919093B1
:10176000450380934403E4EBF0E0E491E093460307
:101770000895AA1BBB1B51E107C0AA1FBB1FA617D8
:10178000B70710F0A61BB70B881F991F5A95A9F72A
:1017900080959095BC01CD01089597FB072E16F416
:1017A000009407D077FD09D00E94B90B07FC05D043
:1017B0003EF4909581959F4F0895709561957F4F68
:1017C0000895EE0FFF1F0590F491E02D09945058F5
:1017D000BB27AA270E94FF0B0C940D150E94FF1433
:1017E00038F00E94061520F039F49F3F19F426F4D2
:1017F0000C94FC140EF4E095E7FB0C94F614E92F1E
:101800000E941E1558F3BA176207730784079507DD
:1018100020F079F4A6F50C9440150EF4E0950B2E0B
:10182000BA2FA02D0B01B90190010C01CA01A00132
:101830001124FF27591B99F0593F50F4503E68F18D
:101840001A16F040A22F232F342F4427585FF3CFCE
:10185000469537952795A795F0405395C9F77EF49F
:101860001F16BA0B620B730B840BBAF09150A1F0E8
:10187000FF0FBB1F661F771F881FC2F70EC0BA0F6E
:10188000621F731F841F48F4879577956795B795F6
:10189000F7959E3F08F0B0CF9395880F08F09927F1
:1018A000EE0F9795879508950E94680C0C940D157E
:1018B0000E94061558F00E94FF1440F029F45F3F83
:1018C00029F00C94F61451110C9441150C94FC144D
:1018D0000E941E1568F39923B1F3552391F3951BCC
:1018E000550BBB27AA2762177307840738F09F5F41
:1018F0005F4F220F331F441FAA1FA9F335D00E2EAE
:101900003AF0E0E832D091505040E695001CCAF71A
:101910002BD0FE2F29D0660F771F881FBB1F2617DD
:1019200037074807AB07B0E809F0BB0B802DBF01B4
:10193000FF2793585F4F3AF09E3F510578F00C9483
:10194000F6140C9441155F3FE4F3983ED4F386956A
:1019500077956795B795F7959F5FC9F7880F911DA4
:101960009695879597F90895E1E0660F771F881F90
:10197000BB1F621773078407BA0720F0621B730B43
:10198000840BBA0BEE1F88F7E09508950E94261588
:1019900088F09F5798F0B92F9927B751B0F0E1F030
:1019A000660F771F881F991F1AF0BA95C9F714C0E0
:1019B000B13091F00E944015B1E008950C944015AB
:1019C000672F782F8827B85F39F0B93FCCF3869519
:1019D00077956795B395D9F73EF490958095709576
:1019E00061957F4F8F4F9F4F08950E94FC1108F41F
:1019F0008FEF08950E94FC11880B990B0895CF93E7
:101A0000DF938230910510F482E090E0E09168036A
:101A1000F091690320E030E0C0E0D0E0309711F1B0
:101A20004081518148175907C0F04817590761F4A0
:101A300082819381209719F09B838A832BC0909396
:101A400069038093680326C02115310519F04217F8
:101A5000530718F49A01BE01DF01EF010280F38100
:101A6000E02DDCCF2115310509F1281B390B24307D
:101A7000310590F412968D919C9113976115710523
:101A800021F0FB019383828304C0909369038093C8
:101A90006803FD01329644C0FD01E20FF31F8193FC
:101AA0009193225031092D933C933AC020916603C3
:101AB00030916703232B41F42091020130910301FF
:101AC0003093670320936603209100013091010158
:101AD0002115310541F42DB73EB7409104015091D5
:101AE0000501241B350BE0916603F0916703E217B3
:101AF000F307A0F42E1B3F0B2817390778F0AC0131
:101B00004E5F5F4F2417350748F04E0F5F1F50930D
:101B10006703409366038193919302C0E0E0F0E095
:101B2000CF01DF91CF9108950F931F93CF93DF9350
:101B3000009709F48CC0FC01329713821282009145
:101B40006803109169030115110581F42081318129
:101B5000820F931F2091660330916703281739077E
:101B600079F5F0936703E093660371C0D80140E014
:101B700050E0AE17BF0750F412962D913C91139789
:101B8000AD012115310509F1D901F3CF9D01DA012C
:101B90003383228360817181860F971F8217930799
:101BA00069F4EC0128813981260F371F2E5F3F4FE2
:101BB000318320838A819B8193838283452B29F4FF
:101BC000F0936903E093680342C01396FC93EE938D
:101BD0001297ED01499159919E01240F351FE2178B
:101BE000F30771F480819181840F951F02961196FD
:101BF0009C938E938281938113969C938E931297DC
:101C0000E0E0F0E0D80112968D919C911397009737
:101C100019F0F8018C01F6CF8D919C9198012E5FFF
:101C20003F4F820F931F209166033091670328175F
:101C3000390769F4309729F4109269031092680308
:101C400002C0138212821093670300936603DF9130
:101C5000CF911F910F910895A0E0B0E0E2E3FEE084
:101C60000C948815EC01009721F4CB010E94FF0C25
:101C7000B8C0FC01E60FF71F9C0122503109E217A2
:101C8000F30708F4ACC0D9010D911C911197061708
:101C90001707B0F00530110508F49FC0C80104977C
:101CA0008617970708F499C002501109061B170BF5
:101CB000019311936D937C93CF010E94940D8DC07D
:101CC0005B01A01AB10A4C01800E911EA09168031D
:101CD000B091690340E050E0E12CF12C109709F439
:101CE0004AC0A815B905D1F56D907C901197630194
:101CF00082E0C80ED11CCA14DB0480F1A3014A198A
:101D00005B096A0182E0C80ED11C1296BC90129742
:101D10001396AC91B5E0CB16D10440F0B282A38308
:101D200051834083D9016D937C930AC00E5F1F4F8E
:101D3000C301800F911FF90191838083EB2DFA2F4E
:101D4000E114F10431F0D7011396FC93EE9312974E
:101D500044C0F0936903E09368033FC08D919C9168
:101D600011974817590708F4AC017D0112960D90A0
:101D7000BC91A02DB3CF8091660390916703881525
:101D80009905E1F446175707C8F480910001909136
:101D90000101009741F48DB79EB740910401509125
:101DA0000501841B950BE817F907C8F4F093670346
:101DB000E0936603F901718360830FC0CB010E9439
:101DC000FF0C7C01009759F0A801BE010E94FB0E98
:101DD000CE010E94940DC70104C0CE0102C080E074
:101DE00090E0CDB7DEB7EEE00C94A41581E090E072
:101DF000F8940C94CA15FB01DC0102C001900D920D
:101E000041505040D8F70895FB01DC0101900D923C
:101E10000020E1F70895EF920F931F93CF93DF9384
:101E2000E80147FD02C034E001C034E1E42F440F73
:101E3000FF0BF7FF03C0F195E195F109E32E022FA7
:101E40002E2FAE010E948D12CE01DF91CF911F91F6
:101E50000F91EF900895A0E0B0E0E1E3FFE00C9473
:101E60008815EC017B016115710519F0DB018D937B
:101E70009C938E010F5F1F4F7880872D90E00E940A
:101E80009911892B11F0E801F4CFBDE27B1205C056
:101E90000F5F1F4F7980C1E008C0EBE27E1204C0E3
:101EA0008E010E5F1F4F7980C0E06801F1E0CF1A0C
:101EB000D10843E050E06AEC70E0C6010E94A21134
:101EC000892BF1F4680122E0C20ED11C45E050E0FC
:101ED00065EC70E0C6010E94A211892B21F4680113
:101EE00087E0C80ED11CE114F10419F0D701CD929E
:101EF000DC92C111FFC060E070E080E89FE703C1A1
:101F000043E050E062EC70E0C6010E94A211892B10
:101F100051F4E114F10409F4F2C00E5F1F4FF70110
:101F200011830083ECC0680160E070E0CB0100E049
:101F300010E0F601D0EDD70DDA3058F52C2F2260E5
:101F4000622E2C2F2870C2FF05C0211128C00F5F00
:101F50001F4F25C0222311F001501109A5E0B0E068
:101F60009B01AC010E9479154B015C01880C991C06
:101F7000AA1CBB1CC501B4016D0F711D811D911DF3
:101F80006839A9E97A078A07A9E19A0740F0C6608B
:101F900005C0DE3F51F4C3FD44C0C8606C2EBFEFE6
:101FA000CB1ADB0A7080C62DC4CF2D2F2F7D253193
:101FB000C1F540814D3211F4C06106C04B3221F0B1
:101FC000319621E030E006C03296D60111964C9150
:101FD00022E030E0A0EDA40FAA3018F0E21BF30BD2
:101FE00020C040E050E04038BCE05B075CF49A0160
:101FF000220F331F220F331F420F531F440F551F51
:102000004A0F511D3196DF0111972C91A0EDA20FBF
:10201000AA3048F3C4FF03C0519541955109040FFC
:10202000151FC1FF07C0E114F10421F03197D7015A
:10203000ED93FC930E94BF11C370C33019F06B0184
:102040007C0106C06B017C01F7FAF094F7F8F0947C
:1020500020E030E0A901C701B6010E94BA1188232F
:1020600009F445C017FF06C0119501951109C1EE8D
:10207000D0E002C0C9EFD0E05E01B8E1AB1AB10810
:102080004601BE2DAF2D90E2E92EF12C0E151F0555
:1020900084F0FE012591359145915491B4018B2F27
:1020A0009A2F0E9420124B01B82FA92F0E191F0939
:1020B000EDCF2497F594E794CA15DB0539F7640151
:1020C000EB2EFA2E8E2D880F8F2D881F8F3F49F013
:1020D00020E030E0A901C701B6010E94BA118111C8
:1020E00006C082E290E090936B0380936A03C7017D
:1020F000B60109C060E070E080E89FEF04C060E0D6
:1021000070E080EC9FE7CDB7DEB7EEE00C94A4154D
:10211000A0E0B0E0EEE8F0E10C9484155C016B0106
:102120007A016115710519F0FB0191838083E11437
:10213000F10429F0C7010297839708F0F1C0E50187
:102140002196F5011081812F90E00E949911892B31
:1021500011F05E01F4CF1D3229F42196F5011181B1
:1021600001E007C01B3221F4E5012296F50111813F
:1021700000E0E114F10459F1F0E1EF16F10461F42B
:102180001033E1F488818F7D883569F519812296B5
:10219000026070E1E72EF12C88E0E816F10439F1D5
:1021A0002CF4F2E0EF16F104C9F12AC08AE0E81637
:1021B000F10479F0E0E1EE16F10411F550E1E52EBD
:1021C000F12C812C912CA12C68E0B62E2CC0103360
:1021D000C9F23AE0E32EF12C4CEC842E982CA82C7A
:1021E0004CE0B42E20C010E3E114F104A9F698E00D
:1021F000E92EF12C812C912CA12C20E1B22E13C0C0
:1022000060E070E080E090E897010F2C000C440B38
:10221000550B0E94571549015A0105C0812C912C7C
:10222000A12C80E4B82E60E020E030E0A901270175
:102230000F2C000C660877081E01E0EDE10FEA3074
:1022400060F08FEB810F8A3110F4E9EC05C08FE963
:10225000810F8A3128F5E9EAE10F8E2F90E08E1583
:102260009F05F4F467FD18C082169306A406B50610
:1022700090F0C301B2010E9447159B01AC012E0FE3
:10228000311D411D511D213031054105F0E85F0729
:1022900010F461E001C06FEF2196F1011081CCCF05
:1022A000802F8170C114D10471F0662329F0219729
:1022B000F601D183C08307C001FF19C02297F60140
:1022C000D183C08314C067FF12C0811105C02FEFF6
:1022D0003FEF4FEF5FE704C020E030E040E050E820
:1022E00082E290E090936B0380936A0316C0882388
:1022F00041F050954095309521953F4F4F4F5F4F9E
:102300000CC057FF0AC082E290E090936B03809369
:102310006A032FEF3FEF4FEF5FE7B901CA0104C037
:1023200060E070E080E090E0CDB7DEB7E2E10C94D1
:10233000A01591110C94F314803219F08950855036
:10234000C8F70895FB01DC014150504088F08D91A1
:1023500081341CF08B350CF4805E659161341CF087
:102360006B350CF4605E861B611171F3990B089557
:10237000881BFCCF0E94FC1108F481E00895E894CA
:1023800009C097FB3EF490958095709561957F4FBD
:102390008F4F9F4F9923A9F0F92F96E9BB2793956B
:1023A000F695879577956795B795F111F8CFFAF47B
:1023B000BB0F11F460FF1BC06F5F7F4F8F4F9F4FAC
:1023C00016C0882311F096E911C0772321F09EE80A
:1023D000872F762F05C0662371F096E8862F70E070
:1023E00060E02AF09A95660F771F881FDAF7880F4A
:1023F0009695879597F90895990F0008550FAA0BA0
:10240000E0E8FEEF16161706E807F907C0F0121607
:102410001306E407F50798F0621B730B840B950B0A
:1024200039F40A2661F0232B242B252B21F408955F
:102430000A2609F4A140A6958FEF811D811D0895FC
:102440000E9433120C940D150E94FF1438F00E9464
:10245000061520F0952311F00C94F6140C94FC143E
:1024600011240C9441150E941E1570F3959FC1F321
:10247000950F50E0551F629FF001729FBB27F00D32
:10248000B11D639FAA27F00DB11DAA1F649F662787
:10249000B00DA11D661F829F2227B00DA11D621FD6
:1024A000739FB00DA11D621F839FA00D611D221F90
:1024B000749F3327A00D611D231F849F600D211D74
:1024C000822F762F6A2F11249F5750409AF0F1F0F7
:1024D00088234AF0EE0FFF1FBB1F661F771F881F60
:1024E00091505040A9F79E3F510580F00C94F6148E
:1024F0000C9441155F3FE4F3983ED4F386957795AD
:102500006795B795F795E7959F5FC1F7FE2B880F05
:10251000911D9695879597F908954F925F926F92C6
:102520007F929F92AF92BF92CF92DF92EF92FF92F3
:102530000F931F93CF93DF93CDB7DEB729970FB6D5
:10254000F894DEBF0FBECDBF6A01122FB02E2BE371
:10255000201720F0FF24F394F00E02C0BCE3FB2E02
:102560000F2D27E0AE014F5F5F4F0E941B14AC019F
:102570008981982F9970913031F0E1FC06C0E0FE1E
:1025800006C090E205C09DE203C09BE201C090E05E
:10259000EE2DE07183FF3CC0911102C083E001C0C9
:1025A00084E0811718F4212F281B01C020E0E111DD
:1025B0000BC0F601822F30E2882319F0319381504D
:1025C000FBCFC20ED11C20E0992329F0D6019C93A9
:1025D000F60131966F01C6010396E2FE0AC03EE4A1
:1025E000D6013C9341E411964C93119712963C937B
:1025F00006C03EE6F601308341E641833283FC01AA
:10260000322F40E2332309F442C041933150FACFD4
:1026100082FF44C0911102C083E001C084E08117B1
:1026200018F4212F281B01C020E0E1110BC0F60196
:10263000822F30E2882319F031938150FBCFC20EF4
:10264000D11C20E0992329F0D6019C93F601319604
:102650006F01C6010396E2FE0BC039E4D6013C933C
:102660003EE411963C93119736E412963C9307C0D2
:1026700039E6F60130833EE6318336E63283FC01EB
:10268000322F40E2332319F041933150FBCFFC014C
:10269000E20FF11D10828EEF9FEFB7C0F1E09111B4
:1026A00001C0F0E06F2F70E01416150624F49A01B3
:1026B0002F5F3F4F02C021E030E0260F371FBB20C5
:1026C00029F06B2D70E06F5F7F4F02C060E070E01B
:1026D000260F371F612F70E0261737071CF4121BD7
:1026E000212F01C020E03E2D387159F4D601322F40
:1026F00060E2332319F06D933150FBCFC20ED11C31
:1027000020E0FF2331F0D6019C93B6016F5F7F4F2D
:102710006B01E1110BC0F601922F30E3992319F000
:1027200031939150FBCFC20ED11C20E09F2D940F0E
:102730003A81782F7071A72E84FF03C0313309F4DA
:102740009150191624F4993018F098E001C091E0E6
:10275000E42F852F57FF02C0E0E080E06E2F782F36
:10276000E0E0F0E0AEE29A2E3A01691A71082A011F
:10277000461A570A0B2D10E01195019511096F3F6C
:102780008FEF780729F4D6019C92C60101966C015F
:102790004617570784F0661677066CF47F01E40C41
:1027A000F51CA1E0B0E0AC0FBD1FEA0EFB1ED70187
:1027B0001196BC9002C090E3B92E61507109319618
:1027C000C60101967C016017710724F0D601BC9206
:1027D0006C01D5CF6417750741F4363320F43533D7
:1027E00021F4A11002C081E3B82EF601B082F701F6
:1027F000822F90E2882319F091938150FBCFF7014B
:10280000E20FF11D108280E090E029960FB6F89457
:10281000DEBF0FBECDBFDF91CF911F910F91FF9013
:10282000EF90DF90CF90BF90AF909F907F906F9090
:102830005F904F900895283008F027E03327DA01A1
:10284000990F311D87FD916000966105710539F47E
:1028500032602E5F3D9330E32A95E1F708959F3F64
:1028600030F080387105610509F03C5F3C5F3D93B5
:10287000913008F08068911DDF93CF931F930F93E1
:10288000FF92EF92192F987F9695E92F969596953E
:10289000E90FFF27E95AFE4F99273327EE24FF243B
:1028A000A701E70105900894079428F4360FE71E66
:1028B000F81E491F511D660F771F881F991F069428
:1028C000A1F70590079428F4E70EF81E491F561F3C
:1028D000C11D770F881F991F661F0694A1F70590E9
:1028E000079428F4F80E491F561FC71FD11D880FE3
:1028F000991F661F771F0694A1F70590079420F48F
:10290000490F561FC71FD81F990F661F771F881FB3
:102910000694A9F784911095177041F0D695C79544
:1029200057954795F794E7941A95C1F7EDEFF0E0C6
:1029300068941590159135916591959105907FE278
:102940007395E118F10A430B560BC90BD009C0F778
:10295000E10CF11E431F561FC91FD01D7EF47033BA
:1029600011F48A95E6CFE894015030F0080F0AF48C
:102970000027021708F4202F2395022F7A3328F01E
:1029800079E37D932A95E9F710C07D932A9589F61E
:10299000069497956795379517951794E118F10A5E
:1029A000430B560BC90BD00998F023957E91739574
:1029B0007A3308F070E37C932013B8F77E9170614E
:1029C0007D9330F0839571E37D9370E32A95E1F771
:1029D0001124EF90FF900F911F91CF91DF919927D4
:1029E00087FD9095089599278827089597F99F67FF
:1029F00080E870E060E008959FEF80EC0895002487
:102A00000A941616170618060906089500240A9453
:102A100012161306140605060895092E0394000CD9
:102A200011F4882352F0BB0F40F4BF2B11F460FF68
:102A300004C06F5F7F4F8F4F9F4F089557FD905891
:102A4000440F551F59F05F3F71F04795880F97FB72
:102A5000991F61F09F3F79F087950895121613062C
:102A60001406551FF2CF4695F1DF08C0161617065B
:102A70001806991FF1CF8695710561050894089590
:102A8000E894BB2766277727CB0197F90895DB01E8
:102A90008F939F930E947915BF91AF91A29F800D54
:102AA000911DA39F900DB29F900D11240895A1E256
:102AB0001A2EAA1BBB1BFD010DC0AA1FBB1FEE1FB8
:102AC000FF1FA217B307E407F50720F0A21BB30B03
:102AD000E40BF50B661F771F881F991F1A9469F77F
:102AE00060957095809590959B01AC01BD01CF01DB
:102AF00008950E94BB15A59F900DB49F900DA49FB3
:102B0000800D911D112408952F923F924F925F9254
:102B10006F927F928F929F92AF92BF92CF92DF92ED
:102B2000EF92FF920F931F93CF93DF93CDB7DEB752
:102B3000CA1BDB0B0FB6F894DEBF0FBECDBF0994E6
:102B40002A88398848885F846E847D848C849B843D
:102B5000AA84B984C884DF80EE80FD800C811B814B
:102B6000AA81B981CE0FD11D0FB6F894DEBF0FBE7A
:102B7000CDBFED010895A29FB001B39FC001A39FF7
:102B8000700D811D1124911DB29F700D811D1124A6
:102B9000911D089510E0CDEFD0E004C0FE010E9429
:0E2BA000E10B2196CE3FD107C9F7F894FFCF85
:102BAE0000006C0380000000000081017B044A01DC
:102BBE0028013C01C801000000000D027B046102E7
:102BCE007902F4010C0224504D544B3232302C3128
:102BDE003030302A31460024504D544B3330302C97
:102BEE00313030302C302C302C302C302A31430008
:102BFE0024504D544B3331342C302C312C302C305E
:102C0E002C302C302C302C302C302C302C302C30D6
:102C1E002C302C302C302C302C302C302C302A32C6
:102C2E003900537461727420636F6E7665727469C5
:102C3E006E6700313233342E353637380044353A2C
:102C4E0020000D0A00436F6C6F723A2000646973A6
:102C5E0074616E63653A20006E616E00696E660087
:042C6E006F76660017
:107E0000112484B714BE81FFF0D085E080938100F7
:107E100082E08093C00088E18093C10086E0809377
:107E2000C20080E18093C4008EE0C9D0259A86E02C
:107E300020E33CEF91E0309385002093840096BBD3
:107E4000B09BFECF1D9AA8958150A9F7CC24DD24C4
:107E500088248394B5E0AB2EA1E19A2EF3E0BF2EE7
:107E6000A2D0813461F49FD0082FAFD0023811F036
:107E7000013811F484E001C083E08DD089C08234E0
:107E800011F484E103C0853419F485E0A6D080C0E4
:107E9000853579F488D0E82EFF2485D0082F10E0AE
:107EA000102F00270E291F29000F111F8ED06801E7
:107EB0006FC0863521F484E090D080E0DECF843638
:107EC00009F040C070D06FD0082F6DD080E0C81688
:107ED00080E7D80618F4F601B7BEE895C0E0D1E017
:107EE00062D089930C17E1F7F0E0CF16F0E7DF06D8
:107EF00018F0F601B7BEE89568D007B600FCFDCFD4
:107F0000A601A0E0B1E02C9130E011968C91119780
:107F100090E0982F8827822B932B1296FA010C0160
:107F200087BEE89511244E5F5F4FF1E0A038BF0790
:107F300051F7F601A7BEE89507B600FCFDCF97BE46
:107F4000E89526C08437B1F42ED02DD0F82E2BD052
:107F50003CD0F601EF2C8F010F5F1F4F84911BD097
:107F6000EA94F801C1F70894C11CD11CFA94CF0C13
:107F7000D11C0EC0853739F428D08EE10CD085E9AC
:107F80000AD08FE07ACF813511F488E018D01DD067
:107F900080E101D065CF982F8091C00085FFFCCF94
:107FA0009093C60008958091C00087FFFCCF809118
:107FB000C00084FD01C0A8958091C6000895E0E648
:107FC000F0E098E1908380830895EDDF803219F02E
:107FD00088E0F5DFFFCF84E1DECF1F93182FE3DFCA
:107FE0001150E9F7F2DF1F91089580E0E8DFEE27F6
:047FF000FF270994CA
:027FFE00040479
:0400000300007E007B
:00000001FF