:100000000C94FE000C9426010C9426010C944704D9
:100010000C9447040C9447040C9426010C9426017C
:100020000C9426010C9426010C9426010C942601B4
:100030000C9426010C9426010C9426010C942601A4
:100040000C94FD030C9426010C94E4020C94BE0263
:100050000C9426010C9426010C9426010C94260184
:100060000C9426010C9426010000000024002700B7
:100070002A0000000008000201000003040700003D
:1000800000000000000000000000250028002B00F8
:1000900000000000230026002900040404040404D6
:1000A0000404020202020202030303030303010227
:1000B00004081020408001020408102001020408F6
:1000C00010204E414E494E495459494E46CDCCCC54
:1000D0003D0AD7233C17B7D13877CC2B329595E61C
:1000E000241FB14F0A000020410000C84200401CFC
:1000F0004620BCBE4CCA1B0E5AAEC59D7400407A49
:1001000010F35A00A0724E18090010A5D4E80000A0
:10011000E87648170000E40B54020000CA9A3B003E
:100120000000E1F505000080969800000040420FB5
:10013000000000A08601000000102700000000E879
:1001400003000000006400000000000A000000003E
:10015000000100000000002C76D888DC674F0823DF
:10016000DFC1DFAE59E1B1B796E5E3E453C63AE645
:1001700051997696E8E6C28426EB898C9B62ED4025
:100180007C6FFCEFBC9C9F40F2BAA56FA5F4900574
:100190005A2AF75C936B6CF9676DC11BFCE0E40DA8
:1001A00047FEF520E6B500D0ED902E03009435779C
:1001B000050080841E080000204E0A000000C80CC4
:1001C000333333330F986E12831141EF8D2114892D
:1001D0003BE65516CFFEE6DB18D1844B381BF77C87
:1001E0001D901DA4BBE424203284725E228100C9CC
:1001F000F124ECA1E53D2700280C0F0C11241FBEB3
:10020000CFEFD8E0DEBFCDBF11E0A0E0B1E0E4E287
:10021000F4E302C005900D92A63DB107D9F723E0A3
:10022000A6EDB1E001C01D92AE3CB207E1F710E0CF
:10023000CDEFD0E004C02197FE010E94770DCC3FA6
:10024000D107C9F70E9467070C94051A0C940000A7
:10025000FC01918D828D981761F0828DDF01A80FCE
:10026000B11D5D968C91928D9F5F9F73928F90E0F0
:1002700008958FEF9FEF0895FC01918D828D98175F
:1002800031F0828DE80FF11D858D90E008958FEF9C
:100290009FEF0895FC01918D228D892F90E0805C65
:1002A0009F4F821B91098F73992708958FEA92E0DF
:1002B0000E944A0121E0892B09F420E0822F089551
:1002C000FC01848DDF01A80FB11DA35ABF4F2C91F3
:1002D000848D90E001968F739927848FA689B789C2
:1002E0002C93A089B1898C9180648C93938D848D9B
:1002F000981306C00288F389E02D80818F7D80836A
:100300000895EF92FF920F931F93CF93DF93EC0129
:1003100081E0888F9B8D8C8D981305C0E889F989C1
:10032000808185FD24C0F62E0B8D10E00F5F1F4FDE
:100330000F731127E02E8C8DE8120CC00FB607FC4E
:10034000FACFE889F989808185FFF5CFCE010E9437
:100350006001F1CF8B8DFE01E80FF11DE35AFF4FD5
:10036000F0820B8FEA89FB898081806207C0EE8969
:10037000FF896083E889F98980818064808381E0D6
:1003800090E0DF91CF911F910F91FF90EF90089532
:10039000CF93DF93EC01888D8823C9F0EA89FB892C
:1003A000808185FD05C0A889B9898C9186FD0FC023
:1003B0000FB607FCF5CF808185FFF2CFA889B989F8
:1003C0008C9185FFEDCFCE010E946001E7CFDF91D8
:1003D000CF91089580E090E0892B29F00E9456018A
:1003E00081110C94000008952FB7F89460911702C2
:1003F000709118028091190290911A022FBF0895EE
:1004000020912102309122022817390771F490912E
:100410001F0280912002981741F0E0911F02F0E046
:10042000EA52FE4F808190E008958FEF9FEF08958C
:1004300008951F93CF93DF93DC015C962D913C913F
:100440005D972115310539F481E090E013969C9376
:100450008E9312973DC05196ED91FC915297509614
:100460009C915097892F80951FB75E964C915E970F
:1004700041FB772770F941FD6095F894408177231F
:1004800011F0492B01C048234083E9012197F1F77E
:1004900048E0508160FF02C0592B01C058235083AF
:1004A000E9012197F1F76695415099F7772321F0FB
:1004B00090818923808303C08081982B90831FBF04
:1004C0005C968D919C915D970197F1F721E030E06A
:1004D000C901DF91CF911F910895209121023091A0
:1004E00022022817390771F48091200220911F02FF
:1004F00090E0805C9F4F821B910960E470E00E9455
:10050000630D089580E090E00895209121023091DC
:10051000220228173907B9F490911F028091200216
:10052000981789F0E0911F02F0E0EA52FE4F8081B7
:1005300020911F0230E02F5F3F4F2F73332720930E
:100540001F0290E008958FEF9FEF0895E091210240
:10055000F0912202E817F90769F4A389B4899C9104
:100560008589809589238C93109222021092210212
:1005700081E0089580E008950E948C101F920F92F0
:100580000FB60F9211242F933F934F935F936F9366
:100590007F938F939F93AF93BF93EF93FF938FEAD4
:1005A00092E00E946001FF91EF91BF91AF919F9106
:1005B0008F917F916F915F914F913F912F910F900C
:1005C0000FBE0F901F9018951F920F920FB60F92AB
:1005D00011242F938F939F93EF93FF93E091BF028A
:1005E000F091C0028081E091C502F091C60282FDC7
:1005F00012C090818091C8028F5F8F732091C902D1
:10060000821751F0E091C802F0E0E155FD4F958F5F
:100610008093C80201C08081FF91EF919F918F91DB
:100620002F910F900FBE0F901F90189590E0FC0136
:10063000EE58FF4F3491FC01E255FF4F2491FC012D
:10064000E656FF4FE491EE2309F43BC0332339F122
:10065000333091F038F43130A9F0323001F584B5FF
:100660008F7D12C0373091F03830A1F03430B9F4BA
:10067000809180008F7D03C0809180008F77809370
:1006800080000DC084B58F7784BD09C08091B00013
:100690008F7703C08091B0008F7D8093B000F0E031
:1006A000EE0FFF1FEA57FF4FA591B4918FB7F89453
:1006B000EC91611103C020952E2301C02E2B2C93A9
:1006C0008FBF0895CF93DF9390E0FC01E255FF4F79
:1006D0002491FC01E656FF4F8491882361F190E05C
:1006E000880F991FFC01E859FF4FC591D491FC0177
:1006F000EA57FF4FA591B491611109C09FB7F894D3
:100700008881209582238883EC912E230BC0623050
:1007100061F49FB7F8943881822F80958323888372
:10072000EC912E2B2C939FBF06C08FB7F894E881D5
:100730002E2B28838FBFDF91CF9108953FB7F89478
:1007400080911B0290911C02A0911D02B0911E028B
:1007500026B5A89B05C02F3F19F00196A11DB11D1C
:100760003FBFBA2FA92F982F8827820F911DA11D57
:10077000B11DBC01CD0142E0660F771F881F991F94
:100780004A95D1F708958F929F92AF92BF92CF92E0
:10079000DF92EF92FF926B017C010E949E034B015E
:1007A0005C01C114D104E104F104F1F00E949E0344
:1007B000DC01CB0188199909AA09BB09883E93403D
:1007C000A105B10570F321E0C21AD108E108F108D2
:1007D00088EE880E83E0981EA11CB11CC114D104C0
:1007E000E104F10419F7DDCFFF90EF90DF90CF9097
:1007F000BF90AF909F908F9008951F920F920FB669
:100800000F9211242F933F938F939F93AF93BF9396
:100810008091170290911802A0911902B0911A02CA
:100820003091160223E0230F2D3720F40196A11DED
:10083000B11D05C026E8230F0296A11DB11D20930E
:1008400016028093170290931802A0931902B09396
:100850001A0280911B0290911C02A0911D02B0917E
:100860001E020196A11DB11D80931B0290931C02D4
:10087000A0931D02B0931E02BF91AF919F918F91E3
:100880003F912F910F900FBE0F901F9018951F92C0
:100890000F920FB60F9211242F933F934F935F93B4
:1008A0006F937F938F939F93AF93BF93EF93FF9338
:1008B000E0912102F0912202309709F451C0968D07
:1008C000A685B785858591FF04C09C91892329F46D
:1008D00047C09C91892309F043C0A389B4899C91A6
:1008E0008589809589238C93868997890197F1F76B
:1008F000608D718DA685B785558538E020E0CB01E8
:100900000197F1F7822F90E095958795282F4C91CC
:10091000452309F02068315091F7868D81FD20959F
:100920008091200290E001968F73992730911F02E9
:10093000381749F0A0912002B0E0AA52BE4F2C9384
:100940008093200203C0868D8160868F828D938D77
:100950000197F1F7A389B4899C918589892B8C93A0
:10096000FF91EF91BF91AF919F918F917F916F9187
:100970005F914F913F912F910F900FBE0F901F905D
:100980001895CF92DF92EF92FF920F931F93CF9320
:10099000DF936C017A018B01C0E0D0E0CE15DF055A
:1009A00089F0D8016D918D01D601ED91FC910190F6
:1009B000F081E02DC6010995892B11F47E0102C05A
:1009C0002196ECCFC701DF91CF911F910F91FF903E
:1009D000EF90DF90CF900895EFEAF2E0A089B1891F
:1009E00082E08C93A485B5851C92A685B78580E1AD
:1009F0008C93108EA489B58986E08C93A289B389E3
:100A00008C9180618C93A289B3898C9188608C933E
:100A1000A289B3898C9180688C930288F389E02D38
:100A200080818F7D80830895E091AF02F091B002C4
:100A30000190F081E02D682F8FEA92E009940F93E6
:100A40001F93CF93DF93CDB7DEB729970FB6F894F6
:100A5000DEBF0FBECDBF0E949E030091A203109186
:100A6000A3032091A4033091A503DC01CB01801BDB
:100A7000910BA20BB30BC297A105B10560F3F894DB
:100A800080919803909199039A838983E0919C03C4
:100A9000F0919D03DF0111968081898790919403E5
:100AA000E091A603F091A7038091A803992309F48C
:100AB0002EC09081982B98879081809589238F8371
:100AC0008F818C8388E08B8358856F8149853B813A
:100AD0002C8189819A81508347FD252F3A95208367
:100AE000262F39F0441F00C000006083000000C0C2
:100AF000F2CF38E04D9160830000019761F7F093E9
:100B0000A703E093A60349873B832C8338C09081D9
:100B1000982B98879081809589238F838F818E83EE
:100B200088E08D8358856F8149853D812E8189813B
:100B30009A81508347FD252F00C000C0208300C04C
:100B400000C000C000C000C060830000262F3A959E
:100B500041F0441F000000C000C000C000C000C041
:100B6000E8CF38E04D9100C0608300C0019709F7DD
:100B7000F093A703E093A60349873D832E839A83CE
:100B8000898378940E949E036093A2037093A303C9
:100B90008093A4039093A50329960FB6F894DEBF23
:100BA0000FBECDBFDF91CF911F910F910895EF92AE
:100BB000FF920F931F93CF93DF93EC017B0188810A
:100BC00099816115710519F1FB0101900020E9F788
:100BD00031978F01061B170B009729F02A813B8163
:100BE00020173107F8F4B8016F5F7F4F0E94C20FE2
:100BF000009759F0998388831B830A832C813D8158
:100C0000232B81F4FC0110820DC08881998100970B
:100C100011F00E942A0F198218821D821C821B82E9
:100C20001A8207C01D830C83B701888199810E94B5
:100C30009A10CE01DF91CF911F910F91FF90EF900D
:100C400008956115710579F0FB0101900020E9F725
:100C50003197AF01461B570BDC01ED91FC910280EF
:100C6000F381E02D099480E090E008954F925F9227
:100C70006F927F92EF92FF920F931F93CF93DF9328
:100C8000CDB7DEB7A1970FB6F894DEBF0FBECDBFCC
:100C90007C01FA01CB0119A2223008F42AE08E016E
:100CA0000F5D1F4F422E512C612C712CBF01A301EF
:100CB00092010E949219F901CA01015011096A308A
:100CC00014F4605D01C0695CD8016C93232B242B64
:100CD000252B61F7B801C7010E942106A1960FB626
:100CE000F894DEBF0FBECDBFDF91CF911F910F9162
:100CF000FF90EF907F906F905F904F9008954F928C
:100D00005F926F927F928F929F92AF92BF92CF929B
:100D1000DF92EF92FF926B017C019B01AC010E947C
:100D2000900E882319F06AEC71E01AC04601570151
:100D3000E894B7F82FEF3FEF4FE75FE7C501B40145
:100D40000E94900E811112C02FEF3FEF4FE75FE737
:100D5000C501B4010E945E18181644F46EEC71E0EF
:100D60008FEA92E00E9421067C0186C02FEF3FEFC0
:100D70004FE75FE4C701B6010E948B0E18161CF402
:100D800062ED71E0EDCF2FEF3FEF4FE75FECC70172
:100D9000B6010E945E1887FDF3CF20E030E0A90184
:100DA000C701B6010E945E1887FF09C08DE20E944C
:100DB00014055C01F7FAF094F7F8F09402C0A12C46
:100DC000B12C2AE037ED43EA5BE3C701B6010E948C
:100DD0007E0D2B013C010E945C0E6B017C010E9488
:100DE00063189B01AC01C301B2010E947D0D2B0170
:100DF0003C012AE0B701A6018FEA92E00E94360684
:100E00007C01EA0CFB1C8EE20E941405E80EF91E20
:100E100020E030E040E251E4C301B2010E94C41876
:100E20002B013C010E945C0E4B01A12CB12C2AE04D
:100E3000B501A4018FEA92E00E943606E80EF91E81
:100E4000C501B4010E9463189B01AC01C301B2014A
:100E50000E947D0D20E030E040E251E40E94C41881
:100E60000E945C0EAB0160E070E02AE08FEA92E045
:100E70000E943606E80EF91E65E371E08FEA92E003
:100E80000E9421068E0D9F1DFF90EF90DF90CF9066
:100E9000BF90AF909F908F907F906F905F904F909A
:100EA00008950F931F93CF93DF93EC010E942106C7
:100EB0008C0165E371E0CE010E942106800F911F35
:100EC000DF91CF911F910F9108950C942106CF933C
:100ED000DF93CDB7DEB7A8970FB6F894DEBF0FBE8D
:100EE000CDBF789484B5826084BD84B5816084BDB3
:100EF00085B5826085BD85B5816085BD80916E00B8
:100F0000816080936E0010928100809181008260E8
:100F10008093810080918100816080938100809125
:100F200080008160809380008091B1008460809314
:100F3000B1008091B00081608093B00080917A0010
:100F4000846080937A0080917A00826080937A0036
:100F500080917A00816080937A0080917A00806825
:100F600080937A001092C100109290031092910326
:100F7000109292031092930310924E0310924F031B
:100F8000109250031092510368EB7BE080E090E0F8
:100F90000E94C3038FEA92E090938F0380938E03A5
:100FA0000E94EC040E94F40160934E0370934F037F
:100FB000809350039093510366E271E080918E0319
:100FC00090918F030E9465076AE070E080E090E0F6
:100FD0000E94C30381E0809362030E94EC0480912D
:100FE0009A0387FD08C061E00E94620360E080917F
:100FF0009A030E94160381E08093950380919C03DD
:1010000090919D03892B11F00E941F0560919B0315
:10101000613221F120919C0330919D03615031F0A8
:1010200070E08FEF90E20E944F0D02C060E070E030
:10103000F9014091980350919903CF01821B930BC2
:101040008417950740F44081469FC001479F900D4B
:1010500011249193EECF81E280939B031092C403FD
:101060001092C3031092C2031092C1031092C003E6
:101070001092BF038DE991E09093C6038093C5035E
:101080009091B503963108F057C02DEB30E03093C6
:10109000C0032093BF032BE931E03093C2032093B8
:1010A000C1032CE231E03093C4032093C3032091A9
:1010B0006800983050F031E09E3008F430E081E074
:1010C00001C0880F3A95EAF701C084E0822B809333
:1010D0006800983038F09E3040F0963148F020E0BB
:1010E00030E008C02DE630E005C02BE630E002C05D
:1010F0002CE630E03093BD032093BC03983030F4ED
:1011000081E001C0880F9A95EAF70EC0292F30E0E0
:101110009E3018F42850310902C02E50310981E068
:1011200001C0880F2A95EAF78093BE038091C5031A
:101130009091C6030197F1F78091C3039091C40386
:10114000892B21F1809121029091220223E0893A9A
:101150009207E1F0009711F00E94A6028091C70368
:101160008E7F8093C7031092200210921F0289EA9B
:1011700093E09093220280932102E091BC03F091CE
:10118000BD0390818091BE03892B808368E371E069
:1011900089EA93E00E94510769E471E089EA93E0EB
:1011A0000E94510762E671E089EA93E00E945107CC
:1011B00034E9E32E31E0F32E00E010E0D12C0230D0
:1011C000110554F4D7018C91282F082E000C330BF5
:1011D0003F938F931F9209C0F7018081282F082E1B
:1011E000000C330B3F938F93DF921F920E94A1104C
:1011F0000F900F900F900F900F5F1F4FFFEFEF1AA0
:10120000FF0A09301105D9F600E0802F10E0912F78
:101210000E9473142B013C0180E090E00E94731443
:101220004B015C0120E030E040E752E40E94EA0D0F
:101230009B01AC01C301B2010E947E0D6B017C01D8
:10124000B8018FEA92E00E94510780E00E941405E5
:1012500065E371E08FEA92E00E9421061BA21AA2C8
:101260001DA21CA21FA21EA28E010F5F1F4F26E00F
:1012700048E0C301B2010E944213BC01CE01829634
:101280000E94D7056AA17BA18FEA92E00E945107D4
:101290008AA19BA10E942A0F1BA21AA21DA21CA216
:1012A0001FA21EA226E048E0C501B4010E9442131D
:1012B000BC01CE0182960E94D7056AA17BA18FEA6C
:1012C00092E00E9451078AA19BA10E942A0F1BA2B3
:1012D0001AA21DA21CA21FA21EA2C701B6019058ED
:1012E00026E048E00E944213BC01CE0182960E9493
:1012F000D7056AA17BA18FEA92E00E9451078AA1DB
:101300009BA10E942A0F0E94F401672B682B692B76
:1013100041F40E94F401623071058105910508F4E1
:1013200008C10E94F4016093AB027093AC028093F9
:10133000AD029093AE020091A7021091A8022091F5
:10134000A9023091AA02601771078207930740F43F
:101350006093A7027093A8028093A9029093AA02B7
:101360000091A7021091A8022091A9023091AA022F
:101370006B017C01C01AD10AE20AF30A97018601C7
:101380000A3F11052105310508F4D3C06093A70277
:101390007093A8028093A9029093AA0284EF91E02F
:1013A000A0E0B0E080935A0390935B03A0935C03AA
:1013B000B0935D0310925E0310925F03109260037E
:1013C000109261038091520390915303A0915403B2
:1013D000B09155038093560390935703A0935803FD
:1013E000B09359030E94F401609352037093530326
:1013F00080935403909355030E94F40160934E032D
:1014000070934F0380935003909351030E94F40113
:101410006B017C016EE971E080918E0390918F03E6
:101420000E9465072AE041E050E060E070E08091B2
:101430008E0390918F030E94360665EA71E08091D9
:101440008E0390918F030E9465072AE0B701A601E1
:1014500080918E0390918F030E94360667EA71E0B7
:1014600080918E0390918F030E94650780915203B3
:1014700090915303A0915403B0915503B701A60175
:10148000481B590B6A0B7B0B2AE080918E039091CD
:101490008F030E94360667EA71E080918E03909177
:1014A0008F030E946507409152035091530360914E
:1014B0005403709155038091560390915703A09166
:1014C0005803B0915903481B590B6A0B7B0B2AE058
:1014D00080918E0390918F030E94360669EA71E035
:1014E00080918E0390918F030E9465070E94F40102
:1014F000AB01BC012AE080918E0390918F030E9482
:1015000036066BEA71E080918E0390918F030E9402
:10151000510765E070E080E090E00E94C3030E9404
:10152000F401609352037093530380935403909398
:101530005503A3E2B2E0E0E81D92EA95E9F710E076
:1015400089EA93E00E9400020196D1F389EA93E0D0
:101550000E948502E12FF0E0ED5DFD4F80831123B5
:1015600029F0843219F48093230210E08091230241
:10157000843231F781E0810FE12FF0E0ED5DFD4F26
:1015800090819A3011F0182FDBCF90E0FC01EF5DD5
:10159000FD4F10828C0105501109F801ED5DFD4FE2
:1015A00020812A3261F640E150E060E070E0815E27
:1015B0009D4F0E94621321E0822F90E080179107D7
:1015C0003CF4FC01ED5DFD4F808168272F5FF4CF77
:1015D0006111B5CF4090A3025090A4026090A50283
:1015E0007090A60220E030E04AE753E4C301B20164
:1015F0000E94EA0D0E945C0E162F70E080E090E0E1
:101600000E94651820E030E04CEC51E40E94C418C0
:101610004B015C0184E0E82EF12C93E0C92ED12C23
:1016200022242394312C00E080919603909197031B
:10163000101708F442C02816390608F066C0A50144
:10164000940160E070E08FE793E40E947D0D0E94BA
:101650005C0E562FC501B40158A70E945C0E262FC0
:1016600060919B0358A5662341F0269F90011124A9
:10167000232F569FB0011124572F3091A103409181
:101680009E0380919C0390919D03341303C08C0DA5
:101690009D1D06C08E0D9F1DFC01E30FF11D1082E4
:1016A00030919E03FC01E30FF11D208320919F03E5
:1016B000FC01E20FF11D508322C02816390628F5DF
:1016C0002091A10330919E0380919C0390919D03F2
:1016D000231303C08C0D9D1D06C08E0D9F1DFC01A4
:1016E000E20FF11D108220919E03FC01E20FF11D1B
:1016F000108220919F03FC01E20FF11D10822091C6
:10170000A003FC01E20FF11D10820F5F28E0220E02
:10171000311C88E1C80ED11C90E2E90EF11C0530A5
:1017200009F082CF80919C0390919D03892B11F049
:101730000E941F0564E670E080E090E00E94C30311
:1017400020E030E0A901C301B2010E945E188111BE
:1017500005C080E090E4ACE9B4E40EC020E030E4E1
:101760004CE954E4C301B2010E945E1881110DC01E
:1017700080E090E4ACE1B5E48093A3029093A402EE
:10178000A093A502B093A60212C020E030E44CE181
:1017900055E4C301B2010E945E18811108C0109285
:1017A000A3021092A4021092A5021092A60262EB6C
:1017B00071E08FEA92E00E946507412F50E060E0FF
:1017C00070E02AE08FEA92E00E94360665E371E05D
:1017D0008FEA92E00E94210667EB71E08FEA92E0C7
:1017E0000E946507C501B4010E947F066FEB71E09E
:1017F0008FEA92E00E9465076091A3027091A402B3
:101800008091A5029091A6020E947F0663E272E099
:101810008FEA92E00E9451070E94EA0174CD809104
:101820009C0390919D03009711F00E942A0F8091D4
:101830009A0387FD03C060E00E9462038AE191E0A1
:101840009093AA038093A90389EA93E00C94A602DB
:101850001092B2021092B10288EE93E0A0E0B0E0E4
:101860008093B3029093B402A093B502B093B602F2
:101870002AE031E03093B0022093AF0225EC30E053
:101880003093BC022093BB0224EC30E03093BE02C4
:101890002093BD0220EC30E03093C0022093BF02C1
:1018A00021EC30E03093C2022093C10222EC30E000
:1018B0003093C4022093C30226EC30E03093C6027A
:1018C0002093C5021092C8021092C9021092CA0257
:1018D0001092CB02109252031092530310925403B1
:1018E000109255031092560310925703109258030A
:1018F0001092590310925A0310925B0310925C03EA
:1019000010925D0310925E0310925F0310926003C9
:10191000109261031092AC031092AB038093AD035D
:101920009093AE03A093AF03B093B0038AE191E02C
:101930009093AA038093A9031092C0031092BF034F
:101940001092C2031092C1031092C4031092C303F9
:101950001092C6031092C5036091C7036E7F6D7F1E
:101960006093C7036695617081E0682787E00E94F5
:10197000160361E087E00E946203E5EBF0E0E4918A
:10198000E093B903E1EAF0E0E491F0E0EE0FFF1F2D
:10199000EA57FF4F859194919093BB038093BA03CC
:1019A00060E088E00E9462038091C70381FD04C06B
:1019B00061E088E00E94160388E08093B503E6EBBF
:1019C000F0E0E491E093B603E2EAF0E0E491F0E0C5
:1019D000EE0FFF1FE057FF4F859194919093B8034E
:1019E0008093B7031092950310929B031092A20369
:1019F0001092A3031092A4031092A50381E0809398
:101A0000A10380939E0310929F0392E09093A00302
:101A10008093940388E790E09093990380939803D0
:101A20000E94950E90939D0380939C03009761F014
:101A300028E7FC0111922A95E9F788E290E090935B
:101A400097038093960308C010929903109298030D
:101A5000109297031092960386E080939A038091E8
:101A60009503882341F061E086E00E94620360E014
:101A700086E00E941603E0EAF0E0E491F0E0EE0F69
:101A8000FF1FEA57FF4F859194919093A70380938E
:101A9000A603E4EBF0E0E491E093A8030895AA1B09
:101AA000BB1B51E107C0AA1FBB1FA617B70710F049
:101AB000A61BB70B881F991F5A95A9F7809590957B
:101AC000BC01CD01089597FB072E16F4009407D0B2
:101AD00077FD09D00E944F0D07FC05D03EF490958C
:101AE00081959F4F0895709561957F4F0895EE0FF2
:101AF000FF1F0590F491E02D09945058BB27AA27A9
:101B00000E94950D0C9448190E943A1938F00E94D1
:101B1000411920F039F49F3F19F426F40C94371939
:101B20000EF4E095E7FB0C943119E92F0E94591946
:101B300058F3BA17620773078407950720F079F402
:101B4000A6F50C947B190EF4E0950B2EBA2FA02D60
:101B50000B01B90190010C01CA01A0011124FF275A
:101B6000591B99F0593F50F4503E68F11A16F04055
:101B7000A22F232F342F4427585FF3CF4695379554
:101B80002795A795F0405395C9F77EF41F16BA0B19
:101B9000620B730B840BBAF09150A1F0FF0FBB1FC7
:101BA000661F771F881FC2F70EC0BA0F621F731F10
:101BB000841F48F4879577956795B795F7959E3F6D
:101BC00008F0B0CF9395880F08F09927EE0F9795FE
:101BD000879508950E94FE0D0C9448190E944119A2
:101BE00058F00E943A1940F029F45F3F29F00C9414
:101BF000311951110C947C190C9437190E94591900
:101C000068F39923B1F3552391F3951B550BBB272B
:101C1000AA2762177307840738F09F5F5F4F220F70
:101C2000331F441FAA1FA9F335D00E2E3AF0E0E867
:101C300032D091505040E695001CCAF72BD0FE2FB1
:101C400029D0660F771F881FBB1F26173707480745
:101C5000AB07B0E809F0BB0B802DBF01FF279358FD
:101C60005F4F3AF09E3F510578F00C9431190C9477
:101C70007C195F3FE4F3983ED4F38695779567959A
:101C8000B795F7959F5FC9F7880F911D9695879532
:101C900097F90895E1E0660F771F881FBB1F621751
:101CA00073078407BA0720F0621B730B840BBA0B0F
:101CB000EE1F88F7E09508950E94611988F09F57FC
:101CC00098F0B92F9927B751B0F0E1F0660F771F60
:101CD000881F991F1AF0BA95C9F714C0B13091F056
:101CE0000E947B19B1E008950C947B19672F782F1F
:101CF0008827B85F39F0B93FCCF38695779567951B
:101D0000B395D9F73EF490958095709561957F4F86
:101D10008F4F9F4F08950E94A01808F48FEF0895E9
:101D20000E94A018880B990B0895CF93DF938230FF
:101D3000910510F482E090E0E091CA03F091CB03AA
:101D400020E030E0C0E0D0E0309711F140815181D7
:101D500048175907C0F04817590761F482819381E9
:101D6000209719F09B838A832BC09093CB03809399
:101D7000CA0326C02115310519F04217530718F47C
:101D80009A01BE01DF01EF010280F381E02DDCCF7B
:101D90002115310509F1281B390B2430310590F448
:101DA00012968D919C9113976115710521F0FB019D
:101DB0009383828304C09093CB038093CA03FD0175
:101DC000329644C0FD01E20FF31F8193919322509C
:101DD00031092D933C933AC02091C8033091C90337
:101DE000232B41F420910201309103013093C90368
:101DF0002093C80320910001309101012115310584
:101E000041F42DB73EB74091040150910501241BC8
:101E1000350BE091C803F091C903E217F307A0F472
:101E20002E1B3F0B2817390778F0AC014E5F5F4F30
:101E30002417350748F04E0F5F1F5093C903409396
:101E4000C8038193919302C0E0E0F0E0CF01DF91FD
:101E5000CF9108950F931F93CF93DF93009709F4C9
:101E60008CC0FC013297138212820091CA03109138
:101E7000CB030115110581F420813181820F931F5D
:101E80002091C8033091C9032817390779F5F093D9
:101E9000C903E093C80371C0D80140E050E0AE1719
:101EA000BF0750F412962D913C911397AD01211567
:101EB000310509F1D901F3CF9D01DA013383228382
:101EC00060817181860F971F8217930769F4EC0177
:101ED00028813981260F371F2E5F3F4F31832083A2
:101EE0008A819B8193838283452B29F4F093CB03D2
:101EF000E093CA0342C01396FC93EE931297ED0150
:101F0000499159919E01240F351FE217F30771F48F
:101F100080819181840F951F029611969C938E93D8
:101F20008281938113969C938E931297E0E0F0E068
:101F3000D80112968D919C911397009719F0F80192
:101F40008C01F6CF8D919C9198012E5F3F4F820FAF
:101F5000931F2091C8033091C9032817390769F4EA
:101F6000309729F41092CB031092CA0302C0138257
:101F700012821093C9030093C803DF91CF911F9180
:101F80000F910895A0E0B0E0E8ECFFE00C94C319D5
:101F9000EC01009721F4CB010E94950EB8C0FC0122
:101FA000E60FF71F9C0122503109E217F30708F4EE
:101FB000ACC0D9010D911C91119706171707B0F00D
:101FC0000530110508F49FC0C801049786179707CC
:101FD00008F499C002501109061B170B01931193C5
:101FE0006D937C93CF010E942A0F8DC05B01A01AD4
:101FF000B10A4C01800E911EA091CA03B091CB038F
:1020000040E050E0E12CF12C109709F44AC0A815EB
:10201000B905D1F56D907C901197630182E0C80EEF
:10202000D11CCA14DB0480F1A3014A195B096A01BF
:1020300082E0C80ED11C1296BC9012971396AC91F8
:10204000B5E0CB16D10440F0B282A3835183408324
:10205000D9016D937C930AC00E5F1F4FC301800F9F
:10206000911FF90191838083EB2DFA2FE114F10484
:1020700031F0D7011396FC93EE93129744C0F0937E
:10208000CB03E093CA033FC08D919C9111974817F1
:10209000590708F4AC017D0112960D90BC91A02D5A
:1020A000B3CF8091C8039091C90388159905E1F4D5
:1020B00046175707C8F480910001909101010097DD
:1020C00041F48DB79EB74091040150910501841BE6
:1020D000950BE817F907C8F4F093C903E093C80318
:1020E000F901718360830FC0CB010E94950E7C01C2
:1020F000009759F0A801BE010E949110CE010E94E4
:102100002A0FC70104C0CE0102C080E090E0CDB725
:10211000DEB7EEE00C94DF1981E090E0F8940C94C7
:10212000051AFB01DC0102C001900D9241505040A4
:10213000D8F70895FB01DC0101900D920020E1F732
:102140000895AEE0B0E0E7EAF0E10C94CD190D8916
:102150001E8986E08C831A8309838FEF9FE79E8315
:102160008D83AE01475E5F4F6F89788DCE010196FA
:102170000E94C4102F813885F801E20FF31F1082EE
:102180002E96E4E00C94E919ACE0B0E0EAECF0E162
:102190000C94BF197C016B018A01FC011782168225
:1021A000838181FFBDC1CE0101964C01F70193816E
:1021B000F60193FD859193FF81916F01882309F4C6
:1021C000ABC1853239F493FD859193FF81916F0105
:1021D000853229F4B70190E00E94AC12E7CF512C70
:1021E000312C20E02032A0F48B3269F030F48032C0
:1021F00059F0833269F420612CC08D3239F080337C
:1022000039F4216026C02260246023C0286021C0E8
:1022100027FD27C030ED380F3A3078F426FF06C08E
:10222000FAE05F9E300D1124532E13C08AE0389ED1
:10223000300D1124332E20620CC08E3221F426FD85
:102240006BC1206406C08C3611F4206802C0883649
:1022500041F4F60193FD859193FF81916F01811106
:10226000C1CF982F9F7D9554933028F40C5F1F4F5A
:10227000FFE3F9830DC0833631F0833771F0833586
:1022800009F05BC022C0F801808189830E5F1F4F77
:1022900044244394512C540115C03801F2E06F0ED0
:1022A000711CF801A080B18026FF03C0652D70E08D
:1022B00002C06FEF7FEFC5012C870E94A1122C0195
:1022C00083012C852F77222E17C03801F2E06F0E84
:1022D000711CF801A080B18026FF03C0652D70E05D
:1022E00002C06FEF7FEFC5012C870E9496122C0170
:1022F0002C852068222E830123FC1BC0832D90E0B7
:1023000048165906B0F4B70180E290E00E94AC1282
:102310003A94F4CFF50127FC859127FE81915F0166
:10232000B70190E00E94AC1231103A94F1E04F1ADC
:1023300051084114510471F7E5C0843611F0893613
:1023400039F5F80127FF07C060817181828193818F
:102350000C5F1F4F08C060817181072E000C880B35
:10236000990B0E5F1F4F2F76722E97FF09C0909525
:102370008095709561957F4F8F4F9F4F2068722E8B
:102380002AE030E0A4010E94E412A82EA81844C05C
:10239000853729F42F7EB22E2AE030E025C0F22FB7
:1023A000F97FBF2E8F36C1F018F4883579F0B4C0AC
:1023B000803719F0883721F0AFC02F2F2061B22E5F
:1023C000B4FE0DC08B2D8460B82E09C024FF0AC056
:1023D0009F2F9660B92E06C028E030E005C020E1AE
:1023E00030E002C020E132E0F801B7FE07C06081B2
:1023F0007181828193810C5F1F4F06C06081718162
:1024000080E090E00E5F1F4FA4010E94E412A82E0E
:10241000A818FB2DFF777F2E76FE0BC0372D3E7F51
:10242000A51450F474FE0AC072FC08C0372D3E7E1D
:1024300005C0BA2C372D03C0BA2C01C0B52C34FF0F
:102440000DC0FE01EA0DF11D8081803311F4397E4B
:1024500009C032FF06C0B394B39404C0832F8678BA
:1024600009F0B39433FD13C030FF06C05A2CB314E7
:1024700018F4530C5B18B32CB31468F4B70180E262
:1024800090E03C870E94AC12B3943C85F5CFB31426
:1024900010F43B1801C0312C34FF12C0B70180E3A7
:1024A00090E03C870E94AC123C8532FF17C031FDA2
:1024B00003C088E790E002C088E590E0B7010CC057
:1024C000832F867859F031FF02C08BE201C080E291
:1024D00037FD8DE2B70190E00E94AC12A51438F4EC
:1024E000B70180E390E00E94AC125A94F7CFAA940F
:1024F000F401EA0DF11D8081B70190E00E94AC1259
:10250000A110F5CF332009F451CEB70180E290E05D
:102510000E94AC123A94F6CFF7018681978102C0EF
:102520008FEF9FEF2C96E2E10C94DB19FC010590F4
:10253000615070400110D8F7809590958E0F9F1FC5
:102540000895FC016150704001900110D8F780950A
:1025500090958E0F9F1F08950F931F93CF93DF9336
:10256000FB01238121FD03C08FEF9FEF28C022FFD5
:1025700016C046815781248135814217530744F4A0
:10258000A081B1819D012F5F3F4F318320838C93C8
:10259000268137812F5F3F4F3783268310C0EB01A1
:1025A000092F182F0084F185E02D0995892BE1F67C
:1025B0008E819F8101969F838E83812F902FDF9143
:1025C000CF911F910F910895FA01AA27283051F158
:1025D000203181F1E8946F936E7F6E5F7F4F8F4F54
:1025E0009F4FAF4FB1E03ED0B4E03CD0670F781FB3
:1025F000891F9A1FA11D680F791F8A1F911DA11D98
:102600006A0F711D811D911DA11D20D009F46894D0
:102610003F912AE0269F11243019305D3193DEF678
:10262000CF010895462F4770405D4193B3E00FD02E
:10263000C9F7F6CF462F4F70405D4A3318F0495D19
:1026400031FD4052419302D0A9F7EACFB4E0A695FC
:102650009795879577956795BA95C9F7009761051E
:10266000710508959B01AC010A2E06945795479574
:1026700037952795BA95C9F7620F731F841F951F69
:10268000A01D0895EF920F931F93CF93DF93E8015E
:1026900047FD02C034E001C034E1E42F440FFF0BDA
:1026A000F7FF03C0F195E195F109E32E022F2E2FDC
:1026B000AE010E948014CE01DF91CF911F910F9146
:1026C000EF900895A0E0B0E0E8E6F3E10C94BF19C4
:1026D0005C016B017A016115710519F0FB019183B1
:1026E0008083E114F10429F0C7010297839708F071
:1026F000F1C0E5012196F5011081812F90E00E9443
:102700007714892B11F05E01F4CF1D3229F4219644
:10271000F501118101E007C01B3221F4E501229689
:10272000F501118100E0E114F10459F1F0E1EF1637
:10273000F10461F41033E1F488818F7D883569F507
:1027400019812296026070E1E72EF12C88E0E816EC
:10275000F10439F12CF4F2E0EF16F104C9F12AC0CA
:102760008AE0E816F10479F0E0E1EE16F10411F5E3
:1027700050E1E52EF12C812C912CA12C68E0B62E95
:102780002CC01033C9F23AE0E32EF12C4CEC842E2D
:10279000982CA82C4CE0B42E20C010E3E114F104D6
:1027A000A9F698E0E92EF12C812C912CA12C20E1A6
:1027B000B22E13C060E070E080E090E897010F2C2B
:1027C000000C440B550B0E94921949015A0105C097
:1027D000812C912CA12C80E4B82E60E020E030E028
:1027E000A90127010F2C000C660877081E01E0EDF7
:1027F000E10FEA3060F08FEB810F8A3110F4E9ECE1
:1028000005C08FE9810F8A3128F5E9EAE10F8E2FA3
:1028100090E08E159F05F4F467FD18C082169306AC
:10282000A406B50690F0C301B2010E9482199B0173
:10283000AC012E0F311D411D511D213031054105C7
:10284000F0E85F0710F461E001C06FEF2196F1013D
:102850001081CCCF802F8170C114D10471F0662318
:1028600029F02197F601D183C08307C001FF19C069
:102870002297F601D183C08314C067FF12C0811173
:1028800005C02FEF3FEF4FEF5FE704C020E030E0DF
:1028900040E050E882E290E09093CD038093CC0337
:1028A00016C0882341F050954095309521953F4FB3
:1028B0004F4F5F4F0CC057FF0AC082E290E09093E9
:1028C000CD038093CC032FEF3FEF4FEF5FE7B901CC
:1028D000CA0104C060E070E080E090E0CDB7DEB7F0
:1028E000E2E10C94DB19662777270C940E16911100
:1028F0000C944318803219F089508550C8F7089518
:102900004F925F926F927F929F92AF92BF92CF92BF
:10291000DF92EF92FF920F931F93CF93DF93CDB788
:10292000DEB729970FB6F894DEBF0FBECDBF6A01A0
:10293000122FB02E2BE3201720F0FF24F394F00E7B
:1029400002C0BCE3FB2E0F2D27E0AE014F5F5F4FAF
:102950000E946B17AC018981982F9970913031F0EA
:10296000E1FC06C0E0FE06C090E205C09DE203C0A7
:102970009BE201C090E0EE2DE07183FF3CC091111D
:1029800002C083E001C084E0811718F4212F281BC6
:1029900001C020E0E1110BC0F601822F30E2882354
:1029A00019F031938150FBCFC20ED11C20E0992346
:1029B00029F0D6019C93F60131966F01C60103966A
:1029C000E2FE0AC03EE4D6013C9341E411964C93EA
:1029D000119712963C9306C03EE6F601308341E61D
:1029E00041833283FC01322F40E2332309F442C099
:1029F00041933150FACF82FF44C0911102C083E06D
:102A000001C084E0811718F4212F281B01C020E0A9
:102A1000E1110BC0F601822F30E2882319F03193C7
:102A20008150FBCFC20ED11C20E0992329F0D601A2
:102A30009C93F60131966F01C6010396E2FE0BC02E
:102A400039E4D6013C933EE411963C93119736E469
:102A500012963C9307C039E6F60130833EE6318397
:102A600036E63283FC01322F40E2332319F04193E2
:102A70003150FBCFFC01E20FF11D10828EEF9FEF72
:102A8000B7C0F1E0911101C0F0E06F2F70E01416B3
:102A9000150624F49A012F5F3F4F02C021E030E079
:102AA000260F371FBB2029F06B2D70E06F5F7F4F23
:102AB00002C060E070E0260F371F612F70E026171C
:102AC00037071CF4121B212F01C020E03E2D387166
:102AD00059F4D601322F60E2332319F06D9331504F
:102AE000FBCFC20ED11C20E0FF2331F0D6019C9316
:102AF000B6016F5F7F4F6B01E1110BC0F601922FA2
:102B000030E3992319F031939150FBCFC20ED11CC1
:102B100020E09F2D940F3A81782F7071A72E84FFAB
:102B200003C0313309F49150191624F4993018F088
:102B300098E001C091E0E42F852F57FF02C0E0E04C
:102B400080E06E2F782FE0E0F0E0AEE29A2E3A01BE
:102B5000691A71082A01461A570A0B2D10E01195BF
:102B6000019511096F3F8FEF780729F4D6019C92E8
:102B7000C60101966C014617570784F06616770662
:102B80006CF47F01E40CF51CA1E0B0E0AC0FBD1FBC
:102B9000EA0EFB1ED7011196BC9002C090E3B92E3D
:102BA000615071093196C60101967C016017710769
:102BB00024F0D601BC926C01D5CF6417750741F49F
:102BC000363320F4353321F4A11002C081E3B82E4E
:102BD000F601B082F701822F90E2882319F09193D9
:102BE0008150FBCFF701E20FF11D108280E090E0F1
:102BF00029960FB6F894DEBF0FBECDBFDF91CF91FF
:102C00001F910F91FF90EF90DF90CF90BF90AF900A
:102C10009F907F906F905F904F900895A0E0B0E0FC
:102C2000E4E1F6E10C94C319EC017B016115710537
:102C300019F0DB018D939C938E010F5F1F4F7880FD
:102C4000872D90E00E947714892B11F0E801F4CFD2
:102C5000BDE27B1205C00F5F1F4F7980C1E008C045
:102C6000EBE27E1204C08E010E5F1F4F7980C0E040
:102C70006801F1E0CF1AD10843E050E06AEC70E05F
:102C8000C6010E944618892BF1F4680122E0C20EA9
:102C9000D11C45E050E065EC70E0C6010E9446188A
:102CA000892B21F4680187E0C80ED11CE114F104DE
:102CB00019F0D701CD92DC92C111FFC060E070E045
:102CC00080E89FE703C143E050E062EC70E0C6019A
:102CD0000E944618892B51F4E114F10409F4F2C062
:102CE0000E5F1F4FF70111830083ECC0680160E0A5
:102CF00070E0CB0100E010E0F601D0EDD70DDA3046
:102D000058F52C2F2260622E2C2F2870C2FF05C090
:102D1000211128C00F5F1F4F25C0222311F0015041
:102D20001109A5E0B0E09B01AC010E94B4194B0170
:102D30005C01880C991CAA1CBB1CC501B4016D0F59
:102D4000711D811D911D6839A9E97A078A07A9E1DA
:102D50009A0740F0C66005C0DE3F51F4C3FD44C091
:102D6000C8606C2EBFEFCB1ADB0A7080C62DC4CFB3
:102D70002D2F2F7D2531C1F540814D3211F4C061D9
:102D800006C04B3221F0319621E030E006C0329689
:102D9000D60111964C9122E030E0A0EDA40FAA30AC
:102DA00018F0E21BF30B20C040E050E04038BCE0DC
:102DB0005B075CF49A01220F331F220F331F420F6F
:102DC000531F440F551F4A0F511D3196DF011197B4
:102DD0002C91A0EDA20FAA3048F3C4FF03C0519577
:102DE00041955109040F151FC1FF07C0E114F104FB
:102DF00021F03197D701ED93FC930E946318C370C3
:102E0000C33019F06B017C0106C06B017C01F7FA3D
:102E1000F094F7F8F09420E030E0A901C701B60182
:102E20000E945E18882309F445C017FF06C011955B
:102E300001951109C1EED0E002C0C9EFD0E05E01FA
:102E4000B8E1AB1AB1084601BE2DAF2D90E2E92ED4
:102E5000F12C0E151F0584F0FE0125913591459149
:102E60005491B4018B2F9A2F0E94C4184B01B82F94
:102E7000A92F0E191F09EDCF2497F594E794CA15D1
:102E8000DB0539F76401EB2EFA2E8E2D880F8F2D7E
:102E9000881F8F3F49F020E030E0A901C701B6014B
:102EA0000E945E18811106C082E290E09093CD03EB
:102EB0008093CC03C701B60109C060E070E080E8F0
:102EC0009FEF04C060E070E080EC9FE7CDB7DEB715
:102ED000EEE00C94DF19283008F027E03327DA0100
:102EE000990F311D87FD916000966105710539F4D8
:102EF00032602E5F3D9330E32A95E1F708959F3FBE
:102F000030F080387105610509F03C5F3C5F3D930E
:102F1000913008F08068911DDF93CF931F930F933A
:102F2000FF92EF92192F987F9695E92F9695969597
:102F3000E90FFF27E95AFE4F99273327EE24FF2494
:102F4000A701E70105900894079428F4360FE71EBF
:102F5000F81E491F511D660F771F881F991F069481
:102F6000A1F70590079428F4E70EF81E491F561F95
:102F7000C11D770F881F991F661F0694A1F7059042
:102F8000079428F4F80E491F561FC71FD11D880F3C
:102F9000991F661F771F0694A1F70590079420F4E8
:102FA000490F561FC71FD81F990F661F771F881F0D
:102FB0000694A9F784911095177041F0D695C7959E
:102FC00057954795F794E7941A95C1F7EDEFF0E020
:102FD00068941590159135916591959105907FE2D2
:102FE0007395E118F10A430B560BC90BD009C0F7D2
:102FF000E10CF11E431F561FC91FD01D7EF4703314
:1030000011F48A95E6CFE894015030F0080F0AF4E5
:103010000027021708F4202F2395022F7A3328F077
:1030200079E37D932A95E9F710C07D932A9589F677
:10303000069497956795379517951794E118F10AB7
:10304000430B560BC90BD00998F023957E917395CD
:103050007A3308F070E37C932013B8F77E917061A7
:103060007D9330F0839571E37D9370E32A95E1F7CA
:103070001124EF90FF900F911F91CF91DF9199272D
:1030800087FD90950895992788270895FB01DC0115
:103090004150504088F08D9181341CF08B350CF4F8
:1030A000805E659161341CF06B350CF4605E861BAC
:1030B000611171F3990B0895881BFCCF0E94A01831
:1030C00008F481E00895E89409C097FB3EF49095D8
:1030D0008095709561957F4F8F4F9F4F9923A9F0F1
:1030E000F92F96E9BB279395F69587957795679580
:1030F000B795F111F8CFFAF4BB0F11F460FF1BC0C4
:103100006F5F7F4F8F4F9F4F16C0882311F096E956
:1031100011C0772321F09EE8872F762F05C0662304
:1031200071F096E8862F70E060E02AF09A95660FBD
:10313000771F881FDAF7880F9695879597F9089576
:10314000990F0008550FAA0BE0E8FEEF16161706B8
:10315000E807F907C0F012161306E407F50798F020
:10316000621B730B840B950B39F40A2661F0232B39
:10317000242B252B21F408950A2609F4A140A695B5
:103180008FEF811D811D08950E94D7180C94481956
:103190000E943A1938F00E94411920F0952311F04D
:1031A0000C9431190C94371911240C947C190E9439
:1031B000591970F3959FC1F3950F50E0551F629F09
:1031C000F001729FBB27F00DB11D639FAA27F00D80
:1031D000B11DAA1F649F6627B00DA11D661F829FA7
:1031E0002227B00DA11D621F739FB00DA11D621F8C
:1031F000839FA00D611D221F749F3327A00D611DA9
:10320000231F849F600D211D822F762F6A2F11248A
:103210009F5750409AF0F1F088234AF0EE0FFF1FBD
:10322000BB1F661F771F881F91505040A9F79E3F14
:10323000510580F00C9431190C947C195F3FE4F334
:10324000983ED4F3869577956795B795F795E7956A
:103250009F5FC1F7FE2B880F911D9695879597F973
:10326000089597F99F6780E870E060E008959FEF08
:1032700080EC089500240A9416161706180609060D
:10328000089500240A9412161306140605060895DC
:10329000092E0394000C11F4882352F0BB0F40F464
:1032A000BF2B11F460FF04C06F5F7F4F8F4F9F4FA4
:1032B000089557FD9058440F551F59F05F3F71F026
:1032C0004795880F97FB991F61F09F3F79F087958D
:1032D0000895121613061406551FF2CF4695F1DF16
:1032E00008C0161617061806991FF1CF86957105A6
:1032F000610508940895E894BB2766277727CB01DA
:1033000097F90895DB018F939F930E94B419BF91A1
:10331000AF91A29F800D911DA39F900DB29F900D24
:1033200011240895A1E21A2EAA1BBB1BFD010DC09A
:10333000AA1FBB1FEE1FFF1FA217B307E407F50765
:1033400020F0A21BB30BE40BF50B661F771F881F41
:10335000991F1A9469F760957095809590959B01D7
:10336000AC01BD01CF0108950E94F619A59F900DF3
:10337000B49F900DA49F800D911D112408952F924C
:103380003F924F925F926F927F928F929F92AF92F5
:10339000BF92CF92DF92EF92FF920F931F93CF9342
:1033A000DF93CDB7DEB7CA1BDB0B0FB6F894DEBFD9
:1033B0000FBECDBF09942A88398848885F846E84FF
:1033C0007D848C849B84AA84B984C884DF80EE8049
:1033D000FD800C811B81AA81B981CE0FD11D0FB652
:1033E000F894DEBF0FBECDBFED010895A29FB001DE
:1033F000B39FC001A39F700D811D1124911DB29F29
:10340000700D811D1124911D089510E0CDEFD0E0C5
:1034100004C0FE010E94770D2196CE3FD107C9F767
:04342000F894FFCF4E
:103424000000CE038000000000008101C1044A01B5
:1034340028013C01C801000000001902C1046D020A
:10344400850200021802564D4450565F317C315FAC
:10345400564D4450560D0A0024504D544B323230D0
:103464002C313030302A31460024504D544B333007
:10347400302C313030302C302C302C302C302A3160
:10348400430024504D544B3331342C302C312C30E8
:103494002C302C302C302C302C302C302C302C3048
:1034A4002C302C302C302C302C302C302C302C3038
:1034B4002A323900393939392E3939393900564DDA
:1034C4004450455F003A323A007C005F564D445008
:1034D400450044353A2000436F6C6F723A20006413
:1034E400697374616E63653A20006E616E00696E83
:0634F40066006F76660021
:00000001FF
