:100000000C94AF000C94D7000C94D7000C94D7003C
:100010000C94D7000C94D7000C94D7000C94D70004
:100020000C94D7000C94D7000C94D7000C94D700F4
:100030000C94D7000C94D7000C94D7000C94D700E4
:100040000C9400030C94D7000C9408020C94E20169
:100050000C94D7000C94D7000C94D7000C94D700C4
:100060000C94D7000C94D700084AD73B3BCE016EC6
:1000700084BCBFFDC12F3D6C74319ABD56833DDAFF
:100080003D00C77F11BED9E4BB4C3E916BAAAABE0E
:10009000000000803F05A84CCDB2D44EB93836A937
:1000A000020C50B9918688083CA6AAAA2ABE000074
:1000B00000803F004E414E494E495459494E46CD6D
:1000C000CCCC3D0AD7233C17B7D13877CC2B32950F
:1000D00095E6241FB14F0A000020410000C84200ED
:1000E000401C4620BCBE4CCA1B0E5AAEC59D7400B7
:1000F000000000240027002A000000000023002642
:1001000000290000000008000201000003040700AD
:10011000000000000000007C3C3E5E2B3D3F2F5B5A
:100120005D3B2C2A225C0001020408102040800163
:10013000020408102001020408102000000000251D
:100140000028002B00040404040404040402020236
:10015000020202030303030303003E1D2E1D1124AC
:100160001FBECFEFD8E0DEBFCDBF25E0A4EDB1E0EC
:1001700001C01D92AB39B207E1F711E0A0E0B1E098
:10018000EAE0FBE402C005900D92A43DB107D9F767
:1001900010E0CEEAD0E004C02197FE010E941924AD
:1001A000CD3AD107C9F70E9494140C9478250C9489
:1001B0000000FC01918D828D981761F0828DDF0126
:1001C000A80FB11D5D968C91928D9F5F9F73928F4A
:1001D00090E008958FEF9FEF0895FC01918D828D3F
:1001E000981731F0828DE80FF11D858D90E008950C
:1001F0008FEF9FEF0895FC01918D228D892F90E064
:10020000805C9F4F821B91098F73992708958DE71A
:1002100094E00E94FB0021E0892B09F420E0822F6A
:100220000895FC01848DDF01A80FB11DA35ABF4FB3
:100230002C91848D90E001968F739927848FA689E5
:10024000B7892C93A089B1898C9180648C93938D0C
:10025000848D981306C00288F389E02D80818F7DFC
:1002600080830895EF92FF920F931F93CF93DF93B4
:10027000EC0181E0888F9B8D8C8D981305C0E889F7
:10028000F989808185FD24C0F62E0B8D10E00F5F6B
:100290001F4F0F731127E02E8C8DE8120CC00FB684
:1002A00007FCFACFE889F989808185FFF5CFCE0177
:1002B0000E941101F1CF8B8DFE01E80FF11DE35A71
:1002C000FF4FF0820B8FEA89FB898081806207C033
:1002D000EE89FF896083E889F98980818064808361
:1002E00081E090E0DF91CF911F910F91FF90EF900F
:1002F0000895CF93DF93EC01888D8823C9F0EA89B4
:10030000FB89808185FD05C0A889B9898C9186FD0E
:100310000FC00FB607FCF5CF808185FFF2CFA8890B
:10032000B9898C9185FFEDCFCE010E941101E7CFF5
:10033000DF91CF91089580E090E0892B29F00E9411
:10034000070181110C94000008950E944C258091B2
:100350006B028823A9F14091000150910101609145
:100360000201709103012BE732E080917B049091B0
:100370007C040E94220E811102C080E00895409109
:100380006C0250916D0260916E0270916F02411586
:1003900051056105710591F02BE732E080917B04F6
:1003A00090917C040E94220E882339F310926C02F3
:1003B00010926D0210926E0210926F0210926B02F8
:1003C00081E008951F920F920FB60F9211242F9380
:1003D0003F934F935F936F937F938F939F93AF93CD
:1003E000BF93EF93FF938DE794E00E941101FF917B
:1003F000EF91BF91AF919F918F917F916F915F919D
:100400004F913F912F910F900FBE0F901F90189515
:100410001F920F920FB60F9211242F938F939F93D9
:10042000EF93FF93E0918D04F0918E048081E09131
:100430009304F091940482FD12C0908180919604FF
:100440008F5F8F7320919704821751F0E09196048B
:10045000F0E0E358FB4F958F8093960401C08081B4
:10046000FF91EF919F918F912F910F900FBE0F9061
:100470001F901895833081F028F4813099F08230F4
:10048000A1F008958730A9F08830B9F08430D1F414
:10049000809180008F7D03C0809180008F77809352
:1004A0008000089584B58F7702C084B58F7D84BDA8
:1004B00008958091B0008F7703C08091B0008F7D48
:1004C0008093B00008951F93CF93DF93282F30E0DF
:1004D000F901ED5FFE4F8491F901E95DFE4FD49182
:1004E000F901EB5BFE4FC491CC23C9F0162F8111AB
:1004F0000E943A02EC2FF0E0EE0FFF1FE55CFE4F8A
:10050000A591B4918FB7F894111105C09C91ED2F6E
:10051000E095E92302C0EC91ED2BEC938FBFDF91C6
:10052000CF911F910895CF93DF9390E0FC01E95D97
:10053000FE4F2491FC01EB5BFE4F8491882361F117
:1005400090E0880F991FFC01E151FF4FC591D491B4
:10055000FC01E55CFE4FA591B491611109C09FB704
:10056000F8948881209582238883EC912E230BC0F8
:10057000623061F49FB7F8943881822F809583238D
:100580008883EC912E2B2C939FBF06C08FB7F894D5
:10059000E8812E2B28838FBFDF91CF9108953FB73D
:1005A000F8948091750290917602A0917702B091B3
:1005B000780226B5A89B05C02F3F19F00196A11D12
:1005C000B11D3FBFBA2FA92F982F8827820F911DE9
:1005D000A11DB11DBC01CD0142E0660F771F881F30
:1005E000991F4A95D1F708952FB7F8946091710239
:1005F0007091720280917302909174022FBF0895DE
:100600001F920F920FB60F9211242F933F938F9347
:100610009F93AF93BF938091710290917202A091CA
:100620007302B09174023091700223E0230F2D37D2
:1006300020F40196A11DB11D05C026E8230F0296E6
:10064000A11DB11D209370028093710290937202DC
:10065000A0937302B0937402809175029091760218
:10066000A0917702B09178020196A11DB11D8093EF
:10067000750290937602A0937702B0937802BF91AF
:10068000AF919F918F913F912F910F900FBE0F903F
:100690001F9018958F929F92AF92BF92EF92FF9208
:1006A0000F931F93CF934B015C01C42F80910001E6
:1006B00090910101A0910201B09103018815990563
:1006C000AA05BB0501F10E94A701811102C080E0CB
:1006D00020C08BE7E82E82E0F82E00E012E020E058
:1006E00030E0B501A40180917B0490917C040E94CC
:1006F000890C882361F38092000190920101A092FD
:100700000201B092030180916B02C82BC0936B026F
:1007100081E0CF911F910F91FF90EF90BF90AF902C
:100720009F908F9008954F925F926F927F928F92D9
:100730009F92AF92BF92CF92DF92EF92FF920F9370
:100740001F93CF93DF93EC016A017B0128013901EC
:10075000423051056105710510F480E073C0898550
:100760009A85AB85BC850196A11DB11D841795079F
:10077000A607B70790F38B889C88AD88BE888F89C1
:10078000803129F4BB27AF2D9E2D8D2D09C0DB01B3
:10079000CA0147E0B695A795979587954A95D1F7F1
:1007A000880E991EAA1EBB1E809100019091010126
:1007B000A0910201B091030188169906AA06BB0612
:1007C00079F48F898031A1F4DD24EE24FF24C60161
:1007D000880F991FFC01E558FD4F5182408219C0D6
:1007E00040E0C501B4010E944A038111EACFB5CFB0
:1007F000E894C7F8DD24EE24FF24C601880F991F72
:10080000880F991FFC01E558FD4F4082518262829A
:10081000738280916B02816080936B028A8982303F
:1008200080F08D819E81AF81B885880E991EAA1EA9
:10083000BB1E80926C0290926D02A0926E02B092EA
:100840006F0281E0DF91CF911F910F91FF90EF90A8
:10085000DF90CF90BF90AF909F908F907F906F90E0
:100860005F904F9008958F929F92AF92BF92CF92D8
:10087000DF92EF92FF920F931F93CF93DF93FC01D0
:1008800081859285A385B4850196A11DB11D84172C
:100890009507A607B70710F480E05CC083899489A8
:1008A000A589B689C789C03129F4852E962EA72E31
:1008B000BB2409C04A015B01C7E0B694A794979492
:1008C0008794CA95D1F7E9016A017B018F01BC01C8
:1008D000CD01680D791D8A1D9B1D809000019090AF
:1008E0000101A0900201B0900301681579058A0505
:1008F0009B0599F4F80187898031A9F4B701A60115
:10090000552766277727440F551FFA01E558FD4FF5
:1009100080819181A0E0B0E018C040E00E944A03CD
:100920008111E8CFB9CFB701A6014F7755276627C8
:100930007727440F551F440F551FFA01E558FD4F07
:1009400080819181A281B381BF7088839983AA83BA
:10095000BB8381E0DF91CF911F910F91FF90EF90CA
:10096000DF90CF90BF90AF909F908F9008954F925F
:100970005F926F927F92AF92BF92CF92DF92EF928F
:10098000FF920F931F93CF93DF9300D000D0CDB78A
:10099000DEB78C0149835A836B837C835901C12C58
:1009A000D12C7601412C82E0582E612C712C49818A
:1009B0005A816B817C819E012F5F3F4FC8010E944D
:1009C0003304882351F1D301C201F801058404C026
:1009D000880F991FAA1FBB1F0A94D2F7C80ED91EF1
:1009E000EA1EFB1E49815A816B817C818789803197
:1009F00029F088EF9FEFAFEFBFE004C088EF9FEFD3
:100A0000A0E0B0E0481759076A077B0780F2F501BC
:100A1000C082D182E282F38281E00F900F900F902A
:100A20000F90DF91CF911F910F91FF90EF90DF908A
:100A3000CF90BF90AF907F906F905F904F90089550
:100A40004F925F926F927F92AF92BF92CF92DF925E
:100A5000EF92FF920F931F93CF93DF93CDB7DEB743
:100A60002B970FB6F894DEBF0FBECDBF7C01CE0131
:100A700001966C01FC0190E28BE08C0D91938E133A
:100A8000FDCFDA0130E047E09D91992339F19E32A4
:100A900019F0E7E1F1E00AC04A3009F472C138E028
:100AA0004AE0F2CF3196891709F46BC18491811124
:100AB000F9CF431708F465C18FED890F8E3508F023
:100AC00060C181E0830FF601E30FF11D3FE9390FAB
:100AD0003A3108F490529083382FD6CF89818032F2
:100AE00009F44FC1B22E8B01DB015B968D919C9175
:100AF0005C97F701948F838F16961D921D921D921D
:100B00001C921997FB011286138614861586712C88
:100B1000F80182859385A485B585438954896589C3
:100B2000768984179507A607B70708F061C025E006
:100B3000B695A795979587952A95D1F7F82FFF70C9
:100B40006F2ED80115968C91823008F41AC1C80115
:100B50000E94380F97FD15C1F80182859385A48501
:100B6000B5854F96A11DB11D82879387A487B58750
:100B7000F0E26F9EC0011124BC0165587D4F6115E4
:100B8000710509F4FEC0DB012C91222319F0253EEA
:100B9000C1F427C071100EC0F701628A40910001B4
:100BA00050910101609102017091030146875787BE
:100BB000608B718BFC01E558FD4F8081811113C062
:100BC00015C04BE050E0C6010E945125892B09F069
:100BD0009FCF8B2D8073803309F4D3C04B2D662DAE
:100BE000CCC07720C9F27724739492CF7724739482
:100BF0008B2D8271823109F0C4C07720D1F0D701EA
:100C00001E966D917D918D919C91519741E00E942E
:100C10004A03882309F4B5C0F7016289F0E26F9FA7
:100C2000B001112465587D4F6115710509F079C037
:100C3000A8C0D80115968C91823009F4A2C0C801D1
:100C40000E94BB0A882309F49CC0D8015B96ED91F1
:100C5000FC915C9716964D905D906D907C901997E5
:100C6000B2E04B1A510861087108058404C0440CB5
:100C7000551C661C771C0A94D2F786859785A08937
:100C8000B189480E591E6A1E7B1EA480E1E04E1AEF
:100C9000510861087108AA2009F10E94A701882360
:100CA00009F46FC0EBE7F2E0119224E0EB37F207B2
:100CB000D9F7D301C2018A0D911DA11DB11D8093E9
:100CC000000190930101A0930201B0930301809170
:100CD0006B02816080936B02AA94DDCFD8015B9692
:100CE000ED91FC915C9780E092E0A0E0B0E005849B
:100CF00004C0880F991FAA1FBB1F0A94D2F7F801DE
:100D00004389548965897689840F951FA61FB71F6B
:100D1000838B948BA58BB68BD70152961C926BE775
:100D200072E080E2FB0111928A95E9F78BE0F6010F
:100D3000DB0101900D928A95E1F781E298E2DB01F7
:100D400051969C938E93509720E038E01F963C93E9
:100D50002E931E9753969C938E93529759969C93DD
:100D60008E93589757963C932E9356970E94A701BF
:100D7000882339F04B2DF7016289C7010E94A7092A
:100D800001C080E02B960FB6F894DEBF0FBECDBF3A
:100D9000DF91CF911F910F91FF90EF90DF90CF9057
:100DA000BF90AF907F906F905F904F900895CF93DA
:100DB000DF93EC018D818823A1F18C8187FF2DC009
:100DC0006E857F858889998941E00E944A0388233E
:100DD00041F1EA8980E2E89FF0011124DF01A55882
:100DE000BD4F1097F1F08D81823050F44B895C89B2
:100DF0006D897E895C964D935D936D937C935F972F
:100E00008F89988DA98DBA8DE558FD4F938F828F6C
:100E1000B58BA48B8C818F778C83DF91CF910C94D1
:100E2000A70180E0DF91CF9108958F929F92AF92BA
:100E3000BF92CF92DF92EF92FF920F931F93CF93C7
:100E4000DF93EC018D81811102C080E077C00B89B6
:100E50001C892D893E890417150726073707A8F333
:100E60006A017B01823029F4CA86DB86EC86FD8626
:100E70000DC0C114D104E104F10451F41E821F829B
:100E8000188619861A861B861C861D8681E056C028
:100E90008A849B84AC84BD84EB8DFC8D258530E0F9
:100EA000275F3F4FB501A401415051096109710904
:100EB000022E04C076956795579547950A94D2F708
:100EC000D701C6010197A109B10904C0B695A7953C
:100ED000979587952A95D2F784179507A607B707A0
:100EE00020F089288A288B2849F44F89588D698DEC
:100EF0007A8D4E835F836887798704C0841B950B46
:100F0000A60BB70B4C015D018E010A5F1F4F8114C8
:100F10009104A104B10409F4A7CF4E815F816885D3
:100F2000798598018B8D9C8D0E94330491E0891AFC
:100F30009108A108B1088111EACF87CFDF91CF9145
:100F40001F910F91FF90EF90DF90CF90BF90AF90E7
:100F50009F908F9008952F923F924F925F926F9241
:100F60007F928F929F92AF92BF92CF92DF92EF9239
:100F7000FF920F931F93CF93DF9300D000D0CDB794
:100F8000DEB78C015B011A01DC0115968C91159777
:100F90008130C9F414968C9181FF15C082FF1BC06B
:100FA000F801438954896589768982859385A4856A
:100FB000B58584179507A607B70769F0C8010E9491
:100FC0001507811108C081E090E0F80193838283C6
:100FD00080E090E039C1610183C0D8015B968D91BA
:100FE0009C915C97FC01248121502A013B0139E04E
:100FF00076946794579447943A95D1F7722E74205B
:101000007A01F1E0FF22772009F476C080E092E0D7
:101010008E199F0946018C159D0508F44C01D801D5
:101020005B962D913C915C9716968D919D910D90BC
:10103000BC91A02D0297A109B109F901058404C052
:10104000880F991FAA1FBB1F0A94D2F746855785A0
:1010500060897189840F951FA61FB71F9C01AD0180
:10106000270D311D411D511D29013A01811432E026
:10107000930609F088C08091000190910101A09130
:101080000201B091030184159505A605B70559F431
:101090008FEF9FEFDC018093000190930101A093FB
:1010A0000201B09303019501B301A20180917B0479
:1010B00090917C040E94220E882309F484CF9EEF35
:1010C000B91AC818D908F80182859385A485B58511
:1010D000880D991DA11DB11D82879387A487B587AF
:1010E000D8011A964D915D916D917C911D97C11417
:1010F000D10409F072CF87C0E114F10409F086CF62
:1011000016964D915D916D917C9119974115510500
:101110006105710559F457968D919D910D90BC9183
:10112000A02D0097A105B10541F521C09E012F5FBB
:101130003F4F0E943304882309F44BCF89819A8161
:10114000AB81BC81F801238D348DF90127892031D1
:1011500029F048EF5FEF6FEF7FE004C048EF5FEFEB
:1011600060E070E084179507A607B70730F0C80164
:101170000E94BB0A81114ACF26CFF801868397834C
:10118000A087B18743CFE114F10429F5D8011A965D
:101190004D915D916D917C911D9753968D919D918F
:1011A0000D90BC91A02D481759076A077B0798F04E
:1011B0000E94A701882309F406CF409200015092B3
:1011C0000101609202017092030180916B028160C3
:1011D00080936B0208C041E0C301B2010E944A0340
:1011E000882309F4F0CED501F701E558FD4FCF0172
:1011F000880D991DE817F90719F02D912193FACF61
:10120000A80CB91C5ECF53968D919D910D90BC9109
:10121000A02D84179507A607B70740F4F801438B64
:10122000548B658B768B848180688483D801149677
:101230008C9183FD02C0C10107C0C8010E94D7067E
:10124000882309F4C0CEF7CF0F900F900F900F9026
:10125000DF91CF911F910F91FF90EF90DF90CF9092
:10126000BF90AF909F908F907F906F905F904F90C6
:101270003F902F900895CF93DF931F92CDB7DEB7A5
:10128000698341E050E0BE016F5F7F4F0E94AB0772
:101290000F90DF91CF910895DC015996ED91FC916B
:1012A0005A973097B9F083899489A589B689428580
:1012B000538564857585841B950BA60BB70B81152B
:1012C00020E89207A105B10538F08FEF9FE7A0E075
:1012D000B0E0089580E090E00895CF93DF931F92EF
:1012E000CDB7DEB76983DC01ED91FC910280F3811B
:1012F000E02D41E050E0BE016F5F7F4F09950F90F8
:10130000DF91CF910895FC01818D928D009711F0AE
:101310000C94D7060895CF93DF93EC01898D9A8DB5
:10132000009739F481E090E09B838A8380E090E02D
:101330000BC0FC01138212820E94AB07E98DFA8D6B
:1013400022813381232B71F7DF91CF9108958F9202
:101350009F92AF92BF92CF92DF92EF92FF920F9344
:101360001F93CF93DF9300D000D0CDB7DEB77C01C1
:1013700080E2689F60011124960125583D4FD901F4
:101380001B969C91917121F0842F827409F097C073
:10139000142FF701628B8091000190910101A091BF
:1013A0000201B091030186879787A08BB18BF6016C
:1013B000E558FD4F4489558960E070E0BA01552732
:1013C0004427D70157964D935D936D937C935A971D
:1013D000828D938DA0E0B0E0482B592B6A2B7B2B9C
:1013E000D70157964D935D936D937C935A97D9018E
:1013F0001B968C91887159F4848D958DA68DB78D2F
:10140000F701838B948BA58BB68B81E012C0803162
:1014100009F055C097012D5E3F4FD7015B968D9126
:101420009C915C970E94B704882309F448C084E02B
:10143000F7018583812F8F70D70114968C931497B1
:10144000F70116821782108611861A961D921D9238
:101450001D921C921D9716FF34C015968C918130F9
:1014600071F511FF2CC0F70143895489658976898C
:10147000452B462B472B09F461C040E050E0BA01F0
:10148000C7010E9415078823D1F0F7018788908C47
:10149000A18CB28CC38CD48C82E090E0A0E0B0E050
:1014A000F60180839183A283B3839E012F5F3F4F18
:1014B000B501A401C6010E943304811104C080E07B
:1014C0003DC081E03BC000E010E09801B501A401FF
:1014D000C6010E949303882391F389809A80AB8090
:1014E000BC80D60157968C91803129F088EF9FEF10
:1014F000AFEFBFE004C088EF9FEFA0E0B0E0881638
:101500009906AA06BB0688F2D70157961D921D922E
:101510001D921C925A97F701138A148A158A168A0B
:10152000848180688483C7010E94D706882339F2AA
:1015300040E050E0BA01C7010E9415070F900F90DC
:101540000F900F90DF91CF911F910F91FF90EF902F
:10155000DF90CF90BF90AF909F908F900895CF93E2
:10156000DF93EC010E94D706882311F01D8281E0F1
:10157000DF91CF9108953F924F925F926F927F9249
:101580008F929F92AF92BF92CF92DF92EF92FF9293
:101590000F931F93CF93DF93CDB7DEB72C970FB682
:1015A000F894DEBF0FBECDBF5C01DC015B968D9071
:1015B0009C905C971696CD90DD90ED90FC901997DD
:1015C000C114D104E104F10439F0BFEFCB1ADB0AF6
:1015D000EB0AFB0A312C07C0F401C080D180E28005
:1015E000F38033243394F40181859285A385B485F7
:1015F0009C01AD012F5F3F4F4F4F5F4F29873A87C7
:101600004B875C87260137011D821E821F82188648
:10161000F40181859285A385B4852D813E814F811A
:101620005885281739074A075B0708F063C0898582
:101630009A85AB85BC858C159D05AE05BF0550F41C
:1016400082E0C82ED12CE12CF12C92E0492E512CB5
:10165000612C712C9E012F5F3F4FB701A601C40181
:101660000E943304882309F445C089819A81AB81A3
:10167000BC81892B8A2B8B2B41F0260137019FEFF0
:10168000491A590A690A790A05C0C414D504E6043E
:10169000F70491F02D813E814F8158852F5F3F4F98
:1016A0004F4F5F4F2D833E834F8358873FEFC31AC1
:1016B000D30AE30AF30AACCF0FEF1FEF2FEF3FE09F
:1016C000B301A201C4010E949303882399F0D501BC
:1016D00016964D915D916D917C911997411551052B
:1016E0006105710549F093018201C4010E949303D1
:1016F000811102C080E02AC0D50116964D925D92FC
:101700006D927C921997332051F0D301C20101965A
:10171000A11DB11DF40180839183A283B383F501E0
:101720008789908DA18DB28D892B8A2B8B2B69F4A3
:10173000D50157964D925D926D927C925A97149670
:101740008C911497806814968C9381E02C960FB638
:10175000F894DEBF0FBECDBFDF91CF911F910F91E7
:10176000FF90EF90DF90CF90BF90AF909F908F90C1
:101770007F906F905F904F903F9008958FB7F8944F
:1017800080917A028FBF089561E0FC0184810E94FC
:1017900063028091790281111092790208958EBDC1
:1017A00000000DB407FEFDCF8EB508958FEF0C94A9
:1017B000CF0B0F931F93CF93DF93EB010E94F402A3
:1017C0008B010E94D60B8F3F49F00E94F402601BF0
:1017D000710B6C177D07A8F380E001C081E0DF91F9
:1017E000CF911F910F910895CF93DF93EC018E81DC
:1017F000882389F08F8198859C012F5F3F4F388720
:101800002F838230924018F40E94D60BF3CFCE0182
:101810000E94C40B1E82DF91CF9108958CBD9DBDA7
:101820000895CF93DF93EC0180917902811109C073
:1018300081E08093790280911A0590911B050E94A6
:101840000E0C60E08C81DF91CF910C946302CF92FB
:10185000DF92FF920F931F93CF93DF9300D000D0BE
:10186000CDB7DEB76C01F62E29833A834B835C83B8
:101870000E94F40BC6010E94110C6CE271E0C601DB
:101880000E94D90B8F2D80640E94CF0B08E110E0DD
:101890005C814B813A812981DA01C901002E04C0A3
:1018A000B695A795979587950A94D2F729833A8399
:1018B0004B835C830E94CF0B0850110929813A8128
:1018C0004B815C81083F8FEF180731F7FF2029F02B
:1018D000E8E0FE1204C087E803C085E901C08FEF8D
:1018E0000E94CF0B10E00E94D60BF601828787FF83
:1018F00004C01F3F11F01F5FF6CF0F900F900F90A5
:101900000F90DF91CF911F910F91FF90DF90CF90BB
:101910000895AF92BF92CF92DF92EF92FF920F9312
:101920001F93CF93DF93EC016901C801820F931FCE
:101930008130924008F070C08E81882371F08881D8
:101940009981AA81BB81481759076A077B0729F447
:101950008F819885C816D906B0F5488359836A8364
:101960007B838B85833039F089E0440F551F661FD8
:10197000771F8A95D1F79A01AB0161E1CE010E94F0
:10198000270C882319F083E08D8346C00E94F4025F
:101990005B010E94D60B8A878F3F49F40E94F402B4
:1019A0006A197B096D327140A0F38FE003C08E3F4E
:1019B00031F08DE08D83CE010E94C40B2DC01886BE
:1019C0001F8281E08E838F8198858C159D0540F460
:1019D0000E94D60B8F819885019698878F83F3CFCD
:1019E0006701E00EF11ECE14DF0431F00E94D60B29
:1019F000F60181936F01F7CF8F819885080F191F2A
:101A000018870F838985882319F00115124048F043
:101A1000CE010E94F40B05C0CE010E94C40B80E0F1
:101A200001C081E0DF91CF911F910F91FF90EF9066
:101A3000DF90CF90BF90AF9008952F923F924F923A
:101A40005F926F927F928F929F92AF92BF92CF924E
:101A5000DF92EF92FF920F931F93CF93DF93EC01EE
:101A60006B014A018D81811103C08FEF9FEFD7C0B9
:101A70008C8180FFFACF4B885C886D887E884A8590
:101A80005B856C857D85C401A0E0B0E09301820197
:101A9000041B150B260B370B081719072A073B07E2
:101AA00018F44201841A950A54011E0126E0220E00
:101AB000311CA114B10409F47EC04A855B856C8594
:101AC0007D852A0181E05822ED818A019B0189E010
:101AD00036952795179507958A95D1F78B8D9C8D0F
:101AE000E23061F4FC01828D938DA48DB58DBC0133
:101AF000CD01600F711F821F931F3FC0FC017480D6
:101B00007A94702241145104C9F4711017C0452B06
:101B1000462B472B49F48F89988DA98DBA8D8E83DA
:101B20009F83A887B9870AC04E815F8168857985C0
:101B300091010E943304882309F497CFEB8DFC8D2B
:101B40008E819F81A885B9850297A109B109058475
:101B500004C0880F991FAA1FBB1F0A94D2F746859D
:101B6000578560897189840F951FA61FB71FBC0117
:101B7000CD01670D711D811D911D20E032E02419FA
:101B8000350935012A153B0508F439012C8126FD5C
:101B900004C06114F2E07F0681F40091000110910D
:101BA0000101209102013091030160177107820742
:101BB0009307B1F402C0C40132C040E00E944A035E
:101BC000882309F452CFF201E558FD4FD601CF0129
:101BD000860D971DE817F90789F021912D93FACF0B
:101BE000760183019201AB01BC0180917B0490914D
:101BF0007C040E94890C882309F437CFC60CD71CBB
:101C00008A859B85AC85BD85860D971DA11DB11D5F
:101C10008A879B87AC87BD87A618B7084ACFDF9114
:101C2000CF911F910F91FF90EF90DF90CF90BF90D9
:101C3000AF909F908F907F906F905F904F903F906C
:101C40002F900895EF92FF920F931F93CF93DF93FE
:101C5000EC017901411551056105710511F482E12D
:101C60003CC08B85833039F089E0440F551F661FD7
:101C7000771F8A95D1F79A01AB0168E1CE010E94E6
:101C8000270C882311F084E028C08EEF0E94CF0B30
:101C900087018EEFF81AF80181918F010E94CF0B16
:101CA0000E151F05C1F78FEF0E94CF0B8FEF0E941B
:101CB000CF0B0E94D60B8A878F71853031F081E17E
:101CC0008D83CE010E94C40B09C068E572E0CE018D
:101CD0000E94D90B811107C085E18D83CE010E943E
:101CE000C40B80E013C020E030E0A9016DE0CE011C
:101CF0000E94270C811104C00E94D60B882311F08A
:101D000084E1EBCFCE010E94C40B81E0DF91CF9143
:101D10001F910F91FF90EF900895FC01DB01129647
:101D20008D919C9113979383828386E691E09183B2
:101D3000808314968C911497848315968C911597B3
:101D4000858316964D915D916D917C91199746838F
:101D50005783608771871A964D915D916D917C9143
:101D60001D9742875387648775871E964D915D91B5
:101D70006D917C91519746875787608B718B5296F6
:101D80008C915297828B53964D915D916D917C9180
:101D90005697438B548B658B768B57964D915D91FF
:101DA0006D917C915A97478B508F618F728F5B96A4
:101DB0008D919C915C97948F838F0895CF93DF933F
:101DC000EC01898D9A8D009741F00E94AF0A898DB0
:101DD0009A8D0E94B4241A8E198EDF91CF910895A6
:101DE000FC011382128288EE93E0A0E0B0E08483CD
:101DF0009583A683B78386E391E091838083128ED7
:101E0000118E14860895EF92FF920F931F93CF9334
:101E1000DF93EC017B018A011B821A8288EE93E03A
:101E2000A0E0B0E08C839D83AE83BF8386E391E026
:101E3000998388838DE190E00E941F249A8F898F77
:101E4000009779F02DE1F701DC0101900D922A95C0
:101E5000E1F74CE050E0B801CE010C960E946925F4
:101E6000188EDF91CF911F910F91FF90EF90089501
:101E7000CF93DF931F92CDB7DEB741E050E0BE01B4
:101E80006F5F7F4F0E941D0D019719F4898190E0CB
:101E900002C08FEF9FEF0F90DF91CF910895FC016B
:101EA000818D928D009711F00C94380F8FEF9FEF7A
:101EB00008950F931F93CF93DF93FC01818D928D33
:101EC0000097B9F0EF010E94380F8C010F3F8FEFA0
:101ED000180791F0898D9A8DFC01428553856485A0
:101EE000758541505109610971090E941507C801A2
:101EF00005C080E090E002C08FEF9FEFDF91CF91AF
:101F00001F910F910895CF92DF92EF92FF920F935E
:101F10001F93CF93DF93CDB7DEB729970FB6F89411
:101F2000DEBF0FBECDBF8C0120E030E02230310596
:101F30004CF4DB018C91E8E0F0E0EC0FFD1FE20FC8
:101F4000F31F0AC0F901329781E090E08C0F9D1FCA
:101F5000E80FF91FDB018C9180832F5F3F4F6F5F8C
:101F60007F4F2930310511F760E070E0CE0108960F
:101F70000E94071E6B017C0160E070E0CE010196BB
:101F80000E94071E20E030E040E752E40E94E12179
:101F90009B01AC01C701B6010E94FE20F80120811F
:101FA0002B7D233509F4905829960FB6F894DEBF9F
:101FB0000FBECDBFDF91CF911F910F91FF90EF909A
:101FC000DF90CF9008950F931F93CF93DF93CDB7FA
:101FD000DEB729970FB6F894DEBF0FBECDBF809154
:101FE000880590918905892B09F4A1C00E94CF0230
:101FF00000918E0510918F052091900530919105EB
:10200000DC01CB01801B910BA20BB30BC297A10586
:10201000B10560F3F89480918405909185059A83C9
:102020008983E0918805F0918905DF01119680810F
:10203000898790918005E0919205F09193058091B8
:102040009405992309F42EC09081982B988790814C
:10205000809589238F838F818C8388E08B8358853B
:102060006F8149853B812C8189819A81508347FD0D
:10207000252F3A952083262F39F0441F00C00000F9
:102080006083000000C0F2CF38E04D916083000013
:10209000019761F7F0939305E093920549873B839D
:1020A0002C8338C09081982B9887908180958923C4
:1020B0008F838F818E8388E08D8358856F814985DA
:1020C0003D812E8189819A81508347FD252F00C053
:1020D00000C0208300C000C000C000C000C06083FA
:1020E0000000262F3A9541F0441F000000C000C0B8
:1020F00000C000C000C0E8CF38E04D9100C0608350
:1021000000C0019709F7F0939305E0939205498782
:102110003D832E839A83898378940E94CF026093B3
:102120008E0570938F058093900590939105299665
:102130000FB6F894DEBF0FBECDBFDF91CF911F91D8
:102140000F910895E0918205F09183058E179F0706
:10215000F0F530918705332361F0639FB0011124BE
:10216000672F439FA0011124452F239F9001112425
:10217000232F30918D0550918A05E0918805F091CB
:102180008905351308C0DC01AA0FBB1F8A0F9B1FEE
:102190008E0F9F1F0AC0880F991F880F991F8E0FDF
:1021A0009F1FFC01E30FF11D108230918A05FC0195
:1021B000E30FF11D608330918B05FC01E30FF11DEE
:1021C000408330918C05FC01E30FF11D20830895BD
:1021D00020918205309183058217930770F5409115
:1021E0008D0550918A052091880530918905451308
:1021F00008C0AC01440F551F840F951F820F931F19
:102200000AC0880F991F880F991F820F931FFC0126
:10221000E40FF11D108220918A05FC01E20FF11DEF
:10222000108220918B05FC01E20FF11D108220919C
:102230008C05FC01E20FF11D108208952F923F9250
:102240004F925F926F927F928F929F92AF92BF92C6
:10225000CF92DF92EF92FF920F931F93CF93DF9372
:10226000CDB7DEB7C756D1090FB6F894DEBF0FBEA3
:10227000CDBF3C015B01A6964FAFA6974E018EE104
:10228000880E911C66E475E0C4010E948D0E1C82CC
:102290001B8286E691E09A8389831E8265018E0106
:1022A0000F5F1F4F240118016FE270E0C6010E940A
:1022B0005E25009709F442C0F60120812F3221F4F7
:1022C000FFEFCF1ADF0AF0CF8C198D3008F08CE0C9
:1022D000E82EF12CA701B601CE01885A9F4F0E942B
:1022E0006925E8E5F0E0EC0FFD1FEE0DFF1D108203
:1022F000C8010E94AF0AF8018581882351F01EAE03
:102300001DAE86E691E09CAF8BAF21961FAE219764
:1023100021C021E0AE01485A5F4FB201C8010E94BE
:102320002005882361F3CE0CDF1CC2010E94AF0A96
:10233000942D852D2801092F182FB6CFC6018A1993
:102340009B09A8969FAF8EAFA897B201CE01CB96FE
:102350000E948D0EA896EEADFFADA897AE0EBF1EE3
:10236000F5018081811109C0BE01655C7F4FC1010B
:102370000E948D0E42E751E03CC019A218A286E6E9
:1023800091E09F8F8E8F1BA221968FAD2197811197
:1023900004C0C3010E94F00E30C08250A6962FAD3B
:1023A000A697A501823040F466E475E0C4010E945E
:1023B000200581110DC0EDCFBE01655C7F4FC401CA
:1023C0000E942005882329F3CE01CB960E94AF0AF4
:1023D000A6968FADA697867039F049A95AA96BA920
:1023E0007CA9C4010E941507B401C1010E948D0E91
:1023F000A501B101C3010E94030FC301C959DF4FF9
:102400000FB6F894DEBF0FBECDBFDF91CF911F9105
:102410000F91FF90EF90DF90CF90BF90AF909F9083
:102420008F907F906F905F904F903F902F90089586
:102430008F929F92AF92BF92CF92DF92EF92FF92D4
:10244000CF93DF93C82F8CE195E090937C04809329
:102450007B04CC2369F1C53010F080E00DC140E071
:1024600060E070E0CB010E944A038823B1F320E1D1
:10247000C29FC001112485599D4FFC01E254FE4FBB
:1024800020812F7751F73C96408151816281738181
:10249000443651056105710500F33497C080D18041
:1024A000E280F380C114D104E104F10421F4D5CF1A
:1024B000C12CD12C760140E0C701B6010E944A032D
:1024C000882359F28091860290918702811592406B
:1024D00021F6A0918B02AA2309F4BFCF6091890253
:1024E00070918A026115710509F4B7CF20918802B5
:1024F000222309F4B2CFA0933A0520932C0580E063
:1025000030E0E1E0F0E0C82FAF01082E02C0440F38
:10251000551F0A94E2F72417350741F0982F8F5F73
:10252000983089F789E08093350597CF80933505FA
:1025300020919102309192022115310519F040E06D
:1025400050E008C020919F023091A0024091A1026A
:102550005091A20220932D0530932E0540932F0514
:102560005093300546015701860E971EA11CB11CE1
:1025700080923B0590923C05A0923D05B0923E05AD
:10258000E0918C02F0918D02F0934105E0934005BB
:10259000B0E00E94AC20860E971EA81EB91E809245
:1025A000420590924305A0924405B092450585E00E
:1025B000EE0FFF1F8A95E1F7E150FE4FEF2FFF2747
:1025C000E6958E0E9F1EA11CB11C8092360590923E
:1025D0003705A0923805B092390520918E023091CE
:1025E0008F022115310521F0A90160E070E008C0DB
:1025F00040919B0250919C0260919D0270919E02BD
:10260000D701C60188199909AA09BB09840F951F2A
:10261000A61FB71F04C0B695A79597958795CA952D
:10262000D2F78093310590933205A0933305B09390
:102630003405853F2FE09207A105B10510F48CE029
:1026400018C0853F9F4FA105B10510F480E111C06E
:102650008091A7029091A802A091A902B091AA022C
:102660008093420590934305A0934405B09345059C
:1026700080E280933F0581E0DF91CF91FF90EF9062
:10268000DF90CF90BF90AF909F908F90089500976C
:1026900069F0FC0101900020E9F73197AF01481B78
:1026A000590BBC018DE794E00C94691480E090E034
:1026B00008958F929F92AF92BF920F931F93CF93E3
:1026C000DF93CDB7DEB7A1970FB6F894DEBF0FBE8C
:1026D000CDBF19A2423008F44AE08E010F5D1F4FB2
:1026E000842E912CA12CB12CA50194010E94EB23E6
:1026F000E62FB901CA0101501109EA3014F4E05D76
:1027000001C0E95CD801EC93232B242B252B61F726
:10271000C8010E944713A1960FB6F894DEBF0FBE02
:10272000CDBFDF91CF911F910F91BF90AF909F9040
:102730008F900895E0917D04F0917E040190F081E6
:10274000E02D682F8DE794E009948F929F92AF92CD
:10275000BF92CF92DF92EF92FF92CF93DF936B0104
:102760007C019B01AC010E94A923882319F088EC0D
:1027700091E027C046015701E894B7F82FEF3FEFEB
:102780004FE75FE7C501B4010E94A92381110DC085
:102790002FEF3FEF4FE75FE7C501B4010E94851FB0
:1027A00018161CF48CEC91E00CC02FEF3FEF4FE7B4
:1027B0005FE4C701B6010E944A23181674F480ED45
:1027C00091E0DF91CF91FF90EF90DF90CF90BF909D
:1027D000AF909F908F900C9447132FEF3FEF4FE7F0
:1027E0005FECC701B6010E94851F87FDE8CF20E09E
:1027F00030E0A901C701B6010E94851F87FF09C00B
:102800008DE20E949A13EC01F7FAF094F7F8F09435
:1028100002C0C0E0D0E02AE037ED43EA5BE3C70145
:10282000B6010E94FE204B015C010E9453226B0105
:102830007C010E948A1F9B01AC01C501B4010E946A
:10284000FD204B015C014AE0C701B6010E9459130B
:10285000C80FD91F8EE20E949A13C80FD91F20E01B
:1028600030E040E251E4C501B4010E94EB1F4B018E
:102870005C010E9453226B01E12CF12C4AE0C7015C
:10288000B6010E945913C80FD91FC701B6010E9493
:102890008A1F9B01AC01C501B4010E94FD2020E00C
:1028A00030E040E251E40E94EB1F0E94532280E09E
:1028B00090E04AE00E9459138C0F9D1FDF91CF9149
:1028C000FF90EF90DF90CF90BF90AF909F908F9050
:1028D0000895CF92DF92EF92FF920F931F93CF93C1
:1028E000DF936C017A018B01C0E0D0E0CE15DF05EB
:1028F00089F0D8016D918D01D601ED91FC91019087
:10290000F081E02DC6010995892B11F47E0102C0EA
:102910002196ECCFC701DF91CF911F910F91FF90CE
:10292000EF90DF90CF900895CF93DF93CDB7DEB7D0
:10293000CB5FD1090FB6F894DEBF0FBECDBF789440
:1029400084B5826084BD84B5816084BD85B58260B4
:1029500085BD85B5816085BD80916E008160809365
:102960006E001092810080918100826080938100CE
:1029700080918100816080938100809180008160DE
:10298000809380008091B10084608093B100809139
:10299000B00081608093B00080917A008460809361
:1029A0007A0080917A00826080937A0080917A0028
:1029B000816080937A0080917A00806880937A00A9
:1029C0001092C100E0918D04F0918E0482E080832A
:1029D000E0918904F0918A041082E0918B04F091D7
:1029E0008C0480E1808310929504E0919104F09131
:1029F000920486E08083E0918F04F09190048081BE
:102A000080618083E0918F04F091900480818860E0
:102A10008083E0918F04F0919004808180688083AE
:102A2000E0918F04F091900480818F7D808380916C
:102A3000860587FD08C061E00E94930260E08091F6
:102A400086050E94630281E0809381050E94E30F66
:102A500060918705613121F12091880530918905C8
:102A6000615031F070E08FEF90E10E94D72302C0F7
:102A700060E070E0F9014091840550918505CF0137
:102A8000821B930B8417950740F44081469FC00139
:102A9000479F900D11249193EECF81E1809387059C
:102AA00010922705109225051092220510922105FB
:102AB0008AE0809320050E94F4028B0161E08091FE
:102AC00020050E94930261E0809120050E9463022C
:102AD000FFB6F8948091D401811127C0EFE4F1E0B2
:102AE0008491E1E3F1E09491E82FF0E0EE0FFF1F15
:102AF000E151FF4FA591B491EC91E92321F461E0FC
:102B00008AE00E94630261E08AE00E9493028CB531
:102B100080618CBD8CB580648CBD61E08DE00E94CD
:102B2000930261E08BE00E9493028091D4018F5F59
:102B30008093D401FFBE82E580931A0510921B0595
:102B400080911A0590911B050E940E0CAAE0FA2EA6
:102B50008FEF0E94CF0BFA94F110FACF8CE195E041
:102B60000E94110C20E030E0A90160E08CE195E0CA
:102B70000E94270CF82E8093260581E0F81649F074
:102B80000E94F402601B710B613D774058F381E0B5
:102B900056C02AEA31E040E050E068E08CE195E080
:102BA0000E94270C82FF03C0F092270510C0F4E0BA
:102BB000FF2E0E94D60B80932605FA94F110F9CFD0
:102BC0008A3A11F082E03BC082E080932705809131
:102BD0002705823021F0C12CD12C760105C0C12CF3
:102BE000D12CE12CE0E4FE2E20E030E0A90167E3E7
:102BF0008CE195E00E94270CA701960169E28CE127
:102C000095E00E94270C80932605882349F00E94B6
:102C1000F402601B710B613D774030F388E00FC018
:102C200080912705823001F520E030E0A9016AE3B8
:102C30008CE195E00E94270C882341F086E0809388
:102C400021058CE195E00E94C40B8DC00E94D60B3B
:102C5000807C803C19F483E0809327050E94D60B8A
:102C60000E94D60B0E94D60B8CE195E00E94C40B0B
:102C700080E580931A0510921B0581E00E941812CE
:102C8000882329F080914B05882341F06CC080E0B7
:102C90000E941812882309F466C0F4CF80913F0582
:102CA000803109F582E080934B0510925D0510920A
:102CB0005E0510925F05109260058091400590912D
:102CC0004105A0E0B0E075E0880F991FAA1FBB1F67
:102CD0007A95D1F78093590590935A05A0935B0597
:102CE000B0935C051DC08032F1F583E080934B0505
:102CF000409142055091430560914405709145050E
:102D000040935D0550935E0560935F057093600589
:102D100029E535E088E295E00E94B704882319F19F
:102D200088E295E0909362058093610581E080934D
:102D30004A0510924C0510924D0510924E051092C6
:102D40004F051092500510925105109252051092A5
:102D50005305109254051092550510925605109285
:102D600057051092580541E062E771E0CE018654A4
:102D70009F4F0E941E111FEF66E6C62E61E0D62E01
:102D80000EE2CD52DF4FE880F980C35DD040D7011D
:102D900015968C91823008F47DC0F7018285938569
:102DA000A485B5858F719927AA27BB27892B8A2BE4
:102DB0008B2B09F06FC040E250E0BE016F5F7F4F88
:102DC000C7010E941D0D803209F064C089818823EB
:102DD00009F460C0853E79F38E3269F38C8583FDFA
:102DE000EACFCC57DF4F19821882C458D040CE5753
:102DF000DF4FD982C882C258D040C957DF4F1882EE
:102E0000C758D040FE01319690E020E08191803299
:102E100091F0283041F4A5EDB0E0AC0FBD1FA90F33
:102E2000B11D0C939F5FA5EDB0E0AC0FBD1FA90FC6
:102E3000B11D8C939F5F2F5F2B3041F7E5EDF0E0E4
:102E4000EC0FFD1FE90FF11D1082CD52DF4F68819D
:102E50007981C35DD04021E0AE014B525F4FCE017E
:102E60008E579F4F0E9420058823A1F0BE016E5708
:102E70007F4FCE018B599F4F0E948D0EAE014B525A
:102E80005F4FBE016B597F4FCE0181569F4F0E940D
:102E9000030F05C0CE0181569F4F0E94F00EC8540B
:102EA000DF4FE881F981C85BD0403097E9F4CE016B
:102EB00081569F4F0E94DE0E812F64E60E94C92337
:102EC000292F8CE0EAE0F1E0DE01AB59BF4F019021
:102ED0000D928A95E1F7E4961DAE1EAE1FAEE49703
:102EE0009A3064F480E30FC08581882301F31F5F6B
:102EF000CE0181569F4F0E94DE0E43CF892F6AE09C
:102F00000E94C923805DAB968FAFAB97822F6AE09A
:102F10000E94C923905DAC969FAFAC97CE018654BA
:102F20009F4F0E94DE0E43E1BE016B597F4FCE01E1
:102F300001961C010E941E118B819C819093680553
:102F4000809367058D819E81AF81B88580936905E7
:102F500090936A05A0936B05B0936C0589859A855B
:102F6000AB85BC8580936D0590936E05A0936F052E
:102F7000B09370058DE0FE013D96A1E7B5E00190AC
:102F80000D928A95E1F78A8D9B8D90937F058093B2
:102F90007E0562E082E00E949302C090D501D0904D
:102FA000D601E090D701F090D8010E94F4026C1590
:102FB0007D058E059F0560F50E94CF024B015C01E7
:102FC00054E6C52ED12CE12CF12C0E94CF02DC015D
:102FD000CB0188199909AA09BB09883E9340A1052C
:102FE000B10580F091E0C91AD108E108F108A8EE16
:102FF0008A0EA3E09A1EA11CB11CC114D104E104E5
:10300000F10419F7C114D104E104F104F1F6C5CFBC
:103010000E94F402DC01CB0188519C4FAF4FBF4F9F
:103020008093D5019093D601A093D701B093D80196
:1030300080E8E4E7F1E0A9EEB1E001900D928A9515
:10304000E1F7E5E0F1E08491E9E2F1E00491E7E401
:10305000F1E014911123A1F081110E943A02E12FB5
:10306000F0E0EE0FFF1FE750FF4FA591B4918C9158
:10307000082331E020E009F430E0832F922F02C0D2
:1030800080E090E0F1E08F27082F017020916A0224
:10309000211113C0892BC9F0109169021430A8F4D2
:1030A0002FEF4FEF6FEF87E090E00E94A2100E9499
:1030B000E30F1F5F1093690208C0892B31F487E08A
:1030C00090E00E94E8100E94E30F00936A02809152
:1030D000EC01823509F088C200E010E039EEE32E01
:1030E00031E0F32EF70101900020E9F73197E95E16
:1030F000F1400E171F0708F0D8C0F801E751FE4F46
:103100008F01095E114081918C32D1F70F5F1F4F03
:10311000F801E751FE4F80810F5F1F4F8C32C1F7DE
:10312000F801E751FE4F80810F5F1F4F8C32C1F7CE
:103130004801A12CB12CF801E751FE4FD0802CE2C0
:10314000D21609F441C0C501B4010E948A1F9B0137
:10315000AC01B80180E090E0C850DF4F2883C85F21
:10316000D040C750DF4F3883C95FD040C650DF4FD3
:103170004883CA5FD040C550DF4F5883CB5FD040F3
:103180000E948A1FC850DF4F2881C85FD040C750B7
:10319000DF4F3881C95FD040C650DF4F4881CA5FDA
:1031A000D040C550DF4F5881CB5FD0400E948D2268
:1031B0000E945322E1E0F0E0EC0FFD1FE60FF11D4D
:1031C000D0820F5F1F4FB7CF8181A6968FAFA69792
:1031D0000D5F1F4FB101CE018B599F4F0E94830F8E
:1031E0006093E5017093E6018093E7019093E80115
:1031F0004801A12CB12CF801E751FE4FD0808CE2A0
:10320000D816F1F1C501B4010E948A1F9B01AC01DF
:10321000B80180E090E0C850DF4F2883C85FD040FD
:10322000C750DF4F3883C95FD040C650DF4F488357
:10323000CA5FD040C550DF4F5883CB5FD0400E945B
:103240008A1FC850DF4F2881C85FD040C750DF4F6A
:103250003881C95FD040C650DF4F4881CA5FD04037
:10326000C550DF4F5881CB5FD0400E948D220E9415
:103270005322F101E60FF11DD0820F5F1F4FBBCF2C
:103280008181A6968FAFA697B101CE018B599F4F32
:103290000E94830F6093E1017093E2018093E30148
:1032A0009093E4010C5F1F4F1DCF4090E1015090BF
:1032B000E2016090E3017090E4018091E50190915A
:1032C000E601A091E701B091E801CE51DF4F88837C
:1032D0009983AA83BB83C25ED04027EA37EE4EE8CB
:1032E0005CE3BC01CD010E94EB1F6B017C019B01E3
:1032F000AC0167EC74E68FEF9EE30E94FD2027EAA5
:1033000037EE4EE85CE30E94EB1F20E030E040E047
:103310005FE30E94EB1F0E9457234B015C01C70132
:10332000B6010E94DC21CA51DF4F688379838A830A
:103330009B83C65ED040A30192016FED7BE982EAD8
:1033400092EC0E94FD2027EA37EE4EE85CE30E94F3
:10335000EB1F20E030E040E05FE30E94EB1F0E94A3
:1033600057236B017C01A5019401C501B4010E94A2
:10337000EB1F4B015C012BE63EEC40E65FE3CA51DC
:10338000DF4F688179818A819B81C65ED0400E942F
:10339000EB1FA70196010E94EB1FA70196010E9457
:1033A000EB1F9B01AC01C501B4010E94FE206B0123
:1033B0007C019B01AC0160E070E080E89FE30E942B
:1033C000FD200E9465239B01AC01C701B601C850D6
:1033D000DF4F2883C85FD040C750DF4F3883C95FB5
:1033E000D040C650DF4F4883CA5FD040C550DF4F42
:1033F0005883CB5FD0400E946523C850DF4F28819F
:10340000C85FD040C750DF4F3881C95FD040C65039
:10341000DF4F4881CA5FD040C550DF4F5881CB5F36
:10342000D0400E947D219B01AC010E94FE2020E043
:1034300038E147EC55E40E94EB1F6093DD01709387
:10344000DE018093DF019093E00125E33AEF4EE83F
:103450005CE3CE51DF4F688179818A819B81C25EB6
:10346000D0400E94EB1F4B015C0125E33AEF4EE890
:103470005CE3C301B2010E94EB1F9B01AC0167EC4E
:1034800072EA85EB9FEB0E94FD206B017C010E949C
:103490005723CA51DF4F688379838A839B83C65E33
:1034A000D040C501B4010E94DC21C651DF4F6883C2
:1034B00079838A839B83CA5ED040C501B4010E9490
:1034C00057232B013C01C701B6010E94DC214B01AF
:1034D0005C012EE13CE045EF5EE3C651DF4F6881C1
:1034E00079818A819B81CA5ED0400E94EB1F6B016B
:1034F0007C012CE736EC40E65FE3C301B2010E9499
:10350000EB1FA50194010E94EB1F9B01AC01C701B9
:10351000B6010E94FD206B017C012CE736EC40E6F1
:103520005FE3CA51DF4F688179818A819B81C65EE2
:10353000D0400E94EB1FA70196010E947D2125E348
:103540003AEF4EE85CE30E94EB1F20E030E044EBF2
:1035500053E40E94FE2020E030E044EB53E40E945C
:103560008D226093D9017093DA018093DB019093EF
:10357000DC01CE51DF4F688179818A819B81C25EF7
:10358000D0400E94A51380EC91E00E944713609107
:10359000E1017091E2018091E3019091E4010E94C8
:1035A000A51380EC91E00E9447136091D9017091BE
:1035B000DA018091DB019091DC010E94A51383EC7C
:1035C00091E00E9447136091DD017091DE018091CE
:1035D000DF019091E0010E94A5134AE06EE67FE2D0
:1035E00080E090E00E9459138091D9019091DA0116
:1035F000A091DB01B091DC01C651DF4F8883998334
:10360000AA83BB83CA5ED04090916902CE50DF4F3F
:103610009883C25FD0408091DD019091DE01A0913E
:10362000DF01B091E001C251DF4F88839983AA8303
:10363000BB83CE5ED0409C01AD0160E070E48CE1C4
:1036400095E40E94FD206B017C0120E030E04AE718
:1036500053E40E94E1214B015C010E9453229AEF46
:10366000699FB0011124072E000C880B990B0E9452
:103670008C1F9B01AC01C701B6010E94FD200E9476
:103680005322CE51DF4F79836883C25ED04020E061
:1036900030E04CEC51E4C501B4010E94EB1F6B011A
:1036A0007C0120E030E040E05FE3C501B4010E940E
:1036B000EB1F2B013C01CE51DF4F88819981C25E07
:1036C000D04062E370E00E94D723CD50DF4F798372
:1036D0006883C35FD04025E2822E912CCA51DF4F10
:1036E0001882C65ED040CE51DF4FA881B981C25E3C
:1036F000D040AA5FB109CB50DF4FB983A883C55F23
:10370000D040CE51DF4FB881C25ED040B095C95095
:10371000DF4FB883C75FD04020E030E040EA50E49C
:10372000C301B2010E94851F811104C02FEF4FEF2A
:103730006FEF23C0CA51DF4FE881C65ED0406E2FC5
:10374000EE0F770B880B990B0E948C1FA30192013F
:103750000E94851F1816ACF0C701B6010E945322C3
:10376000162FA701960160E070E08FE793E40E94B6
:10377000FD200E94532220E0412FC4010E94A2108C
:1037800003C0C4010E94E81006E210E0A12CB12C95
:10379000CB50DF4F88819981C55FD040C29720F41C
:1037A0002FEF4FEF6FEF14C0CD50DF4FA881B981DD
:1037B000C35FD040AA15BB0578F020E0CE51DF4FA3
:1037C0004881C25ED040C950DF4F6881C75FD0409A
:1037D000C8010E94A21003C0C8010E94E810BFEFF8
:1037E000AB1ABB0A08501109E5E0AE16B10481F628
:1037F000CA51DF4FF881C65ED040FF5FCA51DF4F2C
:10380000F883C65ED04028E0821A9108F53009F0AE
:1038100083CF20E030E040E251E4C651DF4F6881C1
:1038200079818A819B81CA5ED0400E94FE204B0133
:103830005C0120E030E0A9010E94851F87FD13C0D4
:1038400020E030E044EB53E4C501B4010E944A2378
:1038500018164CF08092D9019092DA01A092DB0107
:10386000B092DC0108C01092D9011092DA011092D6
:10387000DB011092DC0180E1E9E1F1E0D10101908E
:103880000D928A95E1F788E0E9E2F1E0DE01AB59BB
:10389000BF4F01900D928A95E1F720E030E044EBB4
:1038A00051E4C651DF4F688179818A819B81CA5E6C
:1038B000D0400E94E1210E9453224101A12CB12C51
:1038C000062F10E0A016B106A1F4C701B6010E94B0
:1038D0005322762EA701960160E070E08FE793E413
:1038E0000E94FD200E945322D4018C9120E0472D9C
:1038F00005C0F401808120E840EC60E490E00E9483
:10390000A210FFEFAF1ABF0A2FEF821A920A80E1CE
:10391000A816B104B9F6480195948794DE01AB5915
:10392000BF4F5D0100E010E008151905A1F4C701C3
:10393000B6010E945322762EA701960160E070E046
:103940008FE793E40E94FD200E945322F5018081BD
:1039500020E0472D05C0D5018C9120E840EC60E4C3
:1039600090E00E94A2100F5F1F4FBFEFAB1ABB0A7F
:1039700008301105C9F6C701B6010E945322162F5F
:10398000A701960160E070E08FE793E40E94FD20BC
:103990000E94532220E0412F82E190E00E94A21079
:1039A00087E2E82EF12C00E010E0CE50DF4FE881F6
:1039B000C25FD040CE2ED12C20E00C151D051CF48A
:1039C0004FEF60E007C00C151D0511F44FEF01C06B
:1039D00040E06FEFC7010E94A2100F5F1F4FF8E099
:1039E000EF1AF1080430110539F70E94E30F20E0C7
:1039F00030E040E251E4C251DF4F688179818A8131
:103A00009B81CE5ED0400E94FD206B017C0120E0B6
:103A100030E0A9010E94851F87FD09C0C092DD0129
:103A2000D092DE01E092DF01F092E0010CC080E074
:103A300090E4ACE1B5E48093DD019093DE01A093C6
:103A4000DF01B093E00189EE91E00E94471385EC1D
:103A500091E00E9447130E949B019FCA80918805B4
:103A600090918905009711F00E94B42480918605F9
:103A700087FD03C060E00C949302089510928004C7
:103A800010927F0488EE93E0A0E0B0E08093810480
:103A900090938204A0938304B093840486E491E01D
:103AA00090937E0480937D0485EC90E090938A044B
:103AB0008093890484EC90E090938C0480938B0431
:103AC00080EC90E090938E0480938D0481EC90E0E4
:103AD0009093900480938F0482EC90E090939204F2
:103AE0008093910486EC90E09093940480939304E7
:103AF00010929604109297041092980410929904D0
:103B000080E580931A0510921B05109221051092F2
:103B10002205109225051092270582E090E0A0E092
:103B2000B0E08093280590932905A0932A05B093CF
:103B30002B0510923F05109249051092480586E624
:103B400091E0909347058093460510924B051092A3
:103B500081051092870510928E0510928F051092A4
:103B600090051092910581E080938D0580938A05E0
:103B700010928B0592E090938C058093800588E7E6
:103B800090E090938505809384050E941F24909374
:103B9000890580938805009761F028E7FC01119260
:103BA0002A95E9F788E290E0909383058093820557
:103BB00008C010928505109284051092830510921A
:103BC000820586E08093860580918105882341F0F7
:103BD00061E086E00E94930260E086E00E9463025A
:103BE000EBE4F1E0E491F0E0EE0FFF1FE55CFE4F47
:103BF000859194919093930580939205EDE2F1E085
:103C0000E491E093940585E695E00C94F00EA0E035
:103C1000B0E0EDE0FEE10C94BB20EC017B0161150E
:103C2000710519F0DB018D939C938E010F5F1F4F7F
:103C30007880872D90E00E94641F892B11F0E801A5
:103C4000F4CFBDE27B1205C00F5F1F4F7980C1E04A
:103C500008C0EBE27E1204C08E010E5F1F4F798018
:103C6000C0E06801F1E0CF1AD10843E050E06CEB0E
:103C700070E0C6010E946D1F892BF1F4680122E0FB
:103C8000C20ED11C45E050E067EB70E0C6010E9417
:103C90006D1F892B21F4680187E0C80ED11CE11447
:103CA000F10419F0D701CD92DC92C111FFC060E0A0
:103CB00070E080E89FE703C143E050E064EB70E010
:103CC000C6010E946D1F892B51F4E114F10409F41F
:103CD000F2C00E5F1F4FF70111830083ECC0680133
:103CE00060E070E0CB0100E010E0F601D0EDD70D10
:103CF000DA3058F52C2F2260622E2C2F2870C2FF4C
:103D000005C0211128C00F5F1F4F25C0222311F0CD
:103D100001501109A5E0B0E09B01AC010E94AC206C
:103D20004B015C01880C991CAA1CBB1CC501B40189
:103D30006D0F711D811D911D6839A9E97A078A07E8
:103D4000A9E19A0740F0C66005C0DE3F51F4C3FD0B
:103D500044C0C8606C2EBFEFCB1ADB0A7080C62D42
:103D6000C4CF2D2F2F7D2531C1F540814D3211F467
:103D7000C06106C04B3221F0319621E030E006C030
:103D80003296D60111964C9122E030E0A0EDA40FBE
:103D9000AA3018F0E21BF30B20C040E050E040389E
:103DA000BCE05B075CF49A01220F331F220F331F24
:103DB000420F531F440F551F4A0F511D3196DF010B
:103DC00011972C91A0EDA20FAA3048F3C4FF03C0B5
:103DD000519541955109040F151FC1FF07C0E1140A
:103DE000F10421F03197D701ED93FC930E948A1FD3
:103DF000C370C33019F06B017C0106C06B017C01FC
:103E0000F7FAF094F7F8F09420E030E0A901C70148
:103E1000B6010E94851F882309F445C017FF06C01C
:103E2000119501951109C3EDD0E002C0CBEED0E0B1
:103E30005E01B8E1AB1AB1084601BE2DAF2D90E28C
:103E4000E92EF12C0E151F0584F0FE012591359108
:103E500045915491B4018B2F9A2F0E94EB1F4B0177
:103E6000B82FA92F0E191F09EDCF2497F594E794C9
:103E7000CA15DB0539F76401EB2EFA2E8E2D880F5B
:103E80008F2D881F8F3F49F020E030E0A901C70146
:103E9000B6010E94851F811106C082E290E09093D6
:103EA000960580939505C701B60109C060E070E0F2
:103EB00080E89FEF04C060E070E080EC9FE7CDB742
:103EC000DEB7EEE00C94D72091110C94582080328C
:103ED00019F089508550C8F70895FB01DC01415065
:103EE000504088F08D9181341CF08B350CF4805E4D
:103EF000659161341CF06B350CF4605E861B6111BA
:103F000071F3990B0895881BFCCF0E94C71F08F41A
:103F100081E00895E89409C097FB3EF49095809560
:103F2000709561957F4F8F4F9F4F9923A9F0F92F7F
:103F300096E9BB279395F695879577956795B795FD
:103F4000F111F8CFFAF4BB0F11F460FF1BC06F5FE3
:103F50007F4F8F4F9F4F16C0882311F096E911C0F5
:103F6000772321F09EE8872F762F05C0662371F016
:103F700096E8862F70E060E02AF09A95660F771F2A
:103F8000881FDAF7880F9695879597F90895990F06
:103F90000008550FAA0BE0E8FEEF16161706E80713
:103FA000F907C0F012161306E407F50798F0621B34
:103FB000730B840B950B39F40A2661F0232B242B09
:103FC000252B21F408950A2609F4A140A6958FEF28
:103FD000811D811D08950E94FE1F0C9472200E9475
:103FE000642038F00E946B2020F0952311F00C948F
:103FF0005B200C94612011240C94A6200E94832045
:1040000070F3959FC1F3950F50E0551F629FF0012B
:10401000729FBB27F00DB11D639FAA27F00DB11D44
:10402000AA1F649F6627B00DA11D661F829F2227CD
:10403000B00DA11D621F739FB00DA11D621F839F54
:10404000A00D611D221F749F3327A00D611D231F2A
:10405000849F600D211D822F762F6A2F11249F5778
:1040600050409AF0F1F088234AF0EE0FFF1FBB1F7B
:10407000661F771F881F91505040A9F79E3F51053A
:1040800080F00C945B200C94A6205F3FE4F3983EF4
:10409000D4F3869577956795B795F795E7959F5FE4
:1040A000C1F7FE2B880F911D9695879597F9089576
:1040B00099278827089597F99F6780E870E060E066
:1040C00008959FEF80EC089500240A9416161706B1
:1040D00018060906089500240A94121613061406F9
:1040E00005060895092E0394000C11F4882352F05C
:1040F000BB0F40F4BF2B11F460FF04C06F5F7F4F14
:104100008F4F9F4F089557FD9058440F551F59F0FA
:104110005F3F71F04795880F97FB991F61F09F3FB4
:1041200079F087950895121613061406551FF2CFDD
:104130004695F1DF08C0161617061806991FF1CF2D
:1041400086957105610508940895E894BB27662754
:104150007727CB0197F908950E94EE20A59F900D37
:10416000B49F900DA49F800D911D112408952F924E
:104170003F924F925F926F927F928F929F92AF92F7
:10418000BF92CF92DF92EF92FF920F931F93CF9344
:10419000DF93CDB7DEB7CA1BDB0B0FB6F894DEBFDB
:1041A0000FBECDBF09942A88398848885F846E8401
:1041B0007D848C849B84AA84B984C884DF80EE804B
:1041C000FD800C811B81AA81B981CE0FD11D0FB654
:1041D000F894DEBF0FBECDBFED010895A29FB001E0
:1041E000B39FC001A39F700D811D1124911DB29F2B
:1041F000700D811D1124911D08955058BB27AA27C9
:104200000E9415210C9472200E94642038F00E94B4
:104210006B2020F039F49F3F19F426F40C946120B0
:104220000EF4E095E7FB0C945B20E92F0E948320BD
:1042300058F3BA17620773078407950720F079F4DB
:10424000A6F50C94A5200EF4E0950B2EBA2FA02D08
:104250000B01B90190010C01CA01A0011124FF2733
:10426000591B99F0593F50F4503E68F11A16F0402E
:10427000A22F232F342F4427585FF3CF469537952D
:104280002795A795F0405395C9F77EF41F16BA0BF2
:10429000620B730B840BBAF09150A1F0FF0FBB1FA0
:1042A000661F771F881FC2F70EC0BA0F621F731FE9
:1042B000841F48F4879577956795B795F7959E3F46
:1042C00008F0B0CF9395880F08F09927EE0F9795D7
:1042D000879508950E94642060F080E891E009F4D9
:1042E0009EEF0E946B2028F040E851E071F45EEFF1
:1042F0000CC00C9461200C94A520E92FE0780E945A
:10430000832040F3092E052AB1F326173707480703
:10431000590738F00E2E07F8E02569F0E025E06433
:104320000AC0EF6307F8009407FADB01B9019D01A9
:10433000DC01CA01AD01EF930E94F8210E947220B6
:104340000E94AD215F91552339F02BED3FE049E408
:1043500050FD49EC0C94FE200895DF93DD27B92F22
:10436000BF7740E85FE31616170648075B0718F4A7
:10437000D92F0E944F239F938F937F936F930E9417
:10438000A523E8E6F0E00E94E4220E9472202F912B
:104390003F914F915F910E94FE1FDD2351F0905895
:1043A000A2EA2AED3FE049EC5FE3D0785D270E9466
:1043B0001521DF910C9472200E940D23E3950C943B
:1043C00036230E94F5210C9472200E946B2058F035
:1043D0000E94642040F029F45F3F29F00C945B2098
:1043E00051110C94A6200C9461200E94832068F344
:1043F0009923B1F3552391F3951B550BBB27AA279E
:1044000062177307840738F09F5F5F4F220F331FD7
:10441000441FAA1FA9F335D00E2E3AF0E0E832D09F
:1044200091505040E695001CCAF72BD0FE2F29D0A2
:10443000660F771F881FBB1F261737074807AB0774
:10444000B0E809F0BB0B802DBF01FF2793585F4FE9
:104450003AF09E3F510578F00C945B200C94A62016
:104460005F3FE4F3983ED4F3869577956795B795CB
:10447000F7959F5FC9F7880F911D9695879597F9D6
:104480000895E1E0660F771F881FBB1F621773074F
:104490008407BA0720F0621B730B840BBA0BEE1F64
:1044A00088F7E09508950E948B2088F09F5798F038
:1044B000B92F9927B751B0F0E1F0660F771F881F29
:1044C000991F1AF0BA95C9F714C0B13091F00E9443
:1044D000A520B1E008950C94A520672F782F882798
:1044E000B85F39F0B93FCCF3869577956795B3956A
:1044F000D9F73EF490958095709561957F4F8F4FD9
:104500009F4F08950E94642020F019F00E946B20B4
:1045100050F40C9461200C94A620E92F0E94832073
:1045200088F35523B1F3E7FB6217730784079507F8
:10453000A8F189F3E92FFF2788232AF03197660F26
:10454000771F881FDAF7952F5527442332F09150B3
:104550005040220F331F441FD2F7BB27E91BF50B36
:10456000621B730B840BB109B1F222F4620F731F4B
:10457000841FB11D31972AF0660F771F881FBB1F5C
:10458000EFCF9150504062F041F0882332F0660F37
:10459000771F881F91505040C1F793950C94D622F5
:1045A0008695779567959F5FD9F7F7CF9F3F31F055
:1045B000915020F4879577956795B795880F911D51
:1045C0009695879597F90895DF93CF931F930F934F
:1045D000FF92EF92DF927B018C01689406C0DA2E85
:1045E000EF010E94FE1FFE01E894A59125913591EF
:1045F00045915591A6F3EF010E941521FE01970107
:10460000A801DA9469F7DF90EF90FF900F911F9166
:10461000CF91DF9108950C9461200E948B20D8F3F4
:10462000E894E0E0BB279F57F0F02AED3FE049EC2B
:1046300006C0EE0FBB0F661F771F881F28F0B23A27
:1046400062077307840728F0B25A620B730B840B5E
:10465000E3959A9572F7803830F49A95BB0F661FF0
:10466000771F881FD2F790480C94D822EF93E0FF71
:1046700007C0A2EA2AED3FE049EC5FEB0E9415215A
:104680000E9472200F90039401FC9058E5E9F0E03D
:104690000C94B5230E94C71F08F48FEF08959B0167
:1046A000AC0160E070E080E89FE30C94E1219F930F
:1046B0000E940D230F9007FCEE5F0C94362319F433
:1046C00016F40C9461200C94D6220E948B20B8F32F
:1046D0009923C9F3B6F39F57550B87FF0E94AE236A
:1046E0000024A0E640EA900180585695979528F45A
:1046F000805C660F771F881F20F026173707480752
:1047000030F4621B730B840B202931294A2BA695A8
:1047100017940794202531254A2758F7660F771FED
:10472000881F20F026173707480730F4620B730BF9
:10473000840B200D311D411DA09581F7B901842FF7
:104740009158880F9695879508959B01AC010C941C
:10475000EB1F0E94C71F880B990B08959150504082
:10476000660F771F881FD2F708959F938F937F93CB
:104770006F93FF93EF939B01AC010E94EB1FEF91AE
:10478000FF910E94E4222F913F914F915F910C94F1
:10479000EB1F87FB082E062687FD819567FD619537
:1047A0000E940D240EF4919507FC81950895AA1B93
:1047B000BB1B51E107C0AA1FBB1FA617B70710F00C
:1047C000A61BB70B881F991F5A95A9F7809590953E
:1047D000BC01CD010895A1E21A2EAA1BBB1BFD014D
:1047E0000DC0AA1FBB1FEE1FFF1FA217B307E407D0
:1047F000F50720F0A21BB30BE40BF50B661F771F28
:10480000881F991F1A9469F7609570958095909507
:104810009B01AC01BD01CF010895991B79E004C053
:10482000991F961708F0961B881F7A95C9F78095EF
:104830000895EE0FFF1F0590F491E02D0994CF939A
:10484000DF938230910510F482E090E0E0919905C9
:10485000F0919A0520E030E0C0E0D0E0309711F10F
:104860004081518148175907C0F04817590761F432
:1048700082819381209719F09B838A832BC0909328
:104880009A058093990526C02115310519F0421724
:10489000530718F49A01BE01DF01EF010280F38192
:1048A000E02DDCCF2115310509F1281B390B24300F
:1048B000310590F412968D919C91139761157105B5
:1048C00021F0FB019383828304C090939A05809327
:1048D0009905FD01329644C0FD01E20FF31F81935B
:1048E0009193225031092D933C933AC02091970522
:1048F00030919805232B41F4209106013091070156
:10490000309398052093970520910401309105017B
:104910002115310541F42DB73EB740910801509162
:104920000901241B350BE0919705F0919805E217DA
:10493000F307A0F42E1B3F0B2817390778F0AC01C2
:104940004E5F5F4F2417350748F04E0F5F1F50939F
:104950009805409397058193919302C0E0E0F0E0C1
:10496000CF01DF91CF9108950F931F93CF93DF93E2
:10497000009709F48CC0FC013297138212820091D7
:10498000990510919A050115110581F42081318155
:10499000820F931F209197053091980528173907AA
:1049A00079F5F0939805E093970571C0D80140E040
:1049B00050E0AE17BF0750F412962D913C9113971B
:1049C000AD012115310509F1D901F3CF9D01DA01BE
:1049D0003383228360817181860F971F821793072B
:1049E00069F4EC0128813981260F371F2E5F3F4F74
:1049F000318320838A819B8193838283452B29F491
:104A0000F0939A05E093990542C01396FC93EE93B8
:104A10001297ED01499159919E01240F351FE2171C
:104A2000F30771F480819181840F951F029611968E
:104A30009C938E938281938113969C938E9312976D
:104A4000E0E0F0E0D80112968D919C9113970097C9
:104A500019F0F8018C01F6CF8D919C9198012E5F91
:104A60003F4F820F931F209197053091980528178B
:104A7000390769F4309729F410929A051092990534
:104A800002C0138212821093980500939705DF915C
:104A9000CF911F910F91089581E090E0F8940C94CC
:104AA0007825FB01DC0104C08D910190801921F46F
:104AB00041505040C8F7881B990B0895FC01819123
:104AC000861721F08823D9F7992708953197CF01C8
:104AD0000895FB01DC014150504048F001900D92D7
:104AE0000020C9F701C01D9241505040E0F70895E1
:104AF00010E0CEEAD0E004C0FE010E941924219605
:0A4B0000CF3AD107C9F7F894FFCFB0
:104B0A00FFFFFFFF00009B0580004D794D61704E4D
:104B1A004E2E747874000000000203040C141C2446
:104B2A002322212018100800010A0B131B1A19113D
:104B3A000900000000006D098B094C094F0F590F3D
:104B4A0083090000000032016914FB00D900ED005E
:104B5A00790100000000A5016914A501A501A501BC
:104B6A00A501000000003B09691400000000A5012E
:104B7A0069142F00244750524D432C3036343935AE
:104B8A00312E3030302C412C323330372E31323501
:104B9A00362C4E2C31323031362E343433382C45C3
:104BAA002C302E30332C3136352E34382C323630E8
:104BBA003430362C332E30352C572C412A324300D0
:104BCA002C20002E000D0A006E616E00696E6600D0
:044BDA006F7666008C
:107E0000112484B714BE81FFF0D085E080938100F7
:107E100082E08093C00088E18093C10086E0809377
:107E2000C20080E18093C4008EE0C9D0259A86E02C
:107E300020E33CEF91E0309385002093840096BBD3
:107E4000B09BFECF1D9AA8958150A9F7CC24DD24C4
:107E500088248394B5E0AB2EA1E19A2EF3E0BF2EE7
:107E6000A2D0813461F49FD0082FAFD0023811F036
:107E7000013811F484E001C083E08DD089C08234E0
:107E800011F484E103C0853419F485E0A6D080C0E4
:107E9000853579F488D0E82EFF2485D0082F10E0AE
:107EA000102F00270E291F29000F111F8ED06801E7
:107EB0006FC0863521F484E090D080E0DECF843638
:107EC00009F040C070D06FD0082F6DD080E0C81688
:107ED00080E7D80618F4F601B7BEE895C0E0D1E017
:107EE00062D089930C17E1F7F0E0CF16F0E7DF06D8
:107EF00018F0F601B7BEE89568D007B600FCFDCFD4
:107F0000A601A0E0B1E02C9130E011968C91119780
:107F100090E0982F8827822B932B1296FA010C0160
:107F200087BEE89511244E5F5F4FF1E0A038BF0790
:107F300051F7F601A7BEE89507B600FCFDCF97BE46
:107F4000E89526C08437B1F42ED02DD0F82E2BD052
:107F50003CD0F601EF2C8F010F5F1F4F84911BD097
:107F6000EA94F801C1F70894C11CD11CFA94CF0C13
:107F7000D11C0EC0853739F428D08EE10CD085E9AC
:107F80000AD08FE07ACF813511F488E018D01DD067
:107F900080E101D065CF982F8091C00085FFFCCF94
:107FA0009093C60008958091C00087FFFCCF809118
:107FB000C00084FD01C0A8958091C6000895E0E648
:107FC000F0E098E1908380830895EDDF803219F02E
:107FD00088E0F5DFFFCF84E1DECF1F93182FE3DFCA
:107FE0001150E9F7F2DF1F91089580E0E8DFEE27F6
:047FF000FF270994CA
:027FFE00040479
:0400000300007E007B
:00000001FF