:100000000C9463000C948B000C948B000C943504BE
:100010000C9435040C9435040C948B000C948B00D8
:100020000C948B000C948B000C948B000C948B0024
:100030000C948B000C948B000C948B000C948B0014
:100040000C94EB030C948B000C94B9030C94930365
:100050000C948B000C948B000C948B000C948B00F4
:100060000C948B000C948B0000000008000201002F
:100070000003040700000000000000000000000072
:10008000250028002B0000000000240027002A0083
:1000900000000000230026002900040404040404D6
:1000A0000404020202020202030303030303010227
:1000B00004081020408001020408102001020408F6
:1000C0001020AF044F0811241FBECFEFD8E0DEBFD1
:1000D000CDBF11E0A0E0B1E0E2E7F4E102C005909D
:1000E0000D92A23AB107D9F723E0A2EAB1E001C02C
:1000F0001D92AD37B207E1F710E0C2E6D0E004C0D0
:100100002197FE010E948108C136D107C9F70E94DC
:10011000B1050C942C0A0C940000E7E7F2E0A089EA
:10012000B18982E08C93A485B5851C92A685B7859C
:1001300080E18C93108EA489B58986E08C93A28986
:10014000B3898C9180618C93A289B3898C918860EA
:100150008C93A289B3898C9180688C930288F389EF
:10016000E02D80818F7D80830895CF92DF92EF9282
:10017000FF920F931F93CF93DF936C017A018B0152
:10018000C0E0D0E0CE15DF0589F0D8016D918D017A
:10019000D601ED91FC910190F081E02DC601099509
:1001A000892B11F47E0102C02196ECCFC701DF91AB
:1001B000CF911F910F91FF90EF90DF90CF90089516
:1001C000FC01918D828D981761F0828DDF01A80F5F
:1001D000B11D5D968C91928D9F5F9F73928F90E081
:1001E00008958FEF9FEF0895FC01918D828D9817F0
:1001F00031F0828DE80FF11D858D90E008958FEF2D
:100200009FEF0895FC01918D228D892F90E0805CF5
:100210009F4F821B91098F739927089587E792E07A
:100220000E94020121E0892B09F420E0822F089529
:10023000FC01848DDF01A80FB11DA35ABF4F2C9183
:10024000848D90E001968F739927848FA689B78952
:100250002C93A089B1898C9180648C93938D848D2B
:10026000981306C00288F389E02D80818F7D8083FA
:100270000895EF92FF920F931F93CF93DF93EC01BA
:1002800081E0888F9B8D8C8D981305C0E889F98952
:10029000808185FD24C0F62E0B8D10E00F5F1F4F6F
:1002A0000F731127E02E8C8DE8120CC00FB607FCDF
:1002B000FACFE889F989808185FFF5CFCE010E94C8
:1002C0001801F1CF8B8DFE01E80FF11DE35AFF4FAE
:1002D000F0820B8FEA89FB898081806207C0EE89FA
:1002E000FF896083E889F98980818064808381E067
:1002F00090E0DF91CF911F910F91FF90EF900895C3
:10030000CF93DF93EC01888D8823C9F0EA89FB89BC
:10031000808185FD05C0A889B9898C9186FD0FC0B3
:100320000FB607FCF5CF808185FFF2CFA889B98988
:100330008C9185FFEDCFCE010E941801E7CFDF91B0
:10034000CF91089580E090E0892B29F00E940E0162
:1003500081110C940000089590E0FC01E859FF4FD2
:100360003491FC01E255FF4F2491FC01E656FF4F0A
:10037000E491EE2309F43BC0332339F1333091F09B
:1003800038F43130A9F0323001F584B58F7D12C0D8
:10039000373091F03830A1F03430B9F480918000DA
:1003A0008F7D03C0809180008F77809380000DC087
:1003B00084B58F7784BD09C08091B0008F7703C06A
:1003C0008091B0008F7D8093B000F0E0EE0FFF1FB2
:1003D000E458FF4FA591B4918FB7F894EC91611157
:1003E00003C020952E2301C02E2B2C938FBF089580
:1003F0003FB7F8948091E7019091E801A091E9015D
:10040000B091EA0126B5A89B05C02F3F19F00196CF
:10041000A11DB11D3FBFBA2FA92F982F8827820F8A
:10042000911DA11DB11DBC01CD0142E0660F771FDA
:10043000881F991F4A95D1F708958F929F92AF9286
:10044000BF92CF92DF92EF92FF926B017C010E94EC
:10045000F8014B015C01C114D104E104F104F1F095
:100460000E94F801DC01CB0188199909AA09BB098E
:10047000883E9340A105B10570F321E0C21AD1086E
:10048000E108F10888EE880E83E0981EA11CB11CDB
:10049000C114D104E104F10419F7DDCFFF90EF900E
:1004A000DF90CF90BF90AF909F908F9008952FB71F
:1004B000F8946091E3017091E4018091E5019091DD
:1004C000E6012FBF08952091ED013091EE0128172C
:1004D000390771F49091EB018091EC01981741F08C
:1004E000E091EB01F0E0EE55FE4F808190E0089541
:1004F0008FEF9FEF089508951F93CF93DF93DC0153
:100500005C962D913C915D972115310539F481E080
:1005100090E013969C938E9312973DC05196ED9167
:10052000FC91529750969C915097892F80951FB7B8
:100530005E964C915E9741FB772770F941FD60957F
:10054000F8944081772311F0492B01C04823408360
:10055000E9012197F1F748E0508160FF02C0592B73
:1005600001C058235083E9012197F1F76695415066
:1005700099F7772321F090818923808303C08081BC
:10058000982B90831FBF5C968D919C915D970197EE
:10059000F1F721E030E0C901DF91CF911F9108957B
:1005A0002091ED013091EE012817390771F4809107
:1005B000EC012091EB0190E0805C9F4F821B910940
:1005C00060E470E00E945908089580E090E008958A
:1005D0002091ED013091EE0128173907B9F490917F
:1005E000EB018091EC01981789F0E091EB01F0E0CC
:1005F000EE55FE4F80812091EB0130E02F5F3F4FA1
:100600002F7333272093EB0190E008958FEF9FEF36
:100610000895E091ED01F091EE01E817F90769F412
:10062000A389B4899C918589809589238C931092A4
:10063000EE011092ED0181E0089580E008956115CA
:10064000710579F0FB0101900020E9F73197AF01C6
:10065000461B570BDC01ED91FC910280F381E02DEC
:10066000099480E090E008954F925F926F927F929C
:10067000EF92FF920F931F93CF93DF93CDB7DEB727
:10068000A1970FB6F894DEBF0FBECDBF7C01FA0173
:10069000CB0119A2223008F42AE08E010F5D1F4F12
:1006A000422E512C612C712CBF01A30192010E949A
:1006B000B909F901CA01015011096A3014F4605DE9
:1006C00001C0695CD8016C93232B242B252B61F787
:1006D000B801C7010E941F03A1960FB6F894DEBFB0
:1006E0000FBECDBFDF91CF911F910F91FF90EF9083
:1006F0007F906F905F904F9008950F931F93CF93CB
:10070000DF93EC010E941F038C016FE271E0CE01C8
:100710000E941F03800F911FDF91CF911F910F91B6
:1007200008950E9487081F920F920FB60F9211240E
:100730002F933F934F935F936F937F938F939F93E9
:10074000AF93BF93EF93FF9387E792E00E94180166
:10075000FF91EF91BF91AF919F918F917F916F9199
:100760005F914F913F912F910F900FBE0F901F906F
:1007700018951F920F920FB60F9211242F938F93FB
:100780009F93EF93FF93E0918702F091880280811D
:10079000E0918D02F0918E0282FD12C090818091D5
:1007A00090028F5F8F7320919102821751F0E09138
:1007B0009002F0E0E958FD4F958F8093900201C0C0
:1007C0008081FF91EF919F918F912F910F900FBE9C
:1007D0000F901F9018951F920F920FB60F92112431
:1007E0002F933F938F939F93AF93BF938091E30198
:1007F0009091E401A091E501B091E6013091E20110
:1008000023E0230F2D3720F40196A11DB11D05C053
:1008100026E8230F0296A11DB11D2093E2018093CB
:10082000E3019093E401A093E501B093E601809188
:10083000E7019091E801A091E901B091EA010196E8
:10084000A11DB11D8093E7019093E801A093E901F8
:10085000B093EA01BF91AF919F918F913F912F91FA
:100860000F900FBE0F901F9018951F920F920FB60A
:100870000F9211242F933F934F935F936F937F9326
:100880008F939F93AF93BF93EF93FF93E091ED010D
:10089000F091EE01309709F451C0968DA685B78589
:1008A000858591FF04C09C91892329F447C09C91C0
:1008B000892309F043C0A389B4899C9185898095D7
:1008C00089238C93868997890197F1F7608D718DC3
:1008D000A685B785558538E020E0CB010197F1F773
:1008E000822F90E095958795282F4C91452309F00C
:1008F0002068315091F7868D81FD20958091EC0123
:1009000090E001968F7399273091EB01381749F0E9
:10091000A091EC01B0E0AE55BE4F2C938093EC015A
:1009200003C0868D8160868F828D938D0197F1F74C
:10093000A389B4899C918589892B8C93FF91EF9130
:10094000BF91AF919F918F917F916F915F914F91E7
:100950003F912F910F900FBE0F901F901895CF933E
:10096000DF9310927A021092790288EE93E0A0E071
:10097000B0E080937B0290937C02A0937D02B093C1
:100980007E0224E031E0309378022093770225EC58
:1009900030E0309384022093830224EC30E03093E3
:1009A00086022093850220EC30E030938802209369
:1009B000870221EC30E030938A022093890222ECF6
:1009C00030E030938C0220938B0226EC30E03093A1
:1009D0008E0220938D02109290021092910210923A
:1009E00092021092930210921A0310921B0310921B
:1009F0001C0310921D0310921E0310921F031092ED
:100A000020031092210310922203109223031092CC
:100A100024031092250310922603109227031092AC
:100A200028031092290310925F0310925E038093B3
:100A3000600390936103A0936203B093630384E126
:100A400091E090935D0380935C0310927303109286
:100A50007203109275031092740310927703109230
:100A60007603109279031092780360917A036E7F77
:100A70006D7F60937A036695617081E0682787E0F7
:100A80000E94AC01E5EBF0E02491E1EAF0E0849112
:100A9000882399F090E0880F991FFC01EA57FF4FD7
:100AA000A591B491FC01E458FF4F859194918FB7C3
:100AB000F894EC91E22BEC938FBFE5EBF0E0E4913E
:100AC000E0936C03E1EAF0E0E491F0E0EE0FFF1F49
:100AD000E458FF4F8591949190936E0380936D033A
:100AE000E6EBF0E02491E2EAF0E084918823C1F0A3
:100AF00090E0880F991FFC01EA57FF4FC591D491F0
:100B0000FC01E458FF4FA591B4919FB7F8948881F8
:100B1000E22FE0958E2388838C91E823EC939FBF8E
:100B200080917A0381FD04C061E088E00E94AC01FD
:100B300088E080936803E6EBF0E0E491E0936903DA
:100B4000E2EAF0E0E491F0E0EE0FFF1FE057FF4F24
:100B50008591949190936B0380936A03DF91CF9179
:100B60000895789484B5826084BD84B5816084BD25
:100B700085B5826085BD85B5816085BD80916E003B
:100B8000816080936E00109281008091810082606C
:100B900080938100809181008160809381008091A9
:100BA00080008160809380008091B1008460809398
:100BB000B1008091B00081608093B00080917A0094
:100BC000846080937A0080917A00826080937A00BA
:100BD00080917A00816080937A0080917A008068A9
:100BE00080937A001092C10010925803109259031A
:100BF00010925A0310925B0310921603109217037F
:100C0000109218031092190368EB7BE080E090E0EB
:100C10000E941D0287E792E090935703809356034A
:100C20000E948D000E945702609316037093170371
:100C3000809318039093190360E271E0809156034A
:100C4000909157030E941F036AE070E080E090E0FB
:100C50000E941D0281E080932A030E948D00109261
:100C6000770310927603109275031092740310921A
:100C70007303109272038DE991E09093790380934E
:100C8000780390916803963108F057C02DEB30E05F
:100C900030937303209372032BE931E03093750393
:100CA000209374032CE231E0309377032093760392
:100CB00020916800983050F031E09E3008F430E028
:100CC00081E001C0880F3A95EAF701C084E0822BE9
:100CD00080936800983038F09E3040F0963148F0AC
:100CE00020E030E008C02DE630E005C02BE630E023
:100CF00002C02CE630E03093700320936F039830ED
:100D000030F481E001C0880F9A95EAF70EC0292FD0
:100D100030E09E3018F42850310902C02E503109BD
:100D200081E001C0880F2A95EAF7809371038091D2
:100D30007803909179030197F1F780917603909170
:100D40007703892B21F18091ED019091EE0123E051
:100D50008C359207E1F0009711F00E940903809111
:100D60007A038E7F80937A031092EC011092EB014C
:100D70008CE593E09093EE018093ED01E0916F0399
:100D8000F0917003908180917103892B808362E3DD
:100D900071E08CE593E00E947D0363E471E08CE5F3
:100DA00093E00E947D036CE571E08CE593E00E9486
:100DB0007D0384EFC82EDD24D394E12CF12C0FEEBB
:100DC00011E0D0E80E945702672B682B692B41F491
:100DD0000E945702623071058105910508F405C132
:100DE0000E9457026093730270937402809375029D
:100DF0009093760280906F0290907002A0907102A2
:100E0000B0907202681579058A059B0540F46093DD
:100E10006F027093700280937102909372028090BF
:100E20006F0290907002A0907102B09072029B01CC
:100E3000AC01281939094A095B0949015A013AEFFD
:100E400083169104A104B10408F4CFC060936F022B
:100E5000709370028093710290937202C092220389
:100E6000D0922303E0922403F092250310922603EC
:100E700010922703109228031092290380911A03DD
:100E800090911B03A0911C03B0911D0380931E033E
:100E900090931F03A0932003B09321030E94570255
:100EA00060931A0370931B0380931C0390931D039C
:100EB0000E945702609316037093170380931803E0
:100EC000909319030E9457024B015C016EE871E098
:100ED00080915603909157030E941F032AE041E03E
:100EE00050E060E070E080915603909157030E94BB
:100EF000340365E971E080915603909157030E9495
:100F00001F032AE0B501A401809156039091570375
:100F10000E94340367E971E0809156039091570372
:100F20000E941F0380911A0390911B03A0911C0340
:100F3000B0911D03B501A401481B590B6A0B7B0B33
:100F40002AE080915603909157030E94340367E989
:100F500071E080915603909157030E941F034091C6
:100F60001A0350911B0360911C0370911D03809123
:100F70001E0390911F03A0912003B0912103481BF1
:100F8000590B6A0B7B0B2AE0809156039091570313
:100F90000E94340369E971E08091560390915703F0
:100FA0000E941F030E945702AB01BC012AE08091FE
:100FB0005603909157030E9434036BE971E08091CE
:100FC0005603909157030E947D0365E070E080E036
:100FD00090E00E941D020E94570260931A037093D2
:100FE0001B0380931C0390931D03F8012D2F119276
:100FF0002A95E9F7C0E08CE593E00E946302019630
:10100000D1F38CE593E00E94E802EC2FF0E0E1518F
:10101000FE4F8083CC2329F0843219F48093EF01B2
:10102000C0E08091EF01843231F781E08C0FEC2F2A
:10103000F0E0E151FE4F90819A3011F0C82FDBCFE4
:1010400090E0FC01E351FE4F10825C0145E0A41AE0
:10105000B108F501E151FE4F20812A3259F640E1F5
:1010600050E060E070E085519E4F0E948C0821E0C6
:10107000822F90E08A159B053CF4FC01E151FE4F64
:10108000808168272F5FF4CF6111B4CF6FEE71E0DC
:1010900087E792E00E947D030E94A20193CE84E143
:1010A00091E090935D0380935C038CE593E00C9456
:1010B000090397FB072E16F4009407D077FD09D09B
:1010C0000E946D0807FC05D03EF4909581959F4FD6
:1010D0000895709561957F4F0895AA1BBB1B51E140
:1010E00007C0AA1FBB1FA617B70710F0A61BB70B98
:1010F000881F991F5A95A9F780959095BC01CD013D
:101100000895EE0FFF1F0590F491E02D099481E002
:1011100090E0F8940C942C0AA0E0B0E0E2E9F8E04A
:101120000C94E6095C016B017A016115710519F0F7
:10113000FB0191838083E114F10429F0C701029738
:10114000839708F0F1C0E5012196F5011081812F08
:1011500090E00E949D09892B11F05E01F4CF1D32B1
:1011600029F42196F501118101E007C01B3221F419
:10117000E5012296F501118100E0E114F10459F135
:10118000F0E1EF16F10461F41033E1F488818F7D12
:10119000883569F519812296026070E1E72EF12CFD
:1011A00088E0E816F10439F12CF4F2E0EF16F104CE
:1011B000C9F12AC08AE0E816F10479F0E0E1EE1600
:1011C000F10411F550E1E52EF12C812C912CA12C8C
:1011D00068E0B62E2CC01033C9F23AE0E32EF12CB1
:1011E0004CEC842E982CA82C4CE0B42E20C010E39C
:1011F000E114F104A9F698E0E92EF12C812C912C50
:10120000A12C20E1B22E13C060E070E080E090E8F5
:1012100097010F2C000C440B550B0E94B909490192
:101220005A0105C0812C912CA12C80E4B82E60E0DD
:1012300020E030E0A90127010F2C000C6608770898
:101240001E01E0EDE10FEA3060F08FEB810F8A3193
:1012500010F4E9EC05C08FE9810F8A3128F5E9EA3D
:10126000E10F8E2F90E08E159F05F4F467FD18C0F6
:1012700082169306A406B50690F0C301B2010E943F
:10128000A9099B01AC012E0F311D411D511D2130BB
:1012900031054105F0E85F0710F461E001C06FEF30
:1012A0002196F1011081CCCF802F8170C114D1041F
:1012B00071F0662329F02197F601D183C08307C01E
:1012C00001FF19C02297F601D183C08314C067FFC4
:1012D00012C0811105C02FEF3FEF4FEF5FE704C051
:1012E00020E030E040E050E882E290E090937C0320
:1012F00080937B0316C0882341F05095409530952C
:1013000021953F4F4F4F5F4F0CC057FF0AC082E2FD
:1013100090E090937C0380937B032FEF3FEF4FEFA0
:101320005FE7B901CA0104C060E070E080E090E0CE
:10133000CDB7DEB7E2E10C94020A91110C94A60934
:10134000803219F089508550C8F708959927882769
:101350000895DB018F939F930E94DB09BF91AF91AA
:10136000A29F800D911DA39F900DB29F900D1124FF
:101370000895A1E21A2EAA1BBB1BFD010DC0AA1FD6
:10138000BB1FEE1FFF1FA217B307E407F50720F0EE
:10139000A21BB30BE40BF50B661F771F881F991F69
:1013A0001A9469F760957095809590959B01AC01B2
:1013B000BD01CF0108950E941D0AA59F900DB49F05
:1013C000900DA49F800D911D112408952F923F929E
:1013D0004F925F926F927F928F929F92AF92BF9245
:1013E000CF92DF92EF92FF920F931F93CF93DF93F1
:1013F000CDB7DEB7CA1BDB0B0FB6F894DEBF0FBE4E
:10140000CDBF09942A88398848885F846E847D849A
:101410008C849B84AA84B984C884DF80EE80FD809C
:101420000C811B81AA81B981CE0FD11D0FB6F89412
:10143000DEBF0FBECDBFED010895A29FB001B39FE7
:10144000C001A39F700D811D1124911DB29F700DCD
:10145000811D1124911D089510E0C2E6D0E004C062
:10146000FE010E9481082196C336D107C9F7F8947E
:02147000FFCFAC
:10147200000000003901B5000201E000F400800123
:10148200000000007C02B500D002E80263027B0289
:10149200564D4450565F317C315F564D4450560D87
:1014A2000A0024504D544B3232302C313030302A25
:1014B20031460024504D544B3330302C31303030D3
:1014C2002C302C302C302C302A31430024504D54F7
:1014D2004B3331342C302C312C302C302C302C30FE
:1014E2002C302C302C302C302C302C302C302C301A
:1014F2002C302C302C302C302C302A323900564DE6
:101502004450455F003A323A007C005F564D4450E9
:02151200450092
:107E0000112484B714BE81FFF0D085E080938100F7
:107E100082E08093C00088E18093C10086E0809377
:107E2000C20080E18093C4008EE0C9D0259A86E02C
:107E300020E33CEF91E0309385002093840096BBD3
:107E4000B09BFECF1D9AA8958150A9F7CC24DD24C4
:107E500088248394B5E0AB2EA1E19A2EF3E0BF2EE7
:107E6000A2D0813461F49FD0082FAFD0023811F036
:107E7000013811F484E001C083E08DD089C08234E0
:107E800011F484E103C0853419F485E0A6D080C0E4
:107E9000853579F488D0E82EFF2485D0082F10E0AE
:107EA000102F00270E291F29000F111F8ED06801E7
:107EB0006FC0863521F484E090D080E0DECF843638
:107EC00009F040C070D06FD0082F6DD080E0C81688
:107ED00080E7D80618F4F601B7BEE895C0E0D1E017
:107EE00062D089930C17E1F7F0E0CF16F0E7DF06D8
:107EF00018F0F601B7BEE89568D007B600FCFDCFD4
:107F0000A601A0E0B1E02C9130E011968C91119780
:107F100090E0982F8827822B932B1296FA010C0160
:107F200087BEE89511244E5F5F4FF1E0A038BF0790
:107F300051F7F601A7BEE89507B600FCFDCF97BE46
:107F4000E89526C08437B1F42ED02DD0F82E2BD052
:107F50003CD0F601EF2C8F010F5F1F4F84911BD097
:107F6000EA94F801C1F70894C11CD11CFA94CF0C13
:107F7000D11C0EC0853739F428D08EE10CD085E9AC
:107F80000AD08FE07ACF813511F488E018D01DD067
:107F900080E101D065CF982F8091C00085FFFCCF94
:107FA0009093C60008958091C00087FFFCCF809118
:107FB000C00084FD01C0A8958091C6000895E0E648
:107FC000F0E098E1908380830895EDDF803219F02E
:107FD00088E0F5DFFFCF84E1DECF1F93182FE3DFCA
:107FE0001150E9F7F2DF1F91089580E0E8DFEE27F6
:047FF000FF270994CA
:027FFE00040479
:0400000300007E007B
:00000001FF