:100000000C9465000C948D000C948D000C948D0064
:100010000C948D000C948D000C948D000C948D002C
:100020000C948D000C948D000C948D000C948D001C
:100030000C948D000C948D000C948D000C948D000C
:100040000C947C010C948D000C94AC0E0C94860ED8
:100050000C948D000C948D000C948D000C948D00EC
:100060000C948D000C948D007C3C3E5E2B3D3F2F0C
:100070005B5D3B2C2A225C000000000800020100AE
:100080000003040700000000000000000000000062
:10009000250028002B0000000000240027002A0073
:1000A000040404040404040402020202020203031E
:1000B0000303030301020408102040800102040826
:1000C0001020010204081020B31411241FBECFEF2A
:1000D000D8E0DEBFCDBF11E0A0E0B1E0EAE8FDE28C
:1000E00002C005900D92A63AB107D9F725E0A6EA1D
:1000F000B1E001C01D92A434B207E1F710E0C5E6FB
:10010000D0E004C02197FE010E944A15C436D107F1
:10011000C9F70E9451110C94C3160C940000FC0105
:10012000918D228D892F90E0805C9F4F821B9109D9
:100130008F739927089580E090E0892B29F00E9421
:10014000130E81110C9400000895DC015996ED9175
:10015000FC915A973097B9F083899489A589B6891B
:100160004285538564857585841B950BA60BB70B5B
:10017000811520E89207A105B10538F08FEF9FE7C0
:10018000A0E0B0E0089580E090E00895CF93DF9381
:100190001F92CDB7DEB76983DC01ED91FC9102803F
:1001A000F381E02D41E050E0BE016F5F7F4F099584
:1001B0000F90DF91CF9108950E948C16FC01848DE1
:1001C000DF01A80FB11DA35ABF4F2C91848D90E081
:1001D00001968F739927848FA689B7892C93A0895C
:1001E000B1898C9180648C93938D848D981306C013
:1001F0000288F389E02D80818F7D8083089590E0CF
:10020000FC01E858FF4F3491FC01EC54FF4F24915E
:10021000FC01E056FF4FE491EE2309F43BC0332389
:1002200039F1333091F038F43130A9F0323001F542
:1002300084B58F7D12C0373091F03830A1F0343062
:10024000B9F4809180008F7D03C0809180008F770A
:10025000809380000DC084B58F7784BD09C08091E4
:10026000B0008F7703C08091B0008F7D8093B00085
:10027000F0E0EE0FFF1FE457FF4FA591B4918FB749
:10028000F894EC91611103C020952E2301C02E2B10
:100290002C938FBF08953FB7F8948091B20190914D
:1002A000B301A091B401B091B50126B5A89B05C0DA
:1002B0002F3F19F00196A11DB11D3FBFBA2FA92FE5
:1002C000982F8827820F911DA11DB11DBC01CD0162
:1002D00042E0660F771F881F991F4A95D1F708954E
:1002E0002FB7F8946091AE017091AF018091B00189
:1002F0009091B1012FBF08951F920F920FB60F92E8
:1003000011242F933F938F939F93AF93BF9380912B
:10031000AE019091AF01A091B001B091B1013091C7
:10032000AD0123E0230F2D3720F40196A11DB11D4F
:1003300005C026E8230F0296A11DB11D2093AD0133
:100340008093AE019093AF01A093B001B093B1013F
:100350008091B2019091B301A091B401B091B50127
:100360000196A11DB11D8093B2019093B301A0939A
:10037000B401B093B501BF91AF919F918F913F911F
:100380002F910F900FBE0F901F9018958FB7F89474
:100390008091A7018FBF089561E0FC0184810E94D4
:1003A000FF008091A60181111092A60108958EBDD3
:1003B00000000DB407FEFDCF8EB508958FEF0C94AD
:1003C000D7010F931F93CF93DF93EB010E9470012E
:1003D0008B010E94DE018F3F49F00E947001601B7B
:1003E000710B6C177D07A8F380E001C081E0DF91FD
:1003F000CF911F910F910895CF93DF93EC018E81E0
:10040000882389F08F8198859C012F5F3F4F388723
:100410002F838230924018F40E94DE01F3CFCE0188
:100420000E94CC011E82DF91CF9108958CBD9DBDAD
:100430000895CF93DF93EC018091A601811109C04B
:1004400081E08093A6018091DA049091DB040E9400
:10045000160260E08C81DF91CF910C94FF00CF9267
:10046000DF92FF920F931F93CF93DF9300D000D0C2
:10047000CDB7DEB76C01F62E29833A834B835C83BC
:100480000E94FC01C6010E9419026CE271E0C601E3
:100490000E94E1018F2D80640E94D70108E110E0E5
:1004A0005C814B813A812981DA01C901002E04C0A7
:1004B000B695A795979587950A94D2F729833A839D
:1004C0004B835C830E94D7010850110929813A812E
:1004D0004B815C81083F8FEF180731F7FF2029F02F
:1004E000E8E0FE1204C087E803C085E901C08FEF91
:1004F0000E94D70110E00E94DE01F601828787FF8B
:1005000004C01F3F11F01F5FF6CF0F900F900F90A8
:100510000F90DF91CF911F910F91FF90DF90CF90BF
:100520000895AF92BF92CF92DF92EF92FF920F9316
:100530001F93CF93DF93EC016901C801820F931FD2
:100540008130924008F070C08E81882371F08881DC
:100550009981AA81BB81481759076A077B0729F44B
:100560008F819885C816D906B0F5488359836A8368
:100570007B838B85833039F089E0440F551F661FDC
:10058000771F8A95D1F79A01AB0161E1CE010E94F4
:100590002F02882319F083E08D8346C00E947001EA
:1005A0005B010E94DE018A878F3F49F40E9470013F
:1005B0006A197B096D327140A0F38FE003C08E3F52
:1005C00031F08DE08D83CE010E94CC012DC01886C4
:1005D0001F8281E08E838F8198858C159D0540F464
:1005E0000E94DE018F819885019698878F83F3CFD3
:1005F0006701E00EF11ECE14DF0431F00E94DE012F
:10060000F60181936F01F7CF8F819885080F191F2D
:1006100018870F838985882319F00115124048F047
:10062000CE010E94FC0105C0CE010E94CC0180E0F9
:1006300001C081E0DF91CF911F910F91FF90EF906A
:10064000DF90CF90BF90AF900895EF92FF920F93FD
:100650001F93CF93DF93EC0179014115510561059B
:10066000710511F482E13CC08B85833039F089E05B
:10067000440F551F661F771F8A95D1F79A01AB016A
:1006800068E1CE010E942F02882311F084E028C087
:100690008EEF0E94D70187018EEFF81AF801819141
:1006A0008F010E94D7010E151F05C1F78FEF0E9421
:1006B000D7018FEF0E94D7010E94DE018A878F71D8
:1006C000853031F081E18D83CE010E94CC0109C0DB
:1006D00068E572E0CE010E94E101811107C085E169
:1006E0008D83CE010E94CC0180E013C020E030E079
:1006F000A9016DE0CE010E942F02811104C00E9469
:10070000DE01882311F084E1EBCFCE010E94CC0101
:1007100081E0DF91CF911F910F91FF90EF900895AD
:100720008091A8018823A9F1409100015091010115
:1007300060910201709103012BE332E080913B0450
:1007400090913C040E942503811102C080E008952D
:100750004091A9015091AA016091AB017091AC0147
:10076000411551056105710591F02BE332E080914F
:100770003B0490913C040E942503882339F3109296
:10078000A9011092AA011092AB011092AC01109233
:10079000A80181E008958F929F92AF92BF92EF924D
:1007A000FF920F931F93CF934B015C01C42F809155
:1007B000000190910101A0910201B09103018815FF
:1007C0009905AA05BB0501F10E949003811102C0A1
:1007D00080E020C08BE3E82E82E0F82E00E012E0FB
:1007E00020E030E0B501A40180913B0490913C04ED
:1007F0000E949102882361F380920001909201018E
:10080000A0920201B09203018091A801C82BC0936D
:10081000A80181E0CF911F910F91FF90EF90BF90C1
:10082000AF909F908F9008954F925F926F927F92BA
:100830008F929F92AF92BF92CF92DF92EF92FF92F0
:100840000F931F93CF93DF93EC016A017B01280183
:100850003901423051056105710510F480E073C023
:1008600089859A85AB85BC850196A11DB11D84172C
:100870009507A607B70790F38B889C88AD88BE883C
:100880008F89803129F4BB27AF2D9E2D8D2D09C076
:10089000DB01CA0147E0B695A795979587954A95DC
:1008A000D1F7880E991EAA1EBB1E8091000190915F
:1008B0000101A0910201B091030188169906AA06D0
:1008C000BB0679F48F898031A1F4DD24EE24FF2466
:1008D000C601880F991FFC01E55CFD4F51824082E3
:1008E00019C040E0C501B4010E94CB038111EACFD9
:1008F000B5CFE894C7F8DD24EE24FF24C601880FA5
:10090000991F880F991FFC01E55CFD4F40825182C1
:10091000628273828091A80181608093A8018A8994
:10092000823080F08D819E81AF81B885880E991EBE
:10093000AA1EBB1E8092A9019092AA01A092AB01AF
:10094000B092AC0181E0DF91CF911F910F91FF90A8
:10095000EF90DF90CF90BF90AF909F908F907F905F
:100960006F905F904F9008958F929F92AF92BF9239
:10097000CF92DF92EF92FF920F931F93CF93DF936B
:10098000FC0181859285A385B4850196A11DB11DC9
:1009900084179507A607B70710F480E05CC0838929
:1009A0009489A589B689C789C03129F4852E962EE8
:1009B000A72EBB2409C04A015B01C7E0B694A794E7
:1009C00097948794CA95D1F7E9016A017B018F0159
:1009D000BC01CD01680D791D8A1D9B1D8090000111
:1009E00090900101A0900201B09003016815790573
:1009F0008A059B0599F4F80187898031A9F4B7012C
:100A0000A601552766277727440F551FFA01E55C95
:100A1000FD4F80819181A0E0B0E018C040E00E94CD
:100A2000CB038111E8CFB9CFB701A6014F77552786
:100A300066277727440F551F440F551FFA01E55CC1
:100A4000FD4F80819181A281B381BF70888399839A
:100A5000AA83BB8381E0DF91CF911F910F91FF901B
:100A6000EF90DF90CF90BF90AF909F908F900895C0
:100A70004F925F926F927F92AF92BF92CF92DF922E
:100A8000EF92FF920F931F93CF93DF9300D000D08C
:100A9000CDB7DEB78C0149835A836B837C835901C0
:100AA000C12CD12C7601412C82E0582E612C712C66
:100AB00049815A816B817C819E012F5F3F4FC80124
:100AC0000E94B404882351F1D301C201F8010584C6
:100AD00004C0880F991FAA1FBB1F0A94D2F7C80E23
:100AE000D91EEA1EFB1E49815A816B817C81878950
:100AF000803129F088EF9FEFAFEFBFE004C088EFAF
:100B00009FEFA0E0B0E0481759076A077B0780F223
:100B1000F501C082D182E282F38281E00F900F90D2
:100B20000F900F90DF91CF911F910F91FF90EF9059
:100B3000DF90CF90BF90AF907F906F905F904F907D
:100B400008958F929F92AF92BF92CF92DF92EF92D1
:100B5000FF920F931F93CF93DF93EC018D8181114F
:100B600002C080E077C00B891C892D893E8904175B
:100B7000150726073707A8F36A017B01823029F49D
:100B8000CA86DB86EC86FD860DC0C114D104E10463
:100B9000F10451F41E821F82188619861A861B865C
:100BA0001C861D8681E056C08A849B84AC84BD84EB
:100BB000EB8DFC8D258530E0275F3F4FB501A4010B
:100BC0004150510961097109022E04C0769567955B
:100BD000579547950A94D2F7D701C6010197A10905
:100BE000B10904C0B695A795979587952A95D2F730
:100BF00084179507A607B70720F089288A288B282D
:100C000049F44F89588D698D7A8D4E835F8368874B
:100C1000798704C0841B950BA60BB70B4C015D01B3
:100C20008E010A5F1F4F81149104A104B10409F4DD
:100C3000A7CF4E815F816885798598018B8D9C8DCA
:100C40000E94B40491E0891A9108A108B1088111A9
:100C5000EACF87CFDF91CF911F910F91FF90EF9057
:100C6000DF90CF90BF90AF909F908F9008953F926C
:100C70004F925F926F927F928F929F92AF92BF92AC
:100C8000CF92DF92EF92FF920F931F93CF93DF9358
:100C9000CDB7DEB72C970FB6F894DEBF0FBECDBF31
:100CA0005C01DC015B968D909C905C971696CD90D4
:100CB000DD90ED90FC901997C114D104E104F1048A
:100CC00039F0BFEFCB1ADB0AEB0AFB0A312C07C065
:100CD000F401C080D180E280F38033243394F401A6
:100CE00081859285A385B4859C01AD012F5F3F4F1F
:100CF0004F4F5F4F29873A874B875C872601370123
:100D00001D821E821F821886F40181859285A3852B
:100D1000B4852D813E814F815885281739074A07B0
:100D20005B0708F063C089859A85AB85BC858C1507
:100D30009D05AE05BF0550F482E0C82ED12CE12CF4
:100D4000F12C92E0492E512C612C712C9E012F5FC9
:100D50003F4FB701A601C4010E94B404882309F4DF
:100D600045C089819A81AB81BC81892B8A2B8B2BD1
:100D700041F0260137019FEF491A590A690A790A99
:100D800005C0C414D504E604F70491F02D813E811A
:100D90004F8158852F5F3F4F4F4F5F4F2D833E83CD
:100DA0004F8358873FEFC31AD30AE30AF30AACCF45
:100DB0000FEF1FEF2FEF3FE0B301A201C4010E942C
:100DC0001404882399F0D50116964D915D916D918B
:100DD0007C911997411551056105710549F0930101
:100DE0008201C4010E941404811102C080E02AC063
:100DF000D50116964D925D926D927C921997332093
:100E000051F0D301C2010196A11DB11DF4018083EF
:100E10009183A283B383F5018789908DA18DB28DD3
:100E2000892B8A2B8B2B69F4D50157964D925D92B5
:100E30006D927C925A9714968C91149780681496B0
:100E40008C9381E02C960FB6F894DEBF0FBECDBF19
:100E5000DF91CF911F910F91FF90EF90DF90CF9096
:100E6000BF90AF909F908F907F906F905F904F90CA
:100E70003F9008952F923F924F925F926F927F9290
:100E80008F929F92AF92BF92CF92DF92EF92FF929A
:100E90000F931F93CF93DF93EC016B014A018D8178
:100EA000811103C08FEF9FEFD7C08C8180FFFACFF5
:100EB0004B885C886D887E884A855B856C857D85DE
:100EC000C401A0E0B0E093018201041B150B260BC6
:100ED000370B081719072A073B0718F44201841A31
:100EE000950A54011E0126E0220E311CA114B10402
:100EF00009F47EC04A855B856C857D852A0181E089
:100F00005822ED818A019B0189E036952795179536
:100F100007958A95D1F78B8D9C8DE23061F4FC01A9
:100F2000828D938DA48DB58DBC01CD01600F711F95
:100F3000821F931F3FC0FC0174807A947022411479
:100F40005104C9F4711017C0452B462B472B49F4A7
:100F50008F89988DA98DBA8D8E839F83A887B98735
:100F60000AC04E815F816885798591010E94B40431
:100F7000882309F497CFEB8DFC8D8E819F81A88506
:100F8000B9850297A109B109058404C0880F991F8A
:100F9000AA1FBB1F0A94D2F74685578560897189BD
:100FA000840F951FA61FB71FBC01CD01670D711DD2
:100FB000811D911D20E032E02419350935012A15E3
:100FC0003B0508F439012C8126FD04C06114F2E0D0
:100FD0007F0681F40091000110910101209102012E
:100FE000309103016017710782079307B1F402C0C3
:100FF000C40132C040E00E94CB03882309F452CFE1
:10100000F201E55CFD4FD601CF01860D971DE81773
:10101000F90789F021912D93FACF7601830192018E
:10102000AB01BC0180913B0490913C040E94910271
:10103000882309F437CFC60CD71C8A859B85AC85DD
:10104000BD85860D971DA11DB11D8A879B87AC8725
:10105000BD87A618B7084ACFDF91CF911F910F9196
:10106000FF90EF90DF90CF90BF90AF909F908F90C8
:101070007F906F905F904F903F902F900895CF9307
:10108000DF931F92CDB7DEB741E050E0BE016F5F46
:101090007F4F0E943A07019719F4898190E002C0BE
:1010A0008FEF9FEF0F90DF91CF910895FC01818D1D
:1010B000928D009711F00C943F088FEF9FEF0895E9
:1010C0000F931F93CF93DF93FC01818D928D009737
:1010D000B9F0EF010E943F088C010F3F8FEF180716
:1010E00091F0898D9A8DFC014285538564857585C3
:1010F00041505109610971090E94A105C80105C04B
:1011000080E090E002C08FEF9FEFDF91CF911F91C1
:101110000F910895CF93DF93EC018D818823A1F186
:101120008C8187FF2DC06E857F858889998941E0F4
:101130000E94CB03882341F1EA8980E2E89FF00115
:101140001124DF01A55CBD4F1097F1F08D81823035
:1011500050F44B895C896D897E895C964D935D93D3
:101160006D937C935F978F89988DA98DBA8DE55C7F
:10117000FD4F938F828FB58BA48B8C818F778C835F
:10118000DF91CF910C94900380E0DF91CF9108958F
:101190008F929F92AF92BF92CF92DF92EF92FF9287
:1011A0000F931F93CF93DF9300D000D0CDB7DEB75E
:1011B0007C0180E2689F600111249601255C3D4F0F
:1011C000D9011B969C91917121F0842F827409F0B2
:1011D00097C0142FF701628B80910001909101015B
:1011E000A0910201B091030186879787A08BB18BF4
:1011F000F601E55CFD4F4489558960E070E0BA0175
:1012000055274427D70157964D935D936D937C9353
:101210005A97828D938DA0E0B0E0482B592B6A2B12
:101220007B2BD70157964D935D936D937C935A9783
:10123000D9011B968C91887159F4848D958DA68D5A
:10124000B78DF701838B948BA58BB68B81E012C091
:10125000803109F055C097012D5E3F4FD7015B9655
:101260008D919C915C970E943805882309F448C0B1
:1012700084E0F7018583812F8F70D70114968C93BA
:101280001497F70116821782108611861A961D92FE
:101290001D921D921C921D9716FF34C015968C91BD
:1012A000813071F511FF2CC0F7014389548965899C
:1012B0007689452B462B472B09F461C040E050E06E
:1012C000BA01C7010E94A1058823D1F0F7018788E0
:1012D000908CA18CB28CC38CD48C82E090E0A0E086
:1012E000B0E0F60180839183A283B3839E012F5FD8
:1012F0003F4FB501A401C6010E94B404811104C08E
:1013000080E03DC081E03BC000E010E09801B50105
:10131000A401C6010E941404882391F389809A8055
:10132000AB80BC80D60157968C91803129F088EF34
:101330009FEFAFEFBFE004C088EF9FEFA0E0B0E009
:1013400088169906AA06BB0688F2D70157961D9201
:101350001D921D921C925A97F701138A148A158ABE
:10136000168A848180688483C7010E948A08882342
:1013700039F240E050E0BA01C7010E94A1050F9088
:101380000F900F900F90DF91CF911F910F91FF90D1
:10139000EF90DF90CF90BF90AF909F908F90089587
:1013A0004F925F926F927F92AF92BF92CF92DF92F5
:1013B000EF92FF920F931F93CF93DF93CDB7DEB7DA
:1013C0002B970FB6F894DEBF0FBECDBF7C01CE01C8
:1013D00001966C01FC0190E28BE08C0D91938E13D1
:1013E000FDCFDA0130E047E09D91992339F19E323B
:1013F00019F0E8E6F0E00AC04A3009F472C138E0BA
:101400004AE0F2CF3196891709F46BC184918111BA
:10141000F9CF431708F465C18FED890F8E3508F0B9
:1014200060C181E0830FF601E30FF11D3FE9390F41
:101430003A3108F490529083382FD6CF8981803288
:1014400009F44FC1B22E8B01DB015B968D919C910B
:101450005C97F701948F838F16961D921D921D92B3
:101460001C921997FB011286138614861586712C1F
:10147000F80182859385A485B5854389548965895A
:10148000768984179507A607B70708F061C025E09D
:10149000B695A795979587952A95D1F7F82FFF7060
:1014A0006F2ED80115968C91823008F41AC1C801AC
:1014B0000E943F0897FD15C1F80182859385A48598
:1014C000B5854F96A11DB11D82879387A487B587E7
:1014D000F0E26F9EC0011124BC01655C7D4F611577
:1014E000710509F4FEC0DB012C91222319F0253E81
:1014F000C1F427C071100EC0F701628A409100014B
:101500005091010160910201709103014687578754
:10151000608B718BFC01E55CFD4F8081811113C0F4
:1015200015C04BE050E0C6010E949116892B09F0CE
:101530009FCF8B2D8073803309F4D3C04B2D662D44
:10154000CCC07720C9F27724739492CF7724739418
:101550008B2D8271823109F0C4C07720D1F0D70180
:101560001E966D917D918D919C91519741E00E94C5
:10157000CB03882309F4B5C0F7016289F0E26F9FBD
:10158000B0011124655C7D4F6115710509F079C0CA
:10159000A8C0D80115968C91823009F4A2C0C80168
:1015A0000E943706882309F49CC0D8015B96ED9110
:1015B000FC915C9716964D905D906D907C9019977C
:1015C000B2E04B1A510861087108058404C0440C4C
:1015D000551C661C771C0A94D2F786859785A089CE
:1015E000B189480E591E6A1E7B1EA480E1E04E1A86
:1015F000510861087108AA2009F10E94900388230C
:1016000009F46FC0EBE3F2E0119224E0EB33F20750
:10161000D9F7D301C2018A0D911DA11DB11D80937F
:10162000000190930101A0930201B0930301809106
:10163000A80181608093A801AA94DDCFD8015B96B0
:10164000ED91FC915C9780E092E0A0E0B0E0058431
:1016500004C0880F991FAA1FBB1F0A94D2F7F80174
:101660004389548965897689840F951FA61FB71F02
:10167000838B948BA58BB68BD70152961C926BE310
:1016800072E080E2FB0111928A95E9F78BE0F601A6
:10169000DB0101900D928A95E1F781E298E2DB018E
:1016A00051969C938E93509720E038E01F963C9380
:1016B0002E931E9753969C938E93529759969C9374
:1016C0008E93589757963C932E9356970E9490036B
:1016D000882339F04B2DF7016289C7010E94C808A1
:1016E00001C080E02B960FB6F894DEBF0FBECDBFD1
:1016F000DF91CF911F910F91FF90EF90DF90CF90EE
:10170000BF90AF907F906F905F904F900895CF9370
:10171000DF93EC010E948A08882311F01D8281E08A
:10172000DF91CF910895FC01818D928D009711F08A
:101730000C948A0808952F923F924F925F926F9275
:101740007F928F929F92AF92BF92CF92DF92EF9251
:10175000FF920F931F93CF93DF9300D000D0CDB7AC
:10176000DEB78C015B011A01DC0115968C9115978F
:101770008130C9F414968C9181FF15C082FF1BC083
:10178000F801438954896589768982859385A48582
:10179000B58584179507A607B70769F0C8010E94A9
:1017A000A105811108C081E090E0F8019383828354
:1017B00080E090E039C1610183C0D8015B968D91D2
:1017C0009C915C97FC01248121502A013B0139E066
:1017D00076946794579447943A95D1F7722E742073
:1017E0007A01F1E0FF22772009F476C080E092E0F0
:1017F0008E199F0946018C159D0508F44C01D801EE
:101800005B962D913C915C9716968D919D910D90D4
:10181000BC91A02D0297A109B109F901058404C06A
:10182000880F991FAA1FBB1F0A94D2F746855785B8
:1018300060897189840F951FA61FB71F9C01AD0198
:10184000270D311D411D511D29013A01811432E03E
:10185000930609F088C08091000190910101A09148
:101860000201B091030184159505A605B70559F449
:101870008FEF9FEFDC018093000190930101A09313
:101880000201B09303019501B301A20180913B04D1
:1018900090913C040E942503882309F484CF9EEF95
:1018A000B91AC818D908F80182859385A485B58529
:1018B000880D991DA11DB11D82879387A487B587C7
:1018C000D8011A964D915D916D917C911D97C1142F
:1018D000D10409F072CF87C0E114F10409F086CF7A
:1018E00016964D915D916D917C9119974115510519
:1018F0006105710559F457968D919D910D90BC919C
:10190000A02D0097A105B10541F521C09E012F5FD3
:101910003F4F0E94B404882309F44BCF89819A81F8
:10192000AB81BC81F801238D348DF90127892031E9
:1019300029F048EF5FEF6FEF7FE004C048EF5FEF03
:1019400060E070E084179507A607B70730F0C8017C
:101950000E94370681114ACF26CFF80186839783EC
:10196000A087B18743CFE114F10429F5D8011A9675
:101970004D915D916D917C911D9753968D919D91A7
:101980000D90BC91A02D481759076A077B0798F066
:101990000E949003882309F406CF409200015092E0
:1019A000010160920201709203018091A80181609F
:1019B0008093A80108C041E0C301B2010E94CB039B
:1019C000882309F4F0CED501F701E55CFD4FCF0186
:1019D000880D991DE817F90719F02D912193FACF79
:1019E000A80CB91C5ECF53968D919D910D90BC9122
:1019F000A02D84179507A607B70740F4F801438B7D
:101A0000548B658B768B848180688483D80114968F
:101A10008C9183FD02C0C10107C0C8010E948A08E1
:101A2000882309F4C0CEF7CF0F900F900F900F903E
:101A3000DF91CF911F910F91FF90EF90DF90CF90AA
:101A4000BF90AF909F908F907F906F905F904F90DE
:101A50003F902F900895CF93DF931F92CDB7DEB7BD
:101A6000698341E050E0BE016F5F7F4F0E949B0B96
:101A70000F90DF91CF910895CF93DF93EC01898D83
:101A80009A8D009739F481E090E09B838A8380E00F
:101A900090E00BC0FC01138212820E949B0BE98D27
:101AA000FA8D22813381232B71F7DF91CF91089535
:101AB000FC01DB0112968D919C9113979383828395
:101AC0008EE391E09183808314968C9114978483A4
:101AD00015968C911597858316964D915D916D9114
:101AE0007C91199746835783608771871A964D9129
:101AF0005D916D917C911D974287538764877587AF
:101B00001E964D915D916D917C91519746875787B7
:101B1000608B718B52968C915297828B53964D911C
:101B20005D916D917C915697438B548B658B768B31
:101B300057964D915D916D917C915A97478B508F3F
:101B4000618F728F5B968D919C915C97948F838F40
:101B50000895FC011382128288EE93E0A0E0B0E0C9
:101B600084839583A683B7838EE091E091838083FD
:101B7000128E118E14860895EF92FF920F931F9389
:101B8000CF93DF93EC017B018A011B821A8288EEDE
:101B900093E0A0E0B0E08C839D83AE83BF838EE0B2
:101BA00091E0998388838DE190E00E945F159A8F80
:101BB000898F009779F02DE1F701DC0101900D92FA
:101BC0002A95E1F74CE050E0B801CE010C960E9456
:101BD000B416188EDF91CF911F910F91FF90EF9067
:101BE0000895FC01918D828D981761F0828DDF013F
:101BF000A80FB11D5D968C91928D9F5F9F73928F00
:101C000090E008958FEF9FEF0895FC01918D828DF4
:101C1000981731F0828DE80FF11D858D90E00895C1
:101C20008FEF9FEF08958DE394E00E948F0021E0F5
:101C3000892B09F420E0822F0895EF92FF920F93F1
:101C40001F93CF93DF93EC0181E0888F9B8D8C8D68
:101C5000981305C0E889F989808185FD24C0F62E96
:101C60000B8D10E00F5F1F4F0F731127E02E8C8D2F
:101C7000E8120CC00FB607FCFACFE889F989808119
:101C800085FFF5CFCE010E94DE00F1CF8B8DFE01E6
:101C9000E80FF11DE35AFF4FF0820B8FEA89FB89B1
:101CA0008081806207C0EE89FF896083E889F989B5
:101CB00080818064808381E090E0DF91CF911F91EB
:101CC0000F91FF90EF900895CF93DF93EC01888DF3
:101CD0008823C9F0EA89FB89808185FD05C0A88930
:101CE000B9898C9186FD0FC00FB607FCF5CF8081B6
:101CF00085FFF2CFA889B9898C9185FFEDCFCE0100
:101D00000E94DE00E7CFDF91CF9108951F920F92DE
:101D10000FB60F9211242F933F934F935F936F93BE
:101D20007F938F939F93AF93BF93EF93FF938DE335
:101D300094E00E94DE00FF91EF91BF91AF919F91DF
:101D40008F917F916F915F914F913F912F910F9064
:101D50000FBE0F901F9018951F920F920FB60F9203
:101D600011242F938F939F93EF93FF93E0914D0452
:101D7000F0914E048081E0915304F091540482FD6F
:101D800012C09081809156048F5F8F732091570409
:101D9000821751F0E0915604F0E0E35CFB4F958F21
:101DA0008093560401C08081FF91EF919F918F91A4
:101DB0002F910F900FBE0F901F901895CF92DF922A
:101DC000EF92FF920F931F93CF93DF936C017A01F1
:101DD0008B01C0E0D0E0CE15DF0589F0D8016D9110
:101DE0008D01D601ED91FC910190F081E02DC601AD
:101DF0000995892B11F47E0102C02196ECCFC70111
:101E0000DF91CF911F910F91FF90EF90DF90CF90D6
:101E100008952F923F924F925F926F927F928F928E
:101E20009F92AF92BF92CF92DF92EF92FF920F9369
:101E30001F93CF93DF93CDB7DEB7C756D1090FB647
:101E4000F894DEBF0FBECDBF3C015B01A6964FAF3D
:101E5000A6974E018EE1880E911C66E075E0C401E4
:101E60000E94580D1C821B828EE391E09A83898325
:101E70001E8265018E010F5F1F4F240118016FE262
:101E800070E0C6010E94A916009709F442C0F6014D
:101E900020812F3221F4FFEFCF1ADF0AF0CF8C1907
:101EA0008D3008F08CE0E82EF12CA701B601CE01B0
:101EB000885A9F4F0E94B416E8E5F0E0EC0FFD1F32
:101EC000EE0DFF1D1082C8010E94870BF80185816D
:101ED000882351F01EAE1DAE8EE391E09CAF8BAF18
:101EE00021961FAE219721C021E0AE01485A5F4FD5
:101EF000B201C8010E94D009882361F3CE0CDF1C17
:101F0000C2010E94870B942D852D2801092F182FBF
:101F1000B6CFC6018A199B09A8969FAF8EAFA89726
:101F2000B201CE01CB960E94580DA896EEADFFAD42
:101F3000A897AE0EBF1EF5018081811109C0BE01B8
:101F4000655C7F4FC1010E94580D4AE451E03CC0DE
:101F500019A218A28EE391E09F8F8E8F1BA221966B
:101F60008FAD2197811104C0C3010E94A90D30C01B
:101F70008250A6962FADA697A501823040F466E068
:101F800075E0C4010E94D00981110DC0EDCFBE01E2
:101F9000655C7F4FC4010E94D009882329F3CE01DC
:101FA000CB960E94870BA6968FADA697867039F0C8
:101FB00049A95AA96BA97CA9C4010E94A105B40131
:101FC000C1010E94580DA501B101C3010E94BC0DC1
:101FD000C301C959DF4F0FB6F894DEBF0FBECDBFA6
:101FE000DF91CF911F910F91FF90EF90DF90CF90F5
:101FF000BF90AF909F908F907F906F905F904F9029
:102000003F902F9008958F929F92AF92BF92CF9260
:10201000DF92EF92FF92CF93DF93C82F8CED94E085
:1020200090933C0480933B04CC2369F1C53010F0BD
:1020300080E00DC140E060E070E0CB010E94CB0386
:102040008823B1F320E1C29FC0011124855D9D4F1B
:10205000FC01E254FE4F20812F7751F73C964081DE
:10206000518162817381443651056105710500F328
:102070003497C080D180E280F380C114D104E104A0
:10208000F10421F4D5CFC12CD12C760140E0C70159
:10209000B6010E94CB03882359F2809146029091A9
:1020A00047028115924021F6A0914B02AA2309F420
:1020B000BFCF6091490270914A026115710509F420
:1020C000B7CF20914802222309F4B2CFA093FA049B
:1020D0002093EC0480E030E0E1E0F0E0C82FAF01B5
:1020E000082E02C0440F551F0A94E2F72417350743
:1020F00041F0982F8F5F983089F789E08093F5043D
:1021000097CF8093F504209151023091520221150E
:10211000310519F040E050E008C020915F02309195
:10212000600240916102509162022093ED0430936D
:10213000EE044093EF045093F00446015701860EDD
:10214000971EA11CB11C8092FB049092FC04A092EB
:10215000FD04B092FE04E0914C02F0914D02F09328
:102160000105E0930005B0E00E943F15860E971E22
:10217000A81EB91E8092020590920305A092040544
:10218000B092050585E0EE0FFF1F8A95E1F7E1505B
:10219000FE4FEF2FFF27E6958E0E9F1EA11CB11C50
:1021A0008092F6049092F704A092F804B092F90499
:1021B00020914E0230914F022115310521F0A901E5
:1021C00060E070E008C040915B0250915C02609159
:1021D0005D0270915E02D701C60188199909AA09AA
:1021E000BB09840F951FA61FB71F04C0B695A795FE
:1021F00097958795CA95D2F78093F1049093F2044E
:10220000A093F304B093F404853F2FE09207A10557
:10221000B10510F48CE018C0853F9F4FA105B105B2
:1022200010F480E111C08091670290916802A09142
:102230006902B0916A028093020590930305A0930E
:102240000405B093050580E28093FF0481E0DF91EF
:10225000CF91FF90EF90DF90CF90BF90AF909F9085
:102260008F90089590E0FC01EC54FF4F2491FC0105
:10227000E056FF4F8491882399F090E0880F991FD2
:10228000FC01EA56FF4FA591B491FC01E457FF4FC2
:10229000859194918FB7F894EC91E22BEC938FBFDA
:1022A0000895CF93DF93CDB7DEB7CD59D1090FB6DF
:1022B000F894DEBF0FBECDBF789484B5826084BD34
:1022C00084B5816084BD85B5826085BD85B581603A
:1022D00085BD80916E00816080936E0010928100B8
:1022E0008091810082608093810080918100816073
:1022F0008093810080918000816080938000809134
:10230000B10084608093B1008091B00081608093BF
:10231000B00080917A00846080937A0080917A0086
:10232000826080937A0080917A00816080937A0045
:1023300080917A00806880937A001092C100E091C9
:102340004D04F0914E0482E08083E0914904F091C5
:102350004A041082E0914B04F0914C0480E18083A8
:1023600010925504E0915104F091520486E080836C
:10237000E0914F04F0915004808180618083E0916E
:102380004F04F0915004808188608083E0914F0475
:10239000F0915004808180688083E0914F04F09137
:1023A000500480818F7D80831092E7041092E504B1
:1023B0001092E2041092E1041092E0040E94700175
:1023C0008B018091E0040E94321161E08091E00471
:1023D0000E94FF00FFB6F8948091B601811124C0DD
:1023E000EAEAF0E08491EEEBF0E09491E82FF0E07F
:1023F000EE0FFF1FEA56FF4FA591B491EC91E92330
:1024000021F461E08AE00E94FF008AE00E9432111C
:102410008CB580618CBD8CB580648CBD8DE00E94D4
:1024200032118BE00E9432118091B6018F5F809350
:10243000B601FFBE82E58093DA041092DB0480913E
:10244000DA049091DB040E9416025AE0F52E8FEF19
:102450000E94D701FA94F110FACF8CED94E00E941B
:10246000190220E030E0A90160E08CED94E00E94C8
:102470002F02F82E8093E60481E0F81649F00E94BE
:102480007001601B710B613D774058F381E056C0CD
:102490002AEA31E040E050E068E08CED94E00E94F0
:1024A0002F0282FF03C0F092E70410C044E0F42E34
:1024B0000E94DE018093E604FA94F110F9CF8A3A83
:1024C00011F082E03BC082E08093E7048091E70452
:1024D000823021F0C12CD12C760105C0C12CD12C29
:1024E000E12C30E4F32E20E030E0A90167E38CED2D
:1024F00094E00E942F02A701960169E28CED94E01E
:102500000E942F028093E604882349F00E94700104
:10251000601B710B613D774030F388E00FC0809104
:10252000E704823001F520E030E0A9016AE38CED98
:1025300094E00E942F02882341F086E08093E1041A
:102540008CED94E00E94CC018DC00E94DE01807C65
:10255000803C19F483E08093E7040E94DE010E942E
:10256000DE010E94DE018CED94E00E94CC0180E54A
:102570008093DA041092DB0481E00E940310882328
:1025800029F080910B05882341F06CC080E00E9407
:102590000310882309F466C0F4CF8091FF048031D2
:1025A00009F582E080930B0510921D0510921E051F
:1025B00010921F0510922005809100059091010551
:1025C000A0E0B0E025E0880F991FAA1FBB1F2A9545
:1025D000D1F78093190590931A05A0931B05B0932A
:1025E0001C051DC08032F1F583E080930B054091FE
:1025F0000205509103056091040570910505409313
:102600001D0550931E0560931F057093200529E159
:1026100035E088EE94E00E943805882319F188EEB1
:1026200094E0909322058093210581E080930A0530
:1026300010920C0510920D0510920E0510920F05C8
:1026400010921005109211051092120510921305A8
:102650001092140510921505109216051092170588
:102660001092180541E06AE471E0CE018A589F4F4C
:102670000E94090F11E09EE3C92E91E0D92E0EE2CF
:10268000C157DF4FE880F980CF58D040E114F10402
:1026900009F494C0F7018581882309F48FC0823042
:1026A00008F473C0F70182859385A485B5858F7181
:1026B0009927AA27BB27892B8A2B8B2B09F065C06A
:1026C00040E250E0BE016F5F7F4FC7010E943A07B2
:1026D000803209F05AC08981882309F456C0853EAA
:1026E00079F38E3269F38C8583FDEACF22961FAE93
:1026F0001EAE2297DFAECEAE24961FAE2497FE010B
:10270000319690E080E02191203291F0883041F4C0
:10271000A1E9B0E0AC0FBD1FA90FB11D0C939F5FE5
:10272000A1E9B0E0AC0FBD1FA90FB11D2C939F5FB5
:102730008F5F8B3041F7E1E9F0E0EC0FFD1FE90F0F
:10274000F11D1082C157DF4F68817981CF58D04089
:1027500021E0AE014F565F4FCE01CE960E94D009C8
:10276000882399F0BE01625C7F4FCE0181960E9462
:10277000580DAE014F565F4FBE016F5D7F4FCE01CA
:10278000855A9F4F0E94BC0D05C0CE01855A9F4FB0
:102790000E94A90DE6968EAD9FADE697009779F061
:1027A000FC012581222359F01F5F0E94870BE696CA
:1027B0008EAD9FADE6970E94F41562CF10E0812F99
:1027C00064E60E9433154AE0BE016F5D7F4F892F9A
:1027D00090E00E94FE14BE016F5D7F4F8CE491E09B
:1027E0000E949E1662E571E08CE491E00E949E16C4
:1027F000C157DF4F88819981CF58D040009781F031
:102800000E94870BC157DF4F88819981CF58D040F4
:102810000E94F415C157DF4F19821882CF58D0405B
:1028200043E16CE471E0CE0101960E94090F8B81B7
:102830009C8190932805809327058D819E81AF818F
:10284000B8858093290590932A05A0932B05B09312
:102850002C0589859A85AB85BC8580932D05909341
:102860002E05A0932F05B09330058DE0FE013D9617
:10287000A1E3B5E001900D928A95E1F78A8D9B8DD9
:1028800090933F0580933E0510E8C090B701D0902B
:10289000B801E090B901F090BA010E9470016C1586
:1028A0007D058E059F0560F50E944B014B015C0183
:1028B00084E6C82ED12CE12CF12C0E944B01DC01C6
:1028C000CB0188199909AA09BB09883E9340A10543
:1028D000B10580F0F1E0CF1AD108E108F10828EE47
:1028E000820E23E0921EA11CB11CC114D104E1048C
:1028F000F10419F7C114D104E104F104F1F6C5CFD4
:102900000E947001DC01CB0188519C4FAF4FBF4F3B
:102910008093B7019093B801A093B901B093BA0125
:10292000E7E5F1E0ABEBB1E0812F01900D928A95E4
:10293000E1F7EBEBF1E001900020E9F73197AF010F
:102940004B5B51406BEB71E08DE394E00E94DE0E37
:1029500042E050E063EA71E08DE394E00E94DE0E15
:102960000E949B0092CFEDE3F4E01382128288EE86
:1029700093E0A0E0B0E084839583A683B7838EE1E3
:1029800091E09183808385EC90E09587848784EC47
:1029900090E09787868780EC90E0918B808B81EC2C
:1029A00090E0938B828B82EC90E0958B848B86EC0D
:1029B00090E0978B868B118E128E138E148EEAED1B
:1029C000F4E080E580831182ECEDF4E0158216825C
:1029D0001186138682E090E0A0E0B0E084879587BE
:1029E000A687B78713A215A614A68EE391E093A736
:1029F00082A717A685E295E00C94A90DBB274A3063
:102A000031F4992322F4BDE2909581959F4F0C9467
:102A10000A15BB27FB015527AA27880F991FAA1F54
:102A2000A41710F0A41B83955051B9F7A05DAA33E9
:102A300008F0A95DA193009779F7B111B1931192B4
:102A4000CB010C942315DC01FC01672F71917723D6
:102A5000E1F7329704C07C916D9370836291AE1759
:102A6000BF07C8F30895991B79E004C0991F961712
:102A700008F0961B881F7A95C9F7809508950E94E3
:102A80005015A59F900DB49F900DA49F800D911D92
:102A900011240895EE0FFF1F0590F491E02D099485
:102AA000A29FB001B39FC001A39F700D811D11248F
:102AB000911DB29F700D811D1124911D0895CF931A
:102AC000DF938230910510F482E090E0E0914205BE
:102AD000F091430520E030E0C0E0D0E0309711F104
:102AE0004081518148175907C0F04817590761F4D0
:102AF00082819381209719F09B838A832BC09093C6
:102B000043058093420526C02115310519F042176F
:102B1000530718F49A01BE01DF01EF010280F3812F
:102B2000E02DDCCF2115310509F1281B390B2430AC
:102B3000310590F412968D919C9113976115710552
:102B400021F0FB019383828304C09093430580931B
:102B50004205FD01329644C0FD01E20FF31F81934F
:102B60009193225031092D933C933AC02091400516
:102B700030914105232B41F420910601309107014A
:102B800030934105209340052091040130910501C7
:102B90002115310541F42DB73EB740910801509100
:102BA0000901241B350BE0914005F0914105E21726
:102BB000F307A0F42E1B3F0B2817390778F0AC0160
:102BC0004E5F5F4F2417350748F04E0F5F1F50933D
:102BD0004105409340058193919302C0E0E0F0E00D
:102BE000CF01DF91CF9108950F931F93CF93DF9380
:102BF000009709F48CC0FC01329713821282009175
:102C00004205109143050115110581F420813181A0
:102C1000820F931F209140053091410528173907F5
:102C200079F5F0934105E093400571C0D80140E08B
:102C300050E0AE17BF0750F412962D913C911397B8
:102C4000AD012115310509F1D901F3CF9D01DA015B
:102C50003383228360817181860F971F82179307C8
:102C600069F4EC0128813981260F371F2E5F3F4F11
:102C7000318320838A819B8193838283452B29F42E
:102C8000F0934305E093420542C01396FC93EE9304
:102C90001297ED01499159919E01240F351FE217BA
:102CA000F30771F480819181840F951F029611962C
:102CB0009C938E938281938113969C938E9312970B
:102CC000E0E0F0E0D80112968D919C911397009767
:102CD00019F0F8018C01F6CF8D919C9198012E5F2F
:102CE0003F4F820F931F20914005309141052817D7
:102CF000390769F4309729F4109243051092420580
:102D000002C0138212821093410500934005DF91A7
:102D1000CF911F910F91089581E090E0F8940C9469
:102D2000C316FB01DC0104C08D910190801921F4D0
:102D300041505040C8F7881B990B0895FB01DC01F6
:102D40000D900020E9F7119701900D920020E1F716
:102D50000895FC018191861721F08823D9F79927DE
:102D600008953197CF010895FB01DC014150504097
:102D700048F001900D920020C9F701C01D9241500A
:0A2D80005040E0F70895F894FFCFEB
:102D8A00FFFFFFFF00004405800000000000C600AE
:102D9A003C0DA50056086008930B000000001D0EAC
:102DAA00DE0E8F00F10D050E640E00000000DC003F
:102DBA00DE0EDC00DC00DC00DC00000000002B0D75
:102DCA00DE0E00000000DC00DE0E2F004D794D61A2
:102DDA0070002E74787400244750524D432C3036BC
:102DEA00343935312E3030302C412C323330372EB5
:102DFA00313235362C4E2C31323031362E34343392
:102E0A00382C452C302E30332C3136352E34382C94
:102E1A003236303430362C332E30352C572C412A6A
:062E2A003243000D0A0016
:107E0000112484B714BE81FFF0D085E080938100F7
:107E100082E08093C00088E18093C10086E0809377
:107E2000C20080E18093C4008EE0C9D0259A86E02C
:107E300020E33CEF91E0309385002093840096BBD3
:107E4000B09BFECF1D9AA8958150A9F7CC24DD24C4
:107E500088248394B5E0AB2EA1E19A2EF3E0BF2EE7
:107E6000A2D0813461F49FD0082FAFD0023811F036
:107E7000013811F484E001C083E08DD089C08234E0
:107E800011F484E103C0853419F485E0A6D080C0E4
:107E9000853579F488D0E82EFF2485D0082F10E0AE
:107EA000102F00270E291F29000F111F8ED06801E7
:107EB0006FC0863521F484E090D080E0DECF843638
:107EC00009F040C070D06FD0082F6DD080E0C81688
:107ED00080E7D80618F4F601B7BEE895C0E0D1E017
:107EE00062D089930C17E1F7F0E0CF16F0E7DF06D8
:107EF00018F0F601B7BEE89568D007B600FCFDCFD4
:107F0000A601A0E0B1E02C9130E011968C91119780
:107F100090E0982F8827822B932B1296FA010C0160
:107F200087BEE89511244E5F5F4FF1E0A038BF0790
:107F300051F7F601A7BEE89507B600FCFDCF97BE46
:107F4000E89526C08437B1F42ED02DD0F82E2BD052
:107F50003CD0F601EF2C8F010F5F1F4F84911BD097
:107F6000EA94F801C1F70894C11CD11CFA94CF0C13
:107F7000D11C0EC0853739F428D08EE10CD085E9AC
:107F80000AD08FE07ACF813511F488E018D01DD067
:107F900080E101D065CF982F8091C00085FFFCCF94
:107FA0009093C60008958091C00087FFFCCF809118
:107FB000C00084FD01C0A8958091C6000895E0E648
:107FC000F0E098E1908380830895EDDF803219F02E
:107FD00088E0F5DFFFCF84E1DECF1F93182FE3DFCA
:107FE0001150E9F7F2DF1F91089580E0E8DFEE27F6
:047FF000FF270994CA
:027FFE00040479
:0400000300007E007B
:00000001FF