:100000000C94FE000C9426010C9426010C945205CD
:100010000C9452050C9452050C9426010C94260164
:100020000C9426010C9426010C9426010C942601B4
:100030000C9426010C9426010C9426010C942601A4
:100040000C9408050C9426010C94D6040C94B0046E
:100050000C9426010C9426010C9426010C94260184
:100060000C9426010C9426010000000800020100F7
:100070000003040700000000000000000000000072
:10008000250028002B0000000000240027002A0083
:1000900000000000230026002900040404040404D6
:1000A0000404020202020202030303030303010227
:1000B00004081020408001020408102001020408F6
:1000C00010204E414E494E495459494E46CDCCCC54
:1000D0003D0AD7233C17B7D13877CC2B329595E61C
:1000E000241FB14F0A000020410000C84200401CFC
:1000F0004620BCBE4CCA1B0E5AAEC59D7400407A49
:1001000010F35A00A0724E18090010A5D4E80000A0
:10011000E87648170000E40B54020000CA9A3B003E
:100120000000E1F505000080969800000040420FB5
:10013000000000A08601000000102700000000E879
:1001400003000000006400000000000A000000003E
:10015000000100000000002C76D888DC674F0823DF
:10016000DFC1DFAE59E1B1B796E5E3E453C63AE645
:1001700051997696E8E6C28426EB898C9B62ED4025
:100180007C6FFCEFBC9C9F40F2BAA56FA5F4900574
:100190005A2AF75C936B6CF9676DC11BFCE0E40DA8
:1001A00047FEF520E6B500D0ED902E03009435779C
:1001B000050080841E080000204E0A000000C80CC4
:1001C000333333330F986E12831141EF8D2114892D
:1001D0003BE65516CFFEE6DB18D1844B381BF77C87
:1001E0001D901DA4BBE424203284725E228100C9CC
:1001F000F124ECA1E53D2700CC05FE0911241FBE2A
:10020000CFEFD8E0DEBFCDBF11E0A0E0B1E0E2EE7D
:10021000F7E202C005900D92A23BB107D9F723E0A7
:10022000A2EBB1E001C01D92A139B207E1F710E0E5
:10023000CDEFD0E004C02197FE010E94300ACC3FF0
:10024000D107C9F70E94CE060C94E4130C94000069
:10025000E7E8F2E0A089B18982E08C93A485B585B6
:100260001C92A685B78580E18C93108EA489B589F0
:1002700086E08C93A289B3898C9180618C93A2894A
:10028000B3898C9188608C93A289B3898C918068A2
:100290008C930288F389E02D80818F7D808308957F
:1002A000CF92DF92EF92FF920F931F93CF93DF9342
:1002B0006C017A018B01C0E0D0E0CE15DF0589F03A
:1002C000D8016D918D01D601ED91FC910190F081E5
:1002D000E02DC6010995892B11F47E0102C02196FB
:1002E000ECCFC701DF91CF911F910F91FF90EF905D
:1002F000DF90CF900895FC01918D828D981761F069
:10030000828DDF01A80FB11D5D968C91928D9F5F4C
:100310009F73928F90E008958FEF9FEF0895FC01F7
:10032000918D828D981731F0828DE80FF11D858DAA
:1003300090E008958FEF9FEF0895FC01918D228D3D
:10034000892F90E0805C9F4F821B91098F739927C2
:10035000089587E892E00E949D0121E0892B09F42D
:1003600020E0822F0895FC01848DDF01A80FB11DCC
:10037000A35ABF4F2C91848D90E001968F739927DB
:10038000848FA689B7892C93A089B1898C918064C8
:100390008C93938D848D981306C00288F389E02D89
:1003A00080818F7D80830895EF92FF920F931F933A
:1003B000CF93DF93EC0181E0888F9B8D8C8D981318
:1003C00005C0E889F989808185FD24C0F62E0B8D52
:1003D00010E00F5F1F4F0F731127E02E8C8DE81276
:1003E0000CC00FB607FCFACFE889F989808185FF38
:1003F000F5CFCE010E94B301F1CF8B8DFE01E80F46
:10040000F11DE35AFF4FF0820B8FEA89FB8980814F
:10041000806207C0EE89FF896083E889F98980815D
:100420008064808381E090E0DF91CF911F910F91F4
:10043000FF90EF900895CF93DF93EC01888D882390
:10044000C9F0EA89FB89808185FD05C0A889B98941
:100450008C9186FD0FC00FB607FCF5CF808185FF1C
:10046000F2CFA889B9898C9185FFEDCFCE010E948A
:10047000B301E7CFDF91CF91089580E090E0892B21
:1004800029F00E94A90181110C940000089590E0C8
:10049000FC01E859FF4F3491FC01E255FF4F2491D4
:1004A000FC01E656FF4FE491EE2309F43BC03323F1
:1004B00039F1333091F038F43130A9F0323001F5B0
:1004C00084B58F7D12C0373091F03830A1F03430D0
:1004D000B9F4809180008F7D03C0809180008F7778
:1004E000809380000DC084B58F7784BD09C0809152
:1004F000B0008F7703C08091B0008F7D8093B000F3
:10050000F0E0EE0FFF1FE458FF4FA591B4918FB7B5
:10051000F894EC91611103C020952E2301C02E2B7D
:100520002C938FBF08953FB7F8948091F701909175
:10053000F801A091F901B091FA0126B5A89B05C078
:100540002F3F19F00196A11DB11D3FBFBA2FA92F52
:10055000982F8827820F911DA11DB11DBC01CD01CF
:1005600042E0660F771F881F991F4A95D1F70895BB
:100570008F929F92AF92BF92CF92DF92EF92FF92B3
:100580006B017C010E9493024B015C01C114D104F8
:10059000E104F104F1F00E949302DC01CB0188191F
:1005A0009909AA09BB09883E9340A105B10570F3DA
:1005B00021E0C21AD108E108F10888EE880E83E034
:1005C000981EA11CB11CC114D104E104F10419F757
:1005D000DDCFFF90EF90DF90CF90BF90AF909F90D6
:1005E0008F9008952FB7F8946091F3017091F40102
:1005F0008091F5019091F6012FBF08952091FD01A2
:100600003091FE012817390771F49091FB01809118
:10061000FC01981741F0E091FB01F0E0EE54FE4F31
:10062000808190E008958FEF9FEF089508951F93C4
:10063000CF93DF93DC015C962D913C915D97211562
:10064000310539F481E090E013969C938E931297D4
:100650003DC05196ED91FC91529750969C915097C8
:10066000892F80951FB75E964C915E9741FB772747
:1006700070F941FD6095F8944081772311F0492B82
:1006800001C048234083E9012197F1F748E05081F8
:1006900060FF02C0592B01C058235083E901219704
:1006A000F1F76695415099F7772321F090818923DE
:1006B000808303C08081982B90831FBF5C968D91AF
:1006C0009C915D970197F1F721E030E0C901DF913E
:1006D000CF911F9108952091FD013091FE012817BF
:1006E000390771F48091FC012091FB0190E0805C5E
:1006F0009F4F821B910960E470E00E94080A0895F0
:1007000080E090E008952091FD013091FE012817CE
:100710003907B9F49091FB018091FC01981789F099
:10072000E091FB01F0E0EE54FE4F80812091FB014F
:1007300030E02F5F3F4F2F7333272093FB0190E072
:1007400008958FEF9FEF0895E091FD01F091FE0174
:10075000E817F90769F4A389B4899C918589809584
:1007600089238C931092FE011092FD0181E008957F
:1007700080E008950F931F93CF93DF93EC0188815E
:100780009981009729F02A813B812617370788F441
:100790008B016F5F7F4F0E94420C009761F099833D
:1007A00088831B830A832C813D81232B11F4FC0158
:1007B000108281E001C080E0DF91CF911F910F9105
:1007C0000895EF92FF920F931F93CF93DF9300D082
:1007D000CDB7DEB78C0169831A82FC01E480F58015
:1007E000FFEFEF1AFF0AB7010E94BA03882381F0D6
:1007F000F8012081318184819581BE016F5F7F4F37
:10080000820F931F0E941A0DF801F582E48281E0A5
:100810000F900F90DF91CF911F910F91FF90EF906C
:100820000895EF92FF920F931F93CF93DF93EC0104
:100830007B018A01BA010E94BA03288139818111A2
:100840000DC02115310519F0C9010E94AA0B1982AA
:1008500018821D821C821B821A8206C01D830C8393
:10086000B701C9010E941A0DCE01DF91CF911F91EE
:100870000F91FF90EF9008956115710579F0FB01DC
:1008800001900020E9F73197AF01461B570BDC01BF
:10089000ED91FC910280F381E02D099480E090E0DD
:1008A00008954F925F926F927F92EF92FF920F9313
:1008B0001F93CF93DF93CDB7DEB7A1970FB6F89410
:1008C000DEBF0FBECDBF7C01FA01CB0119A22230E1
:1008D00008F42AE08E010F5D1F4F422E512C612C2F
:1008E000712CBF01A30192010E947113F901CA0189
:1008F000015011096A3014F4605D01C0695CD801CF
:100900006C93232B242B252B61F7B801C7010E9480
:100910003C04A1960FB6F894DEBF0FBECDBFDF91A9
:10092000CF911F910F91FF90EF907F906F905F900C
:100930004F9008950F931F93CF93DF93EC010E9484
:100940003C048C0165E371E0CE010E943C04800F01
:10095000911FDF91CF911F910F9108950E940C0D6F
:100960001F920F920FB60F9211242F933F934F9324
:100970005F936F937F938F939F93AF93BF93EF9307
:10098000FF9387E892E00E94B301FF91EF91BF913E
:10099000AF919F918F917F916F915F914F913F9117
:1009A0002F910F900FBE0F901F9018951F920F92CE
:1009B0000FB60F9211242F938F939F93EF93FF9372
:1009C000E0919702F09198028081E0919D02F09170
:1009D0009E0282FD12C090818091A0028F5F8F7372
:1009E0002091A102821751F0E091A002F0E0E957B6
:1009F000FD4F958F8093A00201C08081FF91EF9100
:100A00009F918F912F910F900FBE0F901F9018956F
:100A10001F920F920FB60F9211242F933F938F9333
:100A20009F93AF93BF938091F3019091F401A091B4
:100A3000F501B091F6013091F20123E0230F2D373B
:100A400020F40196A11DB11D05C026E8230F0296D2
:100A5000A11DB11D2093F2018093F3019093F40145
:100A6000A093F501B093F6018091F7019091F80100
:100A7000A091F901B091FA010196A11DB11D8093D9
:100A8000F7019093F801A093F901B093FA01BF9197
:100A9000AF919F918F913F912F910F900FBE0F902B
:100AA0001F9018951F920F920FB60F9211242F933B
:100AB0003F934F935F936F937F938F939F93AF93E6
:100AC000BF93EF93FF93E091FD01F091FE0130970A
:100AD00009F451C0968DA685B785858591FF04C020
:100AE0009C91892329F447C09C91892309F043C034
:100AF000A389B4899C918589809589238C93868963
:100B000097890197F1F7608D718DA685B785558519
:100B100038E020E0CB010197F1F7822F90E0959526
:100B20008795282F4C91452309F02068315091F783
:100B3000868D81FD20958091FC0190E001968F7358
:100B400099273091FB01381749F0A091FC01B0E0E2
:100B5000AE54BE4F2C938093FC0103C0868D816000
:100B6000868F828D938D0197F1F7A389B4899C912B
:100B70008589892B8C93FF91EF91BF91AF919F91C4
:100B80008F917F916F915F914F913F912F910F9036
:100B90000FBE0F901F901895CF93DF9310928A028B
:100BA0001092890288EE93E0A0E0B0E080938B027F
:100BB00090938C02A0938D02B0938E022AE031E0D4
:100BC000309388022093870225EC30E03093940222
:100BD0002093930224EC30E0309396022093950208
:100BE00020EC30E0309398022093970221EC30E023
:100BF00030939A022093990222EC30E030939C02C9
:100C000020939B0226EC30E030939E0220939D02BD
:100C10001092A0021092A1021092A2021092A302BE
:100C200010922A0310922B0310922C0310922D0382
:100C300010922E0310922F03109230031092310362
:100C40001092320310923303109234031092350342
:100C50001092360310923703109238031092390322
:100C600010926F0310926E03809370039093710340
:100C7000A0937203B09373038AE191E090936D03A4
:100C800080936C0310928303109282031092850369
:100C900010928403109287031092860310928903A6
:100CA0001092880360918A036E7F6D7F60938A0340
:100CB0006695617081E0682787E00E944702E5EB56
:100CC000F0E02491E1EAF0E08491882399F090E04B
:100CD000880F991FFC01EA57FF4FA591B491FC01C1
:100CE000E458FF4F859194918FB7F894EC91E22BE3
:100CF000EC938FBFE5EBF0E0E491E0937C03E1EA55
:100D0000F0E0E491F0E0EE0FFF1FE458FF4F859113
:100D1000949190937E0380937D03E6EBF0E0249121
:100D2000E2EAF0E084918823C1F090E0880F991FF7
:100D3000FC01EA57FF4FC591D491FC01E458FF4FE5
:100D4000A591B4919FB7F8948881E22FE0958E2306
:100D500088838C91E823EC939FBF80918A0381FD67
:100D600004C061E088E00E94470288E08093780335
:100D7000E6EBF0E0E491E0937903E2EAF0E0E4915D
:100D8000F0E0EE0FFF1FE057FF4F85919491909395
:100D90007B0380937A03DF91CF910895CF93DF9304
:100DA000CDB7DEB7E3970FB6F894DEBF0FBECDBF69
:100DB000789484B5826084BD84B5816084BD85B536
:100DC000826085BD85B5816085BD80916E00816042
:100DD00080936E00109281008091810082608093E8
:100DE00081008091810081608093810080918000EA
:100DF0008160809380008091B10084608093B10015
:100E00008091B00081608093B00080917A0084600E
:100E100080937A0080917A00826080937A0080913A
:100E20007A00816080937A0080917A008068809354
:100E30007A001092C1001092680310926903109218
:100E40006A0310926B0310922603109227031092EC
:100E500028031092290368EB7BE080E090E00E9479
:100E6000B80287E892E090936703809366030E943C
:100E700028010E94F2026093260370932703809357
:100E800028039093290366E271E0809166039091B4
:100E900067030E943C046AE070E080E090E00E94FA
:100EA000B80281E080933A030E94280110928703E0
:100EB000109286031092850310928403109283038C
:100EC000109282038DE991E09093890380938803C7
:100ED00090917803963108F057C02DEB30E03093B5
:100EE0008303209382032BE931E030938503209321
:100EF00084032CE231E03093870320938603209112
:100F00006800983050F031E09E3008F430E081E025
:100F100001C0880F3A95EAF701C084E0822B8093E4
:100F20006800983038F09E3040F0963148F020E06C
:100F300030E008C02DE630E005C02BE630E002C00E
:100F40002CE630E03093800320937F03983030F418
:100F500081E001C0880F9A95EAF70EC0292F30E092
:100F60009E3018F42850310902C02E50310981E01A
:100F700001C0880F2A95EAF7809381038091880346
:100F8000909189030197F1F78091860390918703EF
:100F9000892B21F18091FD019091FE0123E08C3697
:100FA0009207E1F0009711F00E94A40380918A0358
:100FB0008E7F80938A031092FC011092FB018CE6D5
:100FC00093E09093FE018093FD01E0917F03F09107
:100FD0008003908180918103892B808368E371E095
:100FE0008CE693E00E949A0469E471E08CE693E059
:100FF0000E949A0462E671E08CE693E00E949A04F3
:101000001FA61EA619AA18AA1BAA1AAA40E050E0F9
:1010100067E371E0CE018E960E94110419A618A60E
:101020001BA61AA61DA61CA640E050E067E371E0CF
:10103000CE0188960E94110424E9E22E21E0F22ECE
:1010400000E010E0F7016081CE010230110514F4D8
:101050008E9601C088960E94E1030F5F1F4FFFEF3D
:10106000EF1AFF0A0930110569F78EA59FA50E94A6
:10107000520E6B017C0188A599A50E94520E1BA2FD
:101080001AA21DA21CA21FA21EA220E030E040E76F
:1010900052E40E94A30A9B01AC01C701B6010E9461
:1010A000370A8E010F5F1F4F24E046E00E94210D9A
:1010B000009771F0FC0101900020E9F73197AF0132
:1010C000481B590BBC01CE0182960E9411040CC032
:1010D0008AA19BA1009711F00E94AA0B1BA21AA241
:1010E0001FA21EA21DA21CA26AA17BA187E892E0FA
:1010F0000E949A048AA19BA10E94AA0B88A599A587
:101100000E94AA0B8EA59FA50E94AA0B84EF882E91
:1011100099249394A12CB12C9FEFE92E91E0F92E04
:1011200000E80E94F202672B682B692B41F40E94B1
:10113000F202623071058105910508F405C10E9433
:10114000F2026093830270938402809385029093ED
:10115000860240907F0250908002609081027090E1
:101160008202641575058605970540F460937F0239
:1011700070938002809381029093820240907F025C
:101180005090800260908102709082029B01AC01BD
:10119000241935094609570929013A013AEF43163E
:1011A00051046104710408F4CFC060937F0270930E
:1011B0008002809381029093820280923203909207
:1011C0003303A0923403B092350310923603109289
:1011D0003703109238031092390380912A039091BB
:1011E0002B03A0912C03B0912D0380932E03909399
:1011F0002F03A0933003B09331030E94F202609357
:101200002A0370932B0380932C0390932D030E9449
:10121000F202609326037093270380932803909330
:1012200029030E94F2022B013C016EE971E08091DA
:101230006603909167030E943C042AE041E050E07D
:1012400060E070E080916603909167030E94510412
:1012500065EA71E080916603909167030E943C0407
:101260002AE0B301A20180916603909167030E9476
:10127000510467EA71E080916603909167030E94D0
:101280003C0480912A0390912B03A0912C03B091F0
:101290002D03B301A201481B590B6A0B7B0B2AE0FB
:1012A00080916603909167030E94510467EA71E0A0
:1012B00080916603909167030E943C0440912A0349
:1012C00050912B0360912C0370912D0380912E037C
:1012D00090912F03A0913003B0913103481B590B1B
:1012E0006A0B7B0B2AE080916603909167030E9452
:1012F000510469EA71E080916603909167030E944E
:101300003C040E94F202AB01BC012AE0809166031A
:10131000909167030E9451046BEA71E0809166032B
:10132000909167030E949A0465E070E080E090E08D
:101330000E94B8020E94F20260932A0370932B036A
:1013400080932C0390932D03F701202F11922A955F
:10135000E9F710E08CE693E00E94FE020196D1F3DB
:101360008CE693E00E948303E12FF0E0E150FE4F12
:101370008083112329F0843219F48093FF0110E057
:101380008091FF01843231F781E0810FE12FF0E09D
:10139000E150FE4F90819A3011F0182FDBCF90E092
:1013A000FC01E350FE4F10826C0145E0C41AD108E5
:1013B000F601E150FE4F20812A3259F640E150E01B
:1013C00060E070E085509E4F0E94410D21E0822F29
:1013D00090E08C159D053CF4FC01E150FE4F8081AE
:1013E00068272F5FF4CF6111B4CF6FEF71E087E80A
:1013F00092E00E949A040E943D0293CE8AE191E01D
:1014000090936D0380936C038CE693E00C94A4039B
:1014100097FB072E16F4009407D077FD09D00E94A1
:101420001C0A07FC05D03EF4909581959F4F0895C6
:10143000709561957F4F0895AA1BBB1B51E107C0B2
:10144000AA1FBB1FA617B70710F0A61BB70B881F54
:10145000991F5A95A9F780959095BC01CD010895E3
:10146000EE0FFF1F0590F491E02D09945058BB2713
:10147000AA270E944E0A0C9427130E94191338F0D1
:101480000E94201320F039F49F3F19F426F40C94A5
:1014900016130EF4E095E7FB0C941013E92F0E944D
:1014A000381358F3BA17620773078407950720F0BB
:1014B00079F4A6F50C945A130EF4E0950B2EBA2F7E
:1014C000A02D0B01B90190010C01CA01A00111244A
:1014D000FF27591B99F0593F50F4503E68F11A16F6
:1014E000F040A22F232F342F4427585FF3CF469587
:1014F00037952795A795F0405395C9F77EF41F16A9
:10150000BA0B620B730B840BBAF09150A1F0FF0F72
:10151000BB1F661F771F881FC2F70EC0BA0F621F5E
:10152000731F841F48F4879577956795B795F7954E
:101530009E3F08F0B0CF9395880F08F09927EE0FE3
:101540009795879508950E94B70A0C9427130E94D7
:10155000201358F00E94191340F029F45F3F29F03E
:101560000C94101351110C945B130C9416130E94DD
:10157000381368F39923B1F3552391F3951B550B59
:10158000BB27AA2762177307840738F09F5F5F4F56
:10159000220F331F441FAA1FA9F335D00E2E3AF095
:1015A000E0E832D091505040E695001CCAF72BD0AD
:1015B000FE2F29D0660F771F881FBB1F26173707FE
:1015C0004807AB07B0E809F0BB0B802DBF01FF2730
:1015D00093585F4F3AF09E3F510578F00C941013EA
:1015E0000C945B135F3FE4F3983ED4F386957795B4
:1015F0006795B795F7959F5FC9F7880F911D9695E9
:10160000879597F90895E1E0660F771F881FBB1F44
:10161000621773078407BA0720F0621B730B840BF1
:10162000BA0BEE1F88F7E0950895CF93DF938230D1
:10163000910510F482E090E0E0918D03F0918E032B
:1016400020E030E0C0E0D0E0309711F140815181DE
:1016500048175907C0F04817590761F482819381F0
:10166000209719F09B838A832BC090938E038093DD
:101670008D0326C02115310519F04217530718F4C0
:101680009A01BE01DF01EF010280F381E02DDCCF82
:101690002115310509F1281B390B2430310590F44F
:1016A00012968D919C9113976115710521F0FB01A4
:1016B0009383828304C090938E0380938D03FD01F6
:1016C000329644C0FD01E20FF31F819391932250A3
:1016D00031092D933C933AC020918B0330918C03B8
:1016E000232B41F4209102013091030130938C03AC
:1016F00020938B03209100013091010121153105C8
:1017000041F42DB73EB74091040150910501241BCF
:10171000350BE0918B03F0918C03E217F307A0F4F3
:101720002E1B3F0B2817390778F0AC014E5F5F4F37
:101730002417350748F04E0F5F1F50938C034093DA
:101740008B038193919302C0E0E0F0E0CF01DF9141
:10175000CF9108950F931F93CF93DF93009709F4D0
:101760008CC0FC0132971382128200918D0310917C
:101770008E030115110581F420813181820F931FA1
:1017800020918B0330918C032817390779F5F0935A
:101790008C03E0938B0371C0D80140E050E0AE179A
:1017A000BF0750F412962D913C911397AD0121156E
:1017B000310509F1D901F3CF9D01DA013383228389
:1017C00060817181860F971F8217930769F4EC017E
:1017D00028813981260F371F2E5F3F4F31832083A9
:1017E0008A819B8193838283452B29F4F0938E0316
:1017F000E0938D0342C01396FC93EE931297ED0194
:10180000499159919E01240F351FE217F30771F496
:1018100080819181840F951F029611969C938E93DF
:101820008281938113969C938E931297E0E0F0E06F
:10183000D80112968D919C911397009719F0F80199
:101840008C01F6CF8D919C9198012E5F3F4F820FB6
:10185000931F20918B0330918C032817390769F46B
:10186000309729F410928E0310928D0302C01382D8
:10187000128210938C0300938B03DF91CF911F9101
:101880000F910895A0E0B0E0E8E4FCE00C94A2130E
:10189000EC01009721F4CB010E94150BB8C0FC01AC
:1018A000E60FF71F9C0122503109E217F30708F4F5
:1018B000ACC0D9010D911C91119706171707B0F014
:1018C0000530110508F49FC0C801049786179707D3
:1018D00008F499C002501109061B170B01931193CC
:1018E0006D937C93CF010E94AA0B8DC05B01A01A5F
:1018F000B10A4C01800E911EA0918D03B0918E0310
:1019000040E050E0E12CF12C109709F44AC0A815F2
:10191000B905D1F56D907C901197630182E0C80EF6
:10192000D11CCA14DB0480F1A3014A195B096A01C6
:1019300082E0C80ED11C1296BC9012971396AC91FF
:10194000B5E0CB16D10440F0B282A383518340832B
:10195000D9016D937C930AC00E5F1F4FC301800FA6
:10196000911FF90191838083EB2DFA2FE114F1048B
:1019700031F0D7011396FC93EE93129744C0F09385
:101980008E03E0938D033FC08D919C911197481772
:10199000590708F4AC017D0112960D90BC91A02D61
:1019A000B3CF80918B0390918C0388159905E1F456
:1019B00046175707C8F480910001909101010097E4
:1019C00041F48DB79EB74091040150910501841BED
:1019D000950BE817F907C8F4F0938C03E0938B0399
:1019E000F901718360830FC0CB010E94150B7C014C
:1019F000009759F0A801BE010E94110DCE010E946E
:101A0000AA0BC70104C0CE0102C080E090E0CDB7B0
:101A1000DEB7EEE00C94BE1381E090E0F8940C94F5
:101A2000E413FB01DC0102C001900D9241505040D3
:101A3000D8F70895FB01DC0101900D920020E1F739
:101A40000895EF920F931F93CF93DF93E80147FD23
:101A500002C034E001C034E1E42F440FFF0BF7FF74
:101A600003C0F195E195F109E32E022F2E2FAE016F
:101A70000E945F0ECE01DF91CF911F910F91EF90E9
:101A80000895A0E0B0E0E7E4FDE00C949E135C0153
:101A90006B017A016115710519F0FB019183808357
:101AA000E114F10429F0C7010297839708F0F1C00F
:101AB000E5012196F5011081812F90E00E94560EDC
:101AC000892B11F05E01F4CF1D3229F42196F50126
:101AD000118101E007C01B3221F4E5012296F501D6
:101AE000118100E0E114F10459F1F0E1EF16F10485
:101AF00061F41033E1F488818F7D883569F51981AF
:101B00002296026070E1E72EF12C88E0E816F104DD
:101B100039F12CF4F2E0EF16F104C9F12AC08AE0A1
:101B2000E816F10479F0E0E1EE16F10411F550E168
:101B3000E52EF12C812C912CA12C68E0B62E2CC026
:101B40001033C9F23AE0E32EF12C4CEC842E982CA1
:101B5000A82C4CE0B42E20C010E3E114F104A9F647
:101B600098E0E92EF12C812C912CA12C20E1B22EB1
:101B700013C060E070E080E090E897010F2C000C4B
:101B8000440B550B0E94711349015A0105C0812C69
:101B9000912CA12C80E4B82E60E020E030E0A90177
:101BA00027010F2C000C660877081E01E0EDE10FFD
:101BB000EA3060F08FEB810F8A3110F4E9EC05C058
:101BC0008FE9810F8A3128F5E9EAE10F8E2F90E045
:101BD0008E159F05F4F467FD18C082169306A406BF
:101BE000B50690F0C301B2010E9461139B01AC01E4
:101BF0002E0F311D411D511D213031054105F0E8E9
:101C00005F0710F461E001C06FEF2196F1011081D0
:101C1000CCCF802F8170C114D10471F0662329F0DC
:101C20002197F601D183C08307C001FF19C0229715
:101C3000F601D183C08314C067FF12C0811105C0B3
:101C40002FEF3FEF4FEF5FE704C020E030E040E0D0
:101C500050E882E290E09093900380938F0316C047
:101C6000882341F050954095309521953F4F4F4F37
:101C70005F4F0CC057FF0AC082E290E09093900340
:101C800080938F032FEF3FEF4FEF5FE7B901CA015A
:101C900004C060E070E080E090E0CDB7DEB7E2E144
:101CA0000C94BA13662777270C94ED0F91110C94BE
:101CB0002212803219F089508550C8F708954F924A
:101CC0005F926F927F929F92AF92BF92CF92DF927C
:101CD000EF92FF920F931F93CF93DF93CDB7DEB7B1
:101CE00029970FB6F894DEBF0FBECDBF6A01122F41
:101CF000B02E2BE3201720F0FF24F394F00E02C047
:101D0000BCE3FB2E0F2D27E0AE014F5F5F4F0E941B
:101D10004A11AC018981982F9970913031F0E1FC22
:101D200006C0E0FE06C090E205C09DE203C09BE253
:101D300001C090E0EE2DE07183FF3CC0911102C024
:101D400083E001C084E0811718F4212F281B01C013
:101D500020E0E1110BC0F601822F30E2882319F058
:101D600031938150FBCFC20ED11C20E0992329F082
:101D7000D6019C93F60131966F01C6010396E2FEEF
:101D80000AC03EE4D6013C9341E411964C9311976E
:101D900012963C9306C03EE6F601308341E641834D
:101DA0003283FC01322F40E2332309F442C04193D5
:101DB0003150FACF82FF44C0911102C083E001C0CC
:101DC00084E0811718F4212F281B01C020E0E111C5
:101DD0000BC0F601822F30E2882319F03193815035
:101DE000FBCFC20ED11C20E0992329F0D6019C9391
:101DF000F60131966F01C6010396E2FE0BC039E48D
:101E0000D6013C933EE411963C93119736E412962A
:101E10003C9307C039E6F60130833EE6318336E66F
:101E20003283FC01322F40E2332319F041933150C9
:101E3000FBCFFC01E20FF11D10828EEF9FEFB7C0C8
:101E4000F1E0911101C0F0E06F2F70E0141615065B
:101E500024F49A012F5F3F4F02C021E030E0260FAB
:101E6000371FBB2029F06B2D70E06F5F7F4F02C0E2
:101E700060E070E0260F371F612F70E026173707EC
:101E80001CF4121B212F01C020E03E2D387159F4A3
:101E9000D601322F60E2332319F06D933150FBCF1E
:101EA000C20ED11C20E0FF2331F0D6019C93B60175
:101EB0006F5F7F4F6B01E1110BC0F601922F30E392
:101EC000992319F031939150FBCFC20ED11C20E021
:101ED0009F2D940F3A81782F7071A72E84FF03C035
:101EE000313309F49150191624F4993018F098E020
:101EF00001C091E0E42F852F57FF02C0E0E080E0B1
:101F00006E2F782FE0E0F0E0AEE29A2E3A01691AE7
:101F100071082A01461A570A0B2D10E011950195F8
:101F200011096F3F8FEF780729F4D6019C92C60103
:101F300001966C014617570784F0661677066CF415
:101F40007F01E40CF51CA1E0B0E0AC0FBD1FEA0E70
:101F5000FB1ED7011196BC9002C090E3B92E6150D0
:101F600071093196C60101967C016017710724F052
:101F7000D601BC926C01D5CF6417750741F4363396
:101F800020F4353321F4A11002C081E3B82EF6010C
:101F9000B082F701822F90E2882319F0919381504B
:101FA000FBCFF701E20FF11D108280E090E029964F
:101FB0000FB6F894DEBF0FBECDBFDF91CF911F915A
:101FC0000F91FF90EF90DF90CF90BF90AF909F90D8
:101FD0007F906F905F904F900895A0E0B0E0E3EFA6
:101FE000FFE00C94A213EC017B016115710519F05F
:101FF000DB018D939C938E010F5F1F4F7880872D9F
:1020000090E00E94560E892B11F0E801F4CFBDE25A
:102010007B1205C00F5F1F4F7980C1E008C0EBE263
:102020007E1204C08E010E5F1F4F7980C0E06801F0
:10203000F1E0CF1AD10843E050E06AEC70E0C6014D
:102040000E942512892BF1F4680122E0C20ED11CF6
:1020500045E050E065EC70E0C6010E942512892B36
:1020600021F4680187E0C80ED11CE114F10419F0D5
:10207000D701CD92DC92C111FFC060E070E080E832
:102080009FE703C143E050E062EC70E0C6010E94AC
:102090002512892B51F4E114F10409F4F2C00E5F0A
:1020A0001F4FF70111830083ECC0680160E070E00E
:1020B000CB0100E010E0F601D0EDD70DDA3058F595
:1020C0002C2F2260622E2C2F2870C2FF05C02111F8
:1020D00028C00F5F1F4F25C0222311F001501109A6
:1020E000A5E0B0E09B01AC010E9493134B015C01A1
:1020F000880C991CAA1CBB1CC501B4016D0F711D75
:10210000811D911D6839A9E97A078A07A9E19A0713
:1021100040F0C66005C0DE3F51F4C3FD44C0C86056
:102120006C2EBFEFCB1ADB0A7080C62DC4CF2D2FCB
:102130002F7D2531C1F540814D3211F4C06106C0BB
:102140004B3221F0319621E030E006C03296D601C4
:1021500011964C9122E030E0A0EDA40FAA3018F0C7
:10216000E21BF30B20C040E050E04038BCE05B07CE
:102170005CF49A01220F331F220F331F420F531FAB
:10218000440F551F4A0F511D3196DF0111972C91B5
:10219000A0EDA20FAA3048F3C4FF03C051954195AA
:1021A0005109040F151FC1FF07C0E114F10421F00C
:1021B0003197D701ED93FC930E944212C370C33054
:1021C00019F06B017C0106C06B017C01F7FAF094F9
:1021D000F7F8F09420E030E0A901C701B6010E94B1
:1021E0003D12882309F445C017FF06C011950195DB
:1021F0001109C1EED0E002C0C9EFD0E05E01B8E144
:10220000AB1AB1084601BE2DAF2D90E2E92EF12C9C
:102210000E151F0584F0FE012591359145915491CD
:10222000B4018B2F9A2F0E94A3124B01B82FA92F14
:102230000E191F09EDCF2497F594E794CA15DB0515
:1022400039F76401EB2EFA2E8E2D880F8F2D881F03
:102250008F3F49F020E030E0A901C701B6010E949C
:102260003D12811106C082E290E09093900380932A
:102270008F03C701B60109C060E070E080E89FEFFE
:1022800004C060E070E080EC9FE7CDB7DEB7EEE021
:102290000C94BE13283008F027E03327DA01990F99
:1022A000311D87FD916000966105710539F432603A
:1022B0002E5F3D9330E32A95E1F708959F3F30F07C
:1022C00080387105610509F03C5F3C5F3D939130BA
:1022D00008F08068911DDF93CF931F930F93FF92B7
:1022E000EF92192F987F9695E92F96959695E90F7D
:1022F000FF27E95AFE4F99273327EE24FF24A70131
:10230000E70105900894079428F4360FE71EF81E9D
:10231000491F511D660F771F881F991F0694A1F74B
:102320000590079428F4E70EF81E491F561FC11D9B
:10233000770F881F991F661F0694A1F705900794D1
:1023400028F4F80E491F561FC71FD11D880F991F6B
:10235000661F771F0694A1F70590079420F4490F94
:10236000561FC71FD81F990F661F771F881F069417
:10237000A9F784911095177041F0D695C795579598
:102380004795F794E7941A95C1F7EDEFF0E068945C
:102390001590159135916591959105907FE2739512
:1023A000E118F10A430B560BC90BD009C0F7E10C39
:1023B000F11E431F561FC91FD01D7EF4703311F448
:1023C0008A95E6CFE894015030F0080F0AF4002710
:1023D000021708F4202F2395022F7A3328F079E38F
:1023E0007D932A95E9F710C07D932A9589F6069486
:1023F00097956795379517951794E118F10A430B50
:10240000560BC90BD00998F023957E9173957A33BA
:1024100008F070E37C932013B8F77E9170617D9390
:1024200030F0839571E37D9370E32A95E1F71124F1
:10243000EF90FF900F911F91CF91DF91992787FD2A
:1024400090950895992788270895FB01DC01415054
:10245000504088F08D9181341CF08B350CF4805EF7
:10246000659161341CF06B350CF4605E861B611164
:1024700071F3990B0895881BFCCF0E947F1208F41A
:1024800081E00895E89409C097FB3EF4909580950B
:10249000709561957F4F8F4F9F4F9923A9F0F92F2A
:1024A00096E9BB279395F695879577956795B795A8
:1024B000F111F8CFFAF4BB0F11F460FF1BC06F5F8E
:1024C0007F4F8F4F9F4F16C0882311F096E911C0A0
:1024D000772321F09EE8872F762F05C0662371F0C1
:1024E00096E8862F70E060E02AF09A95660F771FD5
:1024F000881FDAF7880F9695879597F90895990FB1
:102500000008550FAA0BE0E8FEEF16161706E807BD
:10251000F907C0F012161306E407F50798F0621BDE
:10252000730B840B950B39F40A2661F0232B242BB3
:10253000252B21F408950A2609F4A140A6958FEFD2
:10254000811D811D08950E94B6120C9427130E94CC
:10255000191338F00E94201320F0952311F00C94E9
:1025600010130C94161311240C945B130E9438134F
:1025700070F3959FC1F3950F50E0551F629FF001D6
:10258000729FBB27F00DB11D639FAA27F00DB11DEF
:10259000AA1F649F6627B00DA11D661F829F222778
:1025A000B00DA11D621F739FB00DA11D621F839FFF
:1025B000A00D611D221F749F3327A00D611D231FD5
:1025C000849F600D211D822F762F6A2F11249F5723
:1025D00050409AF0F1F088234AF0EE0FFF1FBB1F26
:1025E000661F771F881F91505040A9F79E3F5105E5
:1025F00080F00C9410130C945B135F3FE4F3983E4F
:10260000D4F3869577956795B795F795E7959F5F8E
:10261000C1F7FE2B880F911D9695879597F9089520
:1026200097F99F6780E870E060E008959FEF80EC85
:10263000089500240A941616170618060906089528
:1026400000240A9412161306140605060895092E8E
:102650000394000C11F4882352F0BB0F40F4BF2BFD
:1026600011F460FF04C06F5F7F4F8F4F9F4F08953D
:1026700057FD9058440F551F59F05F3F71F0479533
:10268000880F97FB991F61F09F3F79F08795089518
:10269000121613061406551FF2CF4695F1DF08C037
:1026A000161617061806991FF1CF86957105610554
:1026B00008940895E894BB2766277727CB0197F9FC
:1026C0000895DB018F939F930E949313BF91AF9165
:1026D000A29F800D911DA39F900DB29F900D11247C
:1026E0000895A1E21A2EAA1BBB1BFD010DC0AA1F53
:1026F000BB1FEE1FFF1FA217B307E407F50720F06B
:10270000A21BB30BE40BF50B661F771F881F991FE5
:102710001A9469F760957095809590959B01AC012E
:10272000BD01CF0108950E94D513A59F900DB49FC0
:10273000900DA49F800D911D112408952F923F921A
:102740004F925F926F927F928F929F92AF92BF92C1
:10275000CF92DF92EF92FF920F931F93CF93DF936D
:10276000CDB7DEB7CA1BDB0B0FB6F894DEBF0FBECA
:10277000CDBF09942A88398848885F846E847D8417
:102780008C849B84AA84B984C884DF80EE80FD8019
:102790000C811B81AA81B981CE0FD11D0FB6F8948F
:1027A000DEBF0FBECDBFED010895A29FB001B39F64
:1027B000C001A39F700D811D1124911DB29F700D4A
:1027C000811D1124911D089510E0CDEFD0E004C0CB
:1027D000FE010E94300A2196CE3FD107C9F7F89436
:0227E000FFCF29
:1027E20000009103800000000000D40150019D010F
:1027F2007B018F011B0200000000170350016B03D5
:102802008303FE021603564D4450565F317C315FFE
:10281200564D4450560D0A0024504D544B3232301E
:102822002C313030302A31460024504D544B333055
:10283200302C313030302C302C302C302C302A31AE
:10284200430024504D544B3331342C302C312C3036
:102852002C302C302C302C302C302C302C302C3096
:102862002C302C302C302C302C302C302C302C3086
:102872002A323900393837362E3534333200564D44
:102882004450455F003A323A007C005F564D445056
:022892004500FF
:107E0000112484B714BE81FFF0D085E080938100F7
:107E100082E08093C00088E18093C10086E0809377
:107E2000C20080E18093C4008EE0C9D0259A86E02C
:107E300020E33CEF91E0309385002093840096BBD3
:107E4000B09BFECF1D9AA8958150A9F7CC24DD24C4
:107E500088248394B5E0AB2EA1E19A2EF3E0BF2EE7
:107E6000A2D0813461F49FD0082FAFD0023811F036
:107E7000013811F484E001C083E08DD089C08234E0
:107E800011F484E103C0853419F485E0A6D080C0E4
:107E9000853579F488D0E82EFF2485D0082F10E0AE
:107EA000102F00270E291F29000F111F8ED06801E7
:107EB0006FC0863521F484E090D080E0DECF843638
:107EC00009F040C070D06FD0082F6DD080E0C81688
:107ED00080E7D80618F4F601B7BEE895C0E0D1E017
:107EE00062D089930C17E1F7F0E0CF16F0E7DF06D8
:107EF00018F0F601B7BEE89568D007B600FCFDCFD4
:107F0000A601A0E0B1E02C9130E011968C91119780
:107F100090E0982F8827822B932B1296FA010C0160
:107F200087BEE89511244E5F5F4FF1E0A038BF0790
:107F300051F7F601A7BEE89507B600FCFDCF97BE46
:107F4000E89526C08437B1F42ED02DD0F82E2BD052
:107F50003CD0F601EF2C8F010F5F1F4F84911BD097
:107F6000EA94F801C1F70894C11CD11CFA94CF0C13
:107F7000D11C0EC0853739F428D08EE10CD085E9AC
:107F80000AD08FE07ACF813511F488E018D01DD067
:107F900080E101D065CF982F8091C00085FFFCCF94
:107FA0009093C60008958091C00087FFFCCF809118
:107FB000C00084FD01C0A8958091C6000895E0E648
:107FC000F0E098E1908380830895EDDF803219F02E
:107FD00088E0F5DFFFCF84E1DECF1F93182FE3DFCA
:107FE0001150E9F7F2DF1F91089580E0E8DFEE27F6
:047FF000FF270994CA
:027FFE00040479
:0400000300007E007B
:00000001FF