:100000000C946B000C9493000C9493000C9493004C
:100010000C9493000C9493000C9493000C94930014
:100020000C9493000C9493000C9493000C94930004
:100030000C9493000C9493000C9493000C949300F4
:100040000C94F6020C9493000C94C4010C949E0141
:100050000C9493000C9493000C9493000C949300D4
:100060000C9493000C9493000000000024002700DF
:100070002A000000000023002600290000000008DC
:10008000000201000003040700000000000000005F
:100090007C3C3E5E2B3D3F2F5B5D3B2C2A225C006F
:1000A000010204081020408001020408102001020F
:1000B0000408102000000000250028002B00040484
:1000C0000404040404040202020202020303030300
:1000D00003036019501911241FBECFEFD8E0DEBF13
:1000E000CDBF25E0A2EDB1E001C01D92A73DB20752
:1000F000E1F711E0A0E0B1E0E8E6FCE302C0059022
:100100000D92A23DB107D9F710E0CAE6D0E004C0D5
:100110002197FE010E94C81CC936D107C9F70E9469
:1001200046130C94271E0C940000FC01918D828DC7
:10013000981761F0828DDF01A80FB11D5D968C913B
:10014000928D9F5F9F73928F90E008958FEF9FEF46
:100150000895FC01918D828D981731F0828DE80F02
:10016000F11D858D90E008958FEF9FEF0895FC01BC
:10017000918D228D892F90E0805C9F4F821B910989
:100180008F739927089581E792E00E94B70021E0DC
:10019000892B09F420E0822F0895FC01848DDF0172
:1001A000A80FB11DA35ABF4F2C91848D90E00196EA
:1001B0008F739927848FA689B7892C93A089B189D9
:1001C0008C9180648C93938D848D981306C00288E3
:1001D000F389E02D80818F7D80830895EF92FF92D7
:1001E0000F931F93CF93DF93EC0181E0888F9B8D5A
:1001F0008C8D981305C0E889F989808185FD24C01C
:10020000F62E0B8D10E00F5F1F4F0F731127E02E9E
:100210008C8DE8120CC00FB607FCFACFE889F9897B
:10022000808185FFF5CFCE010E94CD00F1CF8B8D6F
:10023000FE01E80FF11DE35AFF4FF0820B8FEA89B0
:10024000FB898081806207C0EE89FF896083E8892D
:10025000F98980818064808381E090E0DF91CF9193
:100260001F910F91FF90EF900895CF93DF93EC01D2
:10027000888D8823C9F0EA89FB89808185FD05C0C6
:10028000A889B9898C9186FD0FC00FB607FCF5CF00
:10029000808185FFF2CFA889B9898C9185FFEDCF48
:1002A000CE010E94CD00E7CFDF91CF91089580E08D
:1002B00090E0892B29F00E94C30081110C9400006A
:1002C00008950E94FB1D809161028823A9F140914D
:1002D000000150910101609102017091030121ED33
:1002E00033E08091D1059091D2050E94180E8111C2
:1002F00002C080E0089540916202509163026091D3
:10030000640270916502411551056105710591F016
:1003100021ED33E08091D1059091D2050E94180E15
:10032000882339F3109262021092630210926402E1
:10033000109265021092610281E008951F920F925F
:100340000FB60F9211242F933F934F935F936F93A8
:100350007F938F939F93AF93BF93EF93FF9381E727
:1003600092E00E94CD00FF91EF91BF91AF919F91DC
:100370008F917F916F915F914F913F912F910F904E
:100380000FBE0F901F9018951F920F920FB60F92ED
:1003900011242F938F939F93EF93FF93E09181020A
:1003A000F09182028081E0918702F091880282FDC3
:1003B00012C0908180918A028F5F8F7320918B028F
:1003C000821751F0E0918A02F0E0EF58FD4F958FCF
:1003D00080938A0201C08081FF91EF919F918F915C
:1003E0002F910F900FBE0F901F901895833081F0C2
:1003F00028F4813099F08230A1F008958730A9F077
:100400008830B9F08430D1F4809180008F7D03C0B2
:10041000809180008F7780938000089584B58F77D6
:1004200002C084B58F7D84BD08958091B0008F7720
:1004300003C08091B0008F7D8093B00008951F931A
:10044000CF93DF93282F30E0F901E458FF4F8491D8
:10045000F901E056FF4FD491F901E254FF4FC491E6
:10046000CC23C9F0162F81110E94F601EC2FF0E089
:10047000EE0FFF1FEC54FF4FA591B4918FB7F89486
:10048000111105C09C91ED2FE095E92302C0EC917C
:10049000ED2BEC938FBFDF91CF911F910895CF93F8
:1004A000DF9390E0FC01E056FF4F2491FC01E25401
:1004B000FF4F8491882361F190E0880F991FFC0120
:1004C000E859FF4FC591D491FC01EC54FF4FA59121
:1004D000B491611109C09FB7F89488812095822357
:1004E0008883EC912E230BC0623061F49FB7F8949F
:1004F0003881822F809583238883EC912E2B2C9337
:100500009FBF06C08FB7F894E8812E2B28838FBF3A
:10051000DF91CF9108953FB7F89480916B0290914D
:100520006C02A0916D02B0916E0226B5A89B05C029
:100530002F3F19F00196A11DB11D3FBFBA2FA92F62
:10054000982F8827820F911DA11DB11DBC01CD01DF
:1005500042E0660F771F881F991F4A95D1F70895CB
:100560008F929F92AF92BF92CF92DF92EF92FF92C3
:100570006B017C010E948B024B015C01C114D10410
:10058000E104F104F1F00E948B02DC01CB01881937
:100590009909AA09BB09883E9340A105B10570F3EA
:1005A00021E0C21AD108E108F10888EE880E83E044
:1005B000981EA11CB11CC114D104E104F10419F767
:1005C000DDCFFF90EF90DF90CF90BF90AF909F90E6
:1005D0008F9008952FB7F894609167027091680228
:1005E0008091690290916A022FBF08951F920F9225
:1005F0000FB60F9211242F933F938F939F93AF9336
:10060000BF938091670290916802A0916902B091B6
:100610006A023091660223E0230F2D3720F4019601
:10062000A11DB11D05C026E8230F0296A11DB11D15
:10063000209366028093670290936802A0936902F8
:10064000B0936A0280916B0290916C02A0916D024E
:10065000B0916E020196A11DB11D80936B02909323
:100660006C02A0936D02B0936E02BF91AF919F9107
:100670008F913F912F910F900FBE0F901F90189563
:100680008F929F92AF92BF92EF92FF920F931F9320
:10069000CF934B015C01C42F809100019091010127
:1006A000A0910201B091030188159905AA05BB0527
:1006B00001F10E946301811102C080E020C081ED40
:1006C000E82E83E0F82E00E012E020E030E0B501F3
:1006D000A4018091D1059091D2050E947F0C8823BE
:1006E00061F38092000190920101A0920201B09208
:1006F000030180916102C82BC093610281E0CF9118
:100700001F910F91FF90EF90BF90AF909F908F90AF
:1007100008954F925F926F927F928F929F92AF92C5
:10072000BF92CF92DF92EF92FF920F931F93CF93DE
:10073000DF93EC016A017B01280139014230510548
:100740006105710510F480E073C089859A85AB85D9
:10075000BC850196A11DB11D84179507A607B70793
:1007600090F38B889C88AD88BE888F89803129F46E
:10077000BB27AF2D9E2D8D2D09C0DB01CA0147E09F
:10078000B695A795979587954A95D1F7880E991EA6
:10079000AA1EBB1E8091000190910101A09102014F
:1007A000B091030188169906AA06BB0679F48F89D1
:1007B0008031A1F4DD24EE24FF24C601880F991FA7
:1007C000FC01EF52FC4F5182408219C040E0C5014C
:1007D000B4010E9440038111EACFB5CFE894C7F875
:1007E000DD24EE24FF24C601880F991F880F991F6E
:1007F000FC01EF52FC4F40825182628273828091F1
:1008000061028160809361028A89823080F08D81EB
:100810009E81AF81B885880E991EAA1EBB1E80924C
:10082000620290926302A0926402B092650281E03B
:10083000DF91CF911F910F91FF90EF90DF90CF90BC
:10084000BF90AF909F908F907F906F905F904F90F0
:1008500008958F929F92AF92BF92CF92DF92EF92C4
:10086000FF920F931F93CF93DF93FC0181859285B5
:10087000A385B4850196A11DB11D84179507A60710
:10088000B70710F480E05CC083899489A589B68994
:10089000C789C03129F4852E962EA72EBB2409C006
:1008A0004A015B01C7E0B694A79497948794CA95D0
:1008B000D1F7E9016A017B018F01BC01CD01680D0F
:1008C000791D8A1D9B1D8090000190900101A090D0
:1008D0000201B0900301681579058A059B0599F41A
:1008E000F80187898031A9F4B701A6015527662749
:1008F0007727440F551FFA01EF52FC4F80819181F9
:10090000A0E0B0E018C040E00E9440038111E8CFB1
:10091000B9CFB701A6014F77552766277727440F30
:10092000551F440F551FFA01EF52FC4F80819181F2
:10093000A281B381BF7088839983AA83BB8381E03E
:10094000DF91CF911F910F91FF90EF90DF90CF90AB
:10095000BF90AF909F908F9008954F925F926F924B
:100960007F92AF92BF92CF92DF92EF92FF920F935E
:100970001F93CF93DF9300D000D0CDB7DEB78C01AB
:1009800049835A836B837C835901C12CD12C760116
:10099000412C82E0582E612C712C49815A816B8147
:1009A0007C819E012F5F3F4FC8010E94290488234C
:1009B00051F1D301C201F801058404C0880F991FC9
:1009C000AA1FBB1F0A94D2F7C80ED91EEA1EFB1E2F
:1009D00049815A816B817C818789803129F088EF38
:1009E0009FEFAFEFBFE004C088EF9FEFA0E0B0E063
:1009F000481759076A077B0780F2F501C082D18248
:100A0000E282F38281E00F900F900F900F90DF91C0
:100A1000CF911F910F91FF90EF90DF90CF90BF90FB
:100A2000AF907F906F905F904F9008954F925F923C
:100A30006F927F92AF92BF92CF92DF92EF92FF922E
:100A40000F931F93CF93DF93CDB7DEB72B970FB6DE
:100A5000F894DEBF0FBECDBF7C01CE0101966C01C4
:100A6000FC0190E28BE08C0D91938E13FDCFDA01A7
:100A700030E047E09D91992339F19E3219F0E0E989
:100A8000F0E00AC04A3009F472C138E04AE0F2CF1F
:100A90003196891709F46BC184918111F9CF4317FD
:100AA00008F465C18FED890F8E3508F060C181E0D3
:100AB000830FF601E30FF11D3FE9390F3A3108F4D6
:100AC00090529083382FD6CF8981803209F44FC15C
:100AD000B22E8B01DB015B968D919C915C97F701A7
:100AE000948F838F16961D921D921D921C921997BA
:100AF000FB011286138614861586712CF8018285F7
:100B00009385A485B5854389548965897689841739
:100B10009507A607B70708F061C025E0B695A79529
:100B2000979587952A95D1F7F82FFF706F2ED801EA
:100B300015968C91823008F41AC1C8010E942E0FBC
:100B400097FD15C1F80182859385A485B5854F96DB
:100B5000A11DB11D82879387A487B587F0E26F9EA0
:100B6000C0011124BC016F527C4F6115710509F45D
:100B7000FEC0DB012C91222319F0253EC1F427C0D1
:100B800071100EC0F701628A40910001509101017D
:100B9000609102017091030146875787608B718BCA
:100BA000FC01EF52FC4F8081811113C015C04BE056
:100BB00050E0C6010E94001E892B09F09FCF8B2DAB
:100BC0008073803309F4D3C04B2D662DCCC07720C1
:100BD000C9F27724739492CF772473948B2D82710A
:100BE000823109F0C4C07720D1F0D7011E966D91F3
:100BF0007D918D919C91519741E00E944003882303
:100C000009F4B5C0F7016289F0E26F9FB0011124C9
:100C10006F527C4F6115710509F079C0A8C0D801E9
:100C200015968C91823009F4A2C0C8010E94B10AC5
:100C3000882309F49CC0D8015B96ED91FC915C97E8
:100C400016964D905D906D907C901997B2E04B1A7E
:100C5000510861087108058404C0440C551C661CC9
:100C6000771C0A94D2F786859785A089B189480EAA
:100C7000591E6A1E7B1EA480E1E04E1A51086108CD
:100C80007108AA2009F10E946301882309F46FC04A
:100C9000E1EDF3E0119225E0E13DF207D9F7D30150
:100CA000C2018A0D911DA11DB11D80930001909379
:100CB0000101A0930201B093030180916102816060
:100CC00080936102AA94DDCFD8015B96ED91FC91EF
:100CD0005C9780E092E0A0E0B0E0058404C0880F5B
:100CE000991FAA1FBB1F0A94D2F7F80143895489A0
:100CF00065897689840F951FA61FB71F838B948BF8
:100D0000A58BB68BD70152961C9261ED73E080E201
:100D1000FB0111928A95E9F78BE0F601DB01019066
:100D20000D928A95E1F781E298E2DB0151969C935E
:100D30008E93509720E038E01F963C932E931E9799
:100D400053969C938E93529759969C938E93589753
:100D500057963C932E9356970E946301882339F04F
:100D60004B2DF7016289C7010E949D0901C080E0F7
:100D70002B960FB6F894DEBF0FBECDBFDF91CF919B
:100D80001F910F91FF90EF90DF90CF90BF90AF90A9
:100D90007F906F905F904F900895CF93DF93EC0119
:100DA0008D818823A1F18C8187FF2DC06E857F8581
:100DB0008889998941E00E944003882341F1EA89AA
:100DC00080E2E89FF0011124DF01AF52BC4F109781
:100DD000F1F08D81823050F44B895C896D897E8978
:100DE0005C964D935D936D937C935F978F89988DFF
:100DF000A98DBA8DEF52FC4F938F828FB58BA48B48
:100E00008C818F778C83DF91CF910C94630180E08C
:100E1000DF91CF9108958F929F92AF92BF92CF9220
:100E2000DF92EF92FF920F931F93CF93DF93EC012A
:100E30008D81811102C080E077C00B891C892D89CA
:100E40003E890417150726073707A8F36A017B01B7
:100E5000823029F4CA86DB86EC86FD860DC0C1147B
:100E6000D104E104F10451F41E821F821886198610
:100E70001A861B861C861D8681E056C08A849B8448
:100E8000AC84BD84EB8DFC8D258530E0275F3F4F22
:100E9000B501A4014150510961097109022E04C034
:100EA00076956795579547950A94D2F7D701C6016D
:100EB0000197A109B10904C0B695A79597958795A3
:100EC0002A95D2F784179507A607B70720F0892837
:100ED0008A288B2849F44F89588D698D7A8D4E83E5
:100EE0005F836887798704C0841B950BA60BB70BBB
:100EF0004C015D018E010A5F1F4F81149104A10412
:100F0000B10409F4A7CF4E815F8168857985980186
:100F10008B8D9C8D0E94290491E0891A9108A1086B
:100F2000B1088111EACF87CFDF91CF911F910F9147
:100F3000FF90EF90DF90CF90BF90AF909F908F90F9
:100F400008952F923F924F925F926F927F928F926D
:100F50009F92AF92BF92CF92DF92EF92FF920F9348
:100F60001F93CF93DF9300D000D0CDB7DEB78C01B5
:100F70005B011A01DC0115968C9115978130C9F43B
:100F800014968C9181FF15C082FF1BC0F801438924
:100F900054896589768982859385A485B58584176A
:100FA0009507A607B70769F0C8010E940B078111D2
:100FB00008C081E090E0F8019383828380E090E0B4
:100FC00039C1610183C0D8015B968D919C915C977A
:100FD000FC01248121502A013B0139E07694679479
:100FE000579447943A95D1F7722E74207A01F1E024
:100FF000FF22772009F476C080E092E08E199F09E5
:1010000046018C159D0508F44C01D8015B962D9185
:101010003C915C9716968D919D910D90BC91A02D61
:101020000297A109B109F901058404C0880F991F2D
:10103000AA1FBB1F0A94D2F746855785608971891C
:10104000840F951FA61FB71F9C01AD01270D311DF1
:10105000411D511D29013A01811432E0930609F026
:1010600088C08091000190910101A0910201B0918E
:10107000030184159505A605B70559F48FEF9FEF79
:10108000DC018093000190930101A0930201B093D1
:1010900003019501B301A2018091D1059091D20580
:1010A0000E94180E882309F484CF9EEFB91AC8183D
:1010B000D908F80182859385A485B585880D991D89
:1010C000A11DB11D82879387A487B587D8011A9681
:1010D0004D915D916D917C911D97C114D10409F0E2
:1010E00072CF87C0E114F10409F086CF16964D91B6
:1010F0005D916D917C9119974115510561057105BF
:1011000059F457968D919D910D90BC91A02D00970B
:10111000A105B10541F521C09E012F5F3F4F0E94FF
:101120002904882309F44BCF89819A81AB81BC8142
:10113000F801238D348DF9012789203129F048EFFA
:101140005FEF6FEF7FE004C048EF5FEF60E070E0BB
:1011500084179507A607B70730F0C8010E94B10AA7
:1011600081114ACF26CFF80186839783A087B18764
:1011700043CFE114F10429F5D8011A964D915D9100
:101180006D917C911D9753968D919D910D90BC9181
:10119000A02D481759076A077B0798F00E94630142
:1011A000882309F406CF4092000150920101609219
:1011B000020170920301809161028160809361025B
:1011C00008C041E0C301B2010E944003882309F432
:1011D000F0CED501F701EF52FC4FCF01880D991DDC
:1011E000E817F90719F02D912193FACFA80CB91C33
:1011F0005ECF53968D919D910D90BC91A02D84173B
:101200009507A607B70740F4F801438B548B658B0D
:10121000768B848180688483D80114968C9183FDB9
:1012200002C0C10107C0C8010E94CD06882309F48D
:10123000C0CEF7CF0F900F900F900F90DF91CF910E
:101240001F910F91FF90EF90DF90CF90BF90AF90E4
:101250009F908F907F906F905F904F903F902F90D6
:101260000895CF93DF931F92CDB7DEB7698341E036
:1012700050E0BE016F5F7F4F0E94A1070F90DF918A
:10128000CF910895DC015996ED91FC915A973097D2
:10129000B9F083899489A589B68942855385648587
:1012A0007585841B950BA60BB70B811520E892075B
:1012B000A105B10538F08FEF9FE7A0E0B0E00895F9
:1012C00080E090E00895CF93DF931F92CDB7DEB713
:1012D0006983DC01ED91FC910280F381E02D41E016
:1012E00050E0BE016F5F7F4F09950F90DF91CF9166
:1012F0000895FC01818D928D009711F00C94CD061C
:101300000895CF93DF93EC01898D9A8D009739F47E
:1013100081E090E09B838A8380E090E00BC0FC0139
:10132000138212820E94A107E98DFA8D22813381F6
:10133000232B71F7DF91CF9108958F929F92AF92F7
:10134000BF92CF92DF92EF92FF920F931F93CF93B2
:10135000DF9300D000D0CDB7DEB77C0180E2689F7C
:101360006001112496012F523C4FD9011B969C918C
:10137000917121F0842F827409F097C0142FF70126
:10138000628B8091000190910101A0910201B091C6
:10139000030186879787A08BB18BF601EF52FC4F34
:1013A0004489558960E070E0BA0155274427D70188
:1013B00057964D935D936D937C935A97828D938D41
:1013C000A0E0B0E0482B592B6A2B7B2BD701579616
:1013D0004D935D936D937C935A97D9011B968C9195
:1013E000887159F4848D958DA68DB78DF701838B07
:1013F000948BA58BB68B81E012C0803109F055C06B
:1014000097012D5E3F4FD7015B968D919C915C9724
:101410000E94AD04882309F448C084E0F701858365
:10142000812F8F70D70114968C931497F701168231
:101430001782108611861A961D921D921D921C927B
:101440001D9716FF34C015968C91813071F511FFF0
:101450002CC0F7014389548965897689452B462B31
:10146000472B09F461C040E050E0BA01C7010E9477
:101470000B078823D1F0F7018788908CA18CB28C60
:10148000C38CD48C82E090E0A0E0B0E0F6018083D1
:101490009183A283B3839E012F5F3F4FB501A401C7
:1014A000C6010E942904811104C080E03DC081E092
:1014B0003BC000E010E09801B501A401C6010E9404
:1014C0008903882391F389809A80AB80BC80D60100
:1014D00057968C91803129F088EF9FEFAFEFBFE0F6
:1014E00004C088EF9FEFA0E0B0E088169906AA0636
:1014F000BB0688F2D70157961D921D921D921C9231
:101500005A97F701138A148A158A168A848180688B
:101510008483C7010E94CD06882339F240E050E061
:10152000BA01C7010E940B070F900F900F900F9008
:10153000DF91CF911F910F91FF90EF90DF90CF90AF
:10154000BF90AF909F908F900895CF93DF93EC0161
:101550000E94CD06882311F01D8281E0DF91CF919A
:1015600008953F924F925F926F927F928F929F92D7
:10157000AF92BF92CF92DF92EF92FF920F931F93A1
:10158000CF93DF93CDB7DEB72C970FB6F894DEBFBD
:101590000FBECDBF5C01DC015B968D909C905C978B
:1015A0001696CD90DD90ED90FC901997C114D10462
:1015B000E104F10439F0BFEFCB1ADB0AEB0AFB0AB6
:1015C000312C07C0F401C080D180E280F380332445
:1015D0003394F40181859285A385B4859C01AD0186
:1015E0002F5F3F4F4F4F5F4F29873A874B875C876D
:1015F000260137011D821E821F821886F401818513
:101600009285A385B4852D813E814F815885281709
:1016100039074A075B0708F063C089859A85AB855F
:10162000BC858C159D05AE05BF0550F482E0C82E23
:10163000D12CE12CF12C92E0492E512C612C712CF3
:101640009E012F5F3F4FB701A601C4010E942904EC
:10165000882309F445C089819A81AB81BC81892B9B
:101660008A2B8B2B41F0260137019FEF491A590A2B
:10167000690A790A05C0C414D504E604F70491F098
:101680002D813E814F8158852F5F3F4F4F4F5F4FD8
:101690002D833E834F8358873FEFC31AD30AE30A53
:1016A000F30AACCF0FEF1FEF2FEF3FE0B301A20122
:1016B000C4010E948903882399F0D50116964D91A3
:1016C0005D916D917C9119974115510561057105E9
:1016D00049F093018201C4010E948903811102C073
:1016E00080E02AC0D50116964D925D926D927C9253
:1016F0001997332051F0D301C2010196A11DB11DEC
:10170000F40180839183A283B383F5018789908D4F
:10171000A18DB28D892B8A2B8B2B69F4D50157961D
:101720004D925D926D927C925A9714968C9114977B
:10173000806814968C9381E02C960FB6F894DEBFE7
:101740000FBECDBFDF91CF911F910F91FF90EF9012
:10175000DF90CF90BF90AF909F908F907F906F90D1
:101760005F904F903F9008958FB7F89480917002EA
:101770008FBF089561E0FC0184810E941F02809167
:101780006F02811110926F0208958EBD00000DB49A
:1017900007FEFDCF8EB508958FEF0C94C50B0F9308
:1017A0001F93CF93DF93EB010E94EA028B010E940B
:1017B000CC0B8F3F49F00E94EA02601B710B6C1743
:1017C0007D07A8F380E001C081E0DF91CF911F91F8
:1017D0000F910895CF93DF93EC018E81882389F0D8
:1017E0008F8198859C012F5F3F4F38872F838230F0
:1017F000924018F40E94CC0BF3CFCE010E94BA0B9A
:101800001E82DF91CF9108958CBD9DBD0895CF9329
:10181000DF93EC0180916F02811109C081E0809318
:101820006F0280915603909157030E94040C60E070
:101830008C81DF91CF910C941F02CF92DF92FF92A7
:101840000F931F93CF93DF9300D000D0CDB7DEB7B7
:101850006C01F62E29833A834B835C830E94EA0B4A
:10186000C6010E94070C6CE271E0C6010E94CF0B1A
:101870008F2D80640E94C50B08E110E05C814B81D4
:101880003A812981DA01C901002E04C0B695A795D5
:10189000979587950A94D2F729833A834B835C8383
:1018A0000E94C50B0850110929813A814B815C8146
:1018B000083F8FEF180731F7FF2029F0E8E0FE120C
:1018C00004C087E803C085E901C08FEF0E94C50B03
:1018D00010E00E94CC0BF601828787FF04C01F3FF7
:1018E00011F01F5FF6CF0F900F900F900F90DF91C8
:1018F000CF911F910F91FF90DF90CF900895AF92FD
:10190000BF92CF92DF92EF92FF920F931F93CF93EC
:10191000DF93EC016901C801820F931F813092406F
:1019200008F070C08E81882371F088819981AA8126
:10193000BB81481759076A077B0729F48F8198856F
:10194000C816D906B0F5488359836A837B838B8593
:10195000833039F089E0440F551F661F771F8A9541
:10196000D1F79A01AB0161E1CE010E941D0C8823E1
:1019700019F083E08D8346C00E94EA025B010E9459
:10198000CC0B8A878F3F49F40E94EA026A197B09CF
:101990006D327140A0F38FE003C08E3F31F08DE0D7
:1019A0008D83CE010E94BA0B2DC018861F8281E064
:1019B0008E838F8198858C159D0540F40E94CC0BF9
:1019C0008F819885019698878F83F3CF6701E00E0A
:1019D000F11ECE14DF0431F00E94CC0BF60181938E
:1019E0006F01F7CF8F819885080F191F18870F8314
:1019F0008985882319F00115124048F0CE010E9414
:101A0000EA0B05C0CE010E94BA0B80E001C081E064
:101A1000DF91CF911F910F91FF90EF90DF90CF90CA
:101A2000BF90AF9008952F923F924F925F926F9226
:101A30007F928F929F92AF92BF92CF92DF92EF925E
:101A4000FF920F931F93CF93DF93EC016B014A0139
:101A50008D81811103C08FEF9FEFD7C08C8180FFF4
:101A6000FACF4B885C886D887E884A855B856C855B
:101A70007D85C401A0E0B0E093018201041B150B39
:101A8000260B370B081719072A073B0718F44201E2
:101A9000841A950A54011E0126E0220E311CA1145D
:101AA000B10409F47EC04A855B856C857D852A0179
:101AB00081E05822ED818A019B0189E036952795C6
:101AC000179507958A95D1F78B8D9C8DE23061F43F
:101AD000FC01828D938DA48DB58DBC01CD01600F6D
:101AE000711F821F931F3FC0FC0174807A94702283
:101AF00041145104C9F4711017C0452B462B472BD4
:101B000049F48F89988DA98DBA8D8E839F83A8877C
:101B1000B9870AC04E815F816885798591010E94ED
:101B20002904882309F497CFEB8DFC8D8E819F814A
:101B3000A885B9850297A109B109058404C0880F59
:101B4000991FAA1FBB1F0A94D2F746855785608943
:101B50007189840F951FA61FB71FBC01CD01670DAA
:101B6000711D811D911D20E032E0241935093501D8
:101B70002A153B0508F439012C8126FD04C06114A7
:101B8000F2E07F0681F400910001109101012091A3
:101B90000201309103016017710782079307B1F4C6
:101BA00002C0C40132C040E00E944003882309F40F
:101BB00052CFF201EF52FC4FD601CF01860D971D97
:101BC000E817F90789F021912D93FACF7601830167
:101BD0009201AB01BC018091D1059091D2050E9488
:101BE0007F0C882309F437CFC60CD71C8A859B85C8
:101BF000AC85BD85860D971DA11DB11D8A879B876C
:101C0000AC87BD87A618B7084ACFDF91CF911F9147
:101C10000F91FF90EF90DF90CF90BF90AF909F908B
:101C20008F907F906F905F904F903F902F9008958E
:101C3000EF92FF920F931F93CF93DF93EC01790103
:101C4000411551056105710511F482E13CC08B8598
:101C5000833039F089E0440F551F661F771F8A953E
:101C6000D1F79A01AB0168E1CE010E941D0C8823D7
:101C700011F084E028C08EEF0E94C50B87018EEF23
:101C8000F81AF80181918F010E94C50B0E151F05EE
:101C9000C1F78FEF0E94C50B8FEF0E94C50B0E940A
:101CA000CC0B8A878F71853031F081E18D83CE0135
:101CB0000E94BA0B09C068E572E0CE010E94CF0B0A
:101CC000811107C085E18D83CE010E94BA0B80E0AF
:101CD00013C020E030E0A9016DE0CE010E941D0C90
:101CE000811104C00E94CC0B882311F084E1EBCF5A
:101CF000CE010E94BA0B81E0DF91CF911F910F912D
:101D0000FF90EF900895FC01DB0112968D919C915C
:101D100013979383828386E691E091838083149660
:101D20008C911497848315968C91159785831696BC
:101D30004D915D916D917C91199746835783608792
:101D400071871A964D915D916D917C911D97428797
:101D50005387648775871E964D915D916D917C9137
:101D6000519746875787608B718B52968C9152970B
:101D7000828B53964D915D916D917C915697438BDB
:101D8000548B658B768B57964D915D916D917C91BF
:101D90005A97478B508F618F728F5B968D919C9174
:101DA0005C97948F838F0895CF93DF93EC01898D97
:101DB0009A8D009741F00E94A50A898D9A8D0E9404
:101DC000631D1A8E198EDF91CF910895FC01138245
:101DD000128288EE93E0A0E0B0E084839583A6832E
:101DE000B78386E391E091838083128E118E1486EF
:101DF0000895EF92FF920F931F93CF93DF93EC011F
:101E00007B018A011B821A8288EE93E0A0E0B0E099
:101E10008C839D83AE83BF8386E391E0998388831F
:101E20008DE190E00E94CE1C9A8F898F009779F007
:101E30002DE1F701DC0101900D922A95E1F74CE0CC
:101E400050E0B801CE010C960E94181E188EDF914A
:101E5000CF911F910F91FF90EF900895CF93DF9353
:101E60001F92CDB7DEB741E050E0BE016F5F7F4FFC
:101E70000E94130D019719F4898190E002C08FEF41
:101E80009FEF0F90DF91CF910895FC01818D928D8E
:101E9000009711F00C942E0F8FEF9FEF08950F9382
:101EA0001F93CF93DF93FC01818D928D0097B9F042
:101EB000EF010E942E0F8C010F3F8FEF180791F05A
:101EC000898D9A8DFC0142855385648575854150C5
:101ED0005109610971090E940B07C80105C080E022
:101EE00090E002C08FEF9FEFDF91CF911F910F9194
:101EF00008956115710579F0FB0101900020E9F763
:101F00003197AF01461B570BDC01ED91FC9102802C
:101F1000F381E02D099480E090E00895E1E7F2E09C
:101F2000A089B18982E08C93A485B5851C92A68591
:101F3000B78580E18C93108EA489B58986E08C9357
:101F4000A289B3898C9180618C93A289B3898C9189
:101F500088608C93A289B3898C9180688C93028865
:101F6000F389E02D80818F7D808308950F931F93E7
:101F7000CF93DF93CDB7DEB729970FB6F894DEBFC6
:101F80000FBECDBF8091C4039091C503892B09F486
:101F9000A2C00E948B020091CA031091CB03209132
:101FA000CC033091CD03DC01CB01801B910BA20B44
:101FB000B30B8C329140A105B10558F3F894809190
:101FC000C0039091C1039A838983E091C403F09187
:101FD000C503DF011196808189879091BC03E09150
:101FE000CE03F091CF038091D003992309F42EC042
:101FF0009081982B98879081809589238F838F81FA
:102000008C8388E08B8358856F8149853B812C8147
:1020100089819A81508347FD252F3A952083262F69
:1020200039F0441F00C000006083000000C0F2CF00
:1020300038E04D9160830000019761F7F093CF0382
:10204000E093CE0349873B832C8338C09081982B43
:1020500098879081809589238F838F818E8388E0F4
:102060008D8358856F8149853D812E8189819A8133
:10207000508347FD252F00C000C0208300C000C052
:1020800000C000C000C060830000262F3A9541F0D8
:10209000441F000000C000C000C000C000C0E8CF66
:1020A00038E04D9100C0608300C0019709F7F093BC
:1020B000CF03E093CE0349873D832E839A838983A0
:1020C00078940E948B026093CA037093CB03809331
:1020D000CC039093CD0329960FB6F894DEBF0FBEC4
:1020E000CDBFDF91CF911F910F910895E091BE0375
:1020F000F091BF038E179F07F0F53091C303332390
:1021000061F0639FB0011124672F439FA001112448
:10211000452F239F90011124232F3091C903509103
:10212000C603E091C403F091C503351308C0DC0178
:10213000AA0FBB1F8A0F9B1F8E0F9F1F0AC0880FFD
:10214000991F880F991F8E0F9F1FFC01E30FF11D30
:1021500010823091C603FC01E30FF11D60833091C2
:10216000C703FC01E30FF11D40833091C803FC015C
:10217000E30FF11D208308952091BE033091BF032A
:102180008217930770F54091C9035091C6032091BF
:10219000C4033091C503451308C0AC01440F551F5B
:1021A000840F951F820F931F0AC0880F991F880FF5
:1021B000991F820F931FFC01E40FF11D10822091E3
:1021C000C603FC01E20FF11D10822091C703FC0140
:1021D000E20FF11D10822091C803FC01E20FF11DF6
:1021E000108208952F923F924F925F926F927F924A
:1021F0008F929F92AF92BF92CF92DF92EF92FF9217
:102200000F931F93CF93DF93CDB7DEB7C756D10996
:102210000FB6F894DEBF0FBECDBF3C015B01A696A2
:102220004FAFA6974E018EE1880E911C62E873E0D5
:10223000C4010E94830E1C821B8286E691E09A8371
:1022400089831E8265018E010F5F1F4F24011801D3
:102250006FE270E0C6010E940D1E009709F442C0B3
:10226000F60120812F3221F4FFEFCF1ADF0AF0CFE1
:102270008C198D3008F08CE0E82EF12CA701B60106
:10228000CE01885A9F4F0E94181EE8E5F0E0EC0F3F
:10229000FD1FEE0DFF1D1082C8010E94A50AF80166
:1022A0008581882351F01EAE1DAE86E691E09CAF7D
:1022B0008BAF21961FAE219721C021E0AE01485A75
:1022C0005F4FB201C8010E941605882361F3CE0C4E
:1022D000DF1CC2010E94A50A942D852D2801092F1B
:1022E000182FB6CFC6018A199B09A8969FAF8EAF4B
:1022F000A897B201CE01CB960E94830EA896EEADB0
:10230000FFADA897AE0EBF1EF5018081811109C0F7
:10231000BE01655C7F4FC1010E94830E44E851E01D
:102320003CC019A218A286E691E09F8F8E8F1BA257
:1023300021968FAD2197811104C0C3010E94E60E42
:1023400030C08250A6962FADA697A501823040F4EA
:1023500062E873E0C4010E94160581110DC0EDCF43
:10236000BE01655C7F4FC4010E941605882329F3D6
:10237000CE01CB960E94A50AA6968FADA697867031
:1023800039F049A95AA96BA97CA9C4010E940B077D
:10239000B401C1010E94830EA501B101C3010E94D5
:1023A000F90EC301C959DF4F0FB6F894DEBF0FBE57
:1023B000CDBFDF91CF911F910F91FF90EF90DF90F4
:1023C000CF90BF90AF909F908F907F906F905F90D5
:1023D0004F903F902F900895CF92DF92EF92FF920F
:1023E0000F931F93CF93DF936C017A018B01C0E0B1
:1023F000D0E0CE15DF0589F0D8016D918D01D601B1
:10240000ED91FC910190F081E02DC6010995892B99
:1024100011F47E0102C02196ECCFC701DF91CF916C
:102420001F910F91FF90EF90DF90CF9008958F92C2
:102430009F92AF92BF92CF92DF92EF92FF92CF9393
:10244000DF93C82F88E593E09093D2058093D10560
:10245000CC2369F1C53010F080E00DC140E060E0B0
:1024600070E0CB010E9440038823B1F320E1C29FBA
:10247000C00111248F539C4FFC01E254FE4F208178
:102480002F7751F73C9640815181628173814436A8
:1024900051056105710500F33497C080D180E28059
:1024A000F380C114D104E104F10421F4D5CFC12C8F
:1024B000D12C760140E0C701B6010E944003882379
:1024C00059F28091DC039091DD038115924021F651
:1024D000A091E103AA2309F4BFCF6091DF037091BB
:1024E000E0036115710509F4B7CF2091DE032223C3
:1024F00009F4B2CFA09376032093680380E030E024
:10250000E1E0F0E0C82FAF01082E02C0440F551FD4
:102510000A94E2F72417350741F0982F8F5F98301F
:1025200089F789E08093710397CF8093710320919D
:10253000E7033091E8032115310519F040E050E040
:1025400008C02091F5033091F6034091F7035091B4
:10255000F8032093690330936A0340936B0350930D
:102560006C0346015701860E971EA11CB11C809278
:10257000770390927803A0927903B0927A03E09166
:10258000E203F091E303F0937D03E0937C03B0E07A
:102590000E946D1B860E971EA81EB91E80927E0398
:1025A00090927F03A0928003B092810385E0EE0FAA
:1025B000FF1F8A95E1F7E150FE4FEF2FFF27E695C9
:1025C0008E0E9F1EA11CB11C809272039092730309
:1025D000A0927403B09275032091E4033091E50357
:1025E0002115310521F0A90160E070E008C040919B
:1025F000F1035091F2036091F3037091F403D7015A
:10260000C60188199909AA09BB09840F951FA61F3D
:10261000B71F04C0B695A79597958795CA95D2F729
:1026200080936D0390936E03A0936F03B093700338
:10263000853F2FE09207A105B10510F48CE018C08A
:10264000853F9F4FA105B10510F480E111C0809135
:10265000FD039091FE03A091FF03B09100048093CD
:102660007E0390937F03A0938003B093810380E265
:1026700080937B0381E0DF91CF91FF90EF90DF901B
:10268000CF90BF90AF909F908F900895CF93DF939E
:10269000CDB7DEB7C05BD1090FB6F894DEBF0FBE71
:1026A000CDBF789484B5826084BD84B5816084BDDB
:1026B00085B5826085BD85B5816085BD80916E00E0
:1026C000816080936E001092810080918100826011
:1026D000809381008091810081608093810080914E
:1026E00080008160809380008091B100846080933D
:1026F000B1008091B00081608093B00080917A0039
:10270000846080937A0080917A00826080937A005E
:1027100080917A00816080937A0080917A0080684D
:1027200080937A001092C1001092520310925303CA
:10273000109254031092550310921003109211033B
:10274000109212031092130368EB7BE080E090E09C
:102750000E94B00281E792E090935103809350036E
:102760000E948E0F0E94EA0260931003709311037F
:10277000809312039093130362E771E080915003FA
:10278000909151030E94790F6AE070E080E090E040
:102790000E94B00281E0809324030E948E0F8091FA
:1027A000C20387FD08C061E00E944F0260E0809193
:1027B000C2030E941F0281E08093BD030E94B60FF6
:1027C0006091C303613121F12091C4033091C503AD
:1027D000615031F070E08FEF90E10E94A81C02C0C0
:1027E00060E070E0F9014091C0035091C103CF0156
:1027F000821B930B8417950740F44081469FC001CC
:10280000479F900D11249193EECF81E18093C303F4
:10281000109263031092610310925E0310925D03A5
:102820008AE080935C030E94EA028B0161E0809160
:102830005C030E944F0261E080915C030E941F02D2
:10284000FFB6F8948091D201811127C0E8ECF0E046
:102850008491EAEAF0E09491E82FF0E0EE0FFF1F98
:10286000E859FF4FA591B491EC91E92321F461E07F
:102870008AE00E941F0261E08AE00E944F028CB54C
:1028800080618CBD8CB580648CBD61E08DE00E9460
:102890004F0261E08BE00E944F028091D2018F5F76
:1028A0008093D201FFBE82E58093560310925703B6
:1028B00080915603909157030E94040CEAE0FE2E8B
:1028C0008FEF0E94C50BFA94F110FACF88E593E0E0
:1028D0000E94070C20E030E0A90160E088E593E069
:1028E0000E941D0CF82E8093620381E0F81649F0D7
:1028F0000E94EA02601B710B613D774058F381E052
:1029000056C02AEA31E040E050E068E088E593E014
:102910000E941D0C82FF03C0F092630310C074E09C
:10292000F72E0E94CC0B80936203FA94F110F9CF3A
:102930008A3A11F082E03BC082E080936303809189
:102940006303823021F0C12CD12C760105C0C12C4B
:10295000D12CE12C60E4F62E20E030E0A90167E301
:1029600088E593E00E941D0CA701960169E288E5C5
:1029700093E00E941D0C80936203882349F00E941B
:10298000EA02601B710B613D774030F388E00FC0B5
:1029900080916303823001F520E030E0A9016AE311
:1029A00088E593E00E941D0C882341F086E0809327
:1029B0005D0388E593E00E94BA0B8DC00E94CC0BAA
:1029C000807C803C19F483E0809363030E94CC0BED
:1029D0000E94CC0B0E94CC0B88E593E00E94BA0BBE
:1029E00080E5809356031092570381E00E941712EE
:1029F000882329F080918703882341F06CC080E010
:102A00000E941712882309F466C0F4CF80917B03DB
:102A1000803109F582E08093870310929903109228
:102A20009A0310929B0310929C0380917C039091D7
:102A30007D03A0E0B0E055E0880F991FAA1FBB1FDF
:102A40005A95D1F78093950390939603A09397039B
:102A5000B09398031DC08032F1F583E08093870323
:102A600040917E0350917F036091800370918103B8
:102A70004093990350939A0360939B0370939C0334
:102A800025E933E084E693E00E94AD04882319F140
:102A900084E693E090939E0380939D0381E080936E
:102AA0008603109288031092890310928A03109271
:102AB0008B0310928C0310928D0310928E03109250
:102AC0008F03109290031092910310929203109230
:102AD00093031092940341E064E871E0CE018A58B8
:102AE0009F4F0E94F2101EEF46E6C42E41E0D42E06
:102AF0000EE2C157DF4FE880F980CF58D040D701B0
:102B000015968C91823008F473C0F7018285938505
:102B1000A485B5858F719927AA27BB27892B8A2B76
:102B20008B2B09F065C040E250E0BE016F5F7F4F24
:102B3000C7010E94130D803209F05AC08981882391
:102B400009F456C0853E79F38E3269F38C8583FD96
:102B5000EACF22961FAE1EAE2297DFAECEAE2496EF
:102B60001FAE2497FE01319690E020E081918032E3
:102B700091F0283041F4A1E9B0E0AC0FBD1FA90FDE
:102B8000B11D0C939F5FA1E9B0E0AC0FBD1FA90F71
:102B9000B11D8C939F5F2F5F2B3041F7E1E9F0E08F
:102BA000EC0FFD1FE90FF11D1082C157DF4F688147
:102BB0007981CF58D04021E0AE014F565F4FCE0112
:102BC000CE960E941605882399F0BE01625C7F4F65
:102BD000CE0181960E94830EAE014F565F4FBE011B
:102BE0006F5D7F4FCE01855A9F4F0E94F90E05C041
:102BF000CE01855A9F4F0E94E60EE696EEADFFADE0
:102C0000E6973097D1F4CE01855A9F4F0E94D40E9B
:102C1000812F64E60E949A1C292F8CE0EAE0F1E003
:102C2000DE01919601900D928A95E1F71DA61EA6F0
:102C30001FA69A3064F480E30FC08581882319F3BE
:102C40001F5FCE01855A9F4F0E94D40E52CF892F0D
:102C50006AE00E949A1C805D8EA3822F6AE00E9427
:102C60009A1C905D9FA3CE018A589F4F0E94D40E5C
:102C70008E010F5D1F4F43E1B801CE0101967C012B
:102C80000E94F2108B819C819093A4038093A303F4
:102C90008D819E81AF81B8858093A5039093A60313
:102CA000A093A703B093A80389859A85AB85BC85BB
:102CB0008093A9039093AA03A093AB03B093AC03B2
:102CC0008DE0FE013D96ADEAB3E001900D928A954C
:102CD000E1F78A8D9B8D9093BB038093BA0362E0EA
:102CE00082E00E944F02C955DF4FE882C75AD040A8
:102CF000C855DF4FF882C85AD040C755DF4F088308
:102D0000C95AD040C655DF4F1883CA5AD040C09028
:102D1000D301D090D401E090D501F090D6010E946B
:102D2000EA026C157D058E059F0538F464E670E0B7
:102D300080E090E00E94B002EACF0E94EA02DC014B
:102D4000CB0188519C4FAF4FBF4F8093D3019093DD
:102D5000D401A093D501B093D601E6E8F1E0AFED40
:102D6000B1E080E801900D928A95E1F7EEE7F0E09E
:102D70008491E2EAF0E01491E0ECF0E004910023A9
:102D8000A1F081110E94F601E02FF0E0EE0FFF1F8D
:102D9000EE58FF4FA591B4918C91182331E020E0BB
:102DA00009F430E0832F922F02C080E090E0F1E040
:102DB0008F27182F117020916002211113C0892BC9
:102DC000C9F000915F020430A8F42FEF4FEF6FEFCE
:102DD00087E090E00E9476100E94B60F0F5F00938C
:102DE0005F0208C0892B31F487E090E00E94BC109C
:102DF0000E94B60F109360028091E201823551F477
:102E000069EE71E081EA93E00E94790F81EA93E034
:102E10000E9479098091D7019091D801A091D901A0
:102E2000B091DA01C156DF4F88839983AA83BB83AF
:102E3000CF59D04090915F02C555DF4F9883CB5A50
:102E4000D0408091DB019091DC01A091DD01B09137
:102E5000DE01CD55DF4F88839983AA83BB83C35A94
:102E6000D0409C01AD0160E070E48CE195E40E94EB
:102E7000871B6B017C0120E030E04AE753E40E94AD
:102E8000F41B2B013C010E94661C9AEF699FB00164
:102E90001124072E000C880B990B0E94501A9B01DD
:102EA000AC01C701B6010E94871B0E94661C4B0142
:102EB00020E030E04CEC51E4C301B2010E94AF1AB3
:102EC0006B017C0120E030E040E05FE3C301B20130
:102ED0000E94AF1A2B013C01C40162E370E00E9422
:102EE000A81CC455DF4F79836883CC5AD04025E2B3
:102EF000222E312CC256DF4F1882CE59D040D40139
:102F0000AA5FB109C255DF4FB983A883CE5AD0401A
:102F1000B82DB095C055DF4FB883C05BD04020E0DE
:102F200030E040EA50E4C301B2010E94491A811125
:102F300004C02FEF4FEF6FEF23C0C256DF4FE88181
:102F4000CE59D0406E2FEE0F770B880B990B0E9455
:102F5000501AA30192010E94491A1816ACF0C70139
:102F6000B6010E94661C162FA701960160E070E072
:102F70008FE793E40E94871B0E94661C20E0412F8C
:102F8000C1010E94761003C0C1010E94BC1006E27C
:102F900010E0A12CB12CC255DF4F88819981CE5A07
:102FA000D040C29720F42FEF4FEF6FEF10C0C45501
:102FB000DF4FA881B981CC5AD040AA15BB0558F083
:102FC00020E0482DC055DF4F6881C05BD040C8016C
:102FD0000E94761003C0C8010E94BC10BFEFAB1A5C
:102FE000BB0A08501109E5E0AE16B104A1F6C256BD
:102FF000DF4FF881CE59D040FF5FC256DF4FF883D4
:10300000CE59D04028E0221A3108F53009F087CF98
:1030100020E030E040E251E4C156DF4F6881798121
:103020008A819B81CF59D0400E94881B2B013C0193
:1030300020E030E0A9010E94491A87FD13C020E07A
:1030400030E044EB53E4C301B2010E94951C181612
:103050004CF04092D7015092D8016092D901709201
:10306000DA0108C01092D7011092D8011092D9014C
:103070001092DA01E9E1F1E0C955DF4FA881C75AA2
:10308000D040C855DF4FB881C85AD04080E1019088
:103090000D928A95E1F7E9E2F1E0C755DF4FA8818B
:1030A000C95AD040C655DF4FB881CA5AD04088E0CF
:1030B00001900D928A95E1F720E030E044EB51E475
:1030C000C156DF4F688179818A819B81CF59D04079
:1030D0000E94F41B0E94661CC955DF4F0881C75A25
:1030E000D040C855DF4F1881C85AD040612C712C90
:1030F000A62EB12C6A147B04A1F4C701B6010E946C
:10310000661C962EA701960160E070E08FE793E4BD
:103110000E94871B0E94661CD8018C9120E0492DDB
:1031200005C0F801808120E840EC60E490E00E9456
:103130007610FFEF6F1A7F0A0F5F1F4F20E16216B4
:103140007104C1F6350175946794C755DF4F088146
:10315000C95AD040C655DF4F1881CA5AD040A12C59
:10316000B12CA614B704A1F4C701B6010E94661CD5
:10317000962EA701960160E070E08FE793E40E942D
:10318000871B0E94661CD8018C9120E0492D05C048
:10319000F801808120E840EC60E490E00E94761025
:1031A000FFEFAF1ABF0A0F5F1F4F28E0A216B1044E
:1031B000C1F6C701B6010E94661C162FA701960131
:1031C00060E070E08FE793E40E94871B0E94661C1A
:1031D00020E0412F82E190E00E94761087E2E82E05
:1031E000F12C00E010E0C555DF4F8881CB5AD0406C
:1031F000C82ED12C20E00C151D051CF44FEF60E00B
:1032000007C00C151D0511F44FEF01C040E06FEF32
:10321000C7010E9476100F5F1F4F98E0E91AF1086E
:103220000430110539F70E94B60F20E030E040E28B
:1032300051E4CD55DF4F688179818A819B81C35AE2
:10324000D0400E94871B6B017C0120E030E0A90187
:103250000E94491A87FD09C0C092DB01D092DC01AF
:10326000E092DD01F092DE010CC080E090E4ACE180
:10327000B5E48093DB019093DC01A093DD01B09372
:10328000DE016FED71E081E792E00E94790F61E865
:1032900071E081E792E00E94790F0E94570137CDDB
:1032A0008091C4039091C503009711F00E94631DA3
:1032B0008091C20387FD03C060E00C944F02089523
:1032C000109274021092730288EE93E0A0E0B0E0D6
:1032D0008093750290937602A0937702B093780260
:1032E00086E491E0909372028093710285EC90E005
:1032F00090937E0280937D0284EC90E09093800214
:1033000080937F0280EC90E0909382028093810210
:1033100081EC90E0909384028093830282EC90E0B1
:10332000909386028093850286EC90E090938802C9
:103330008093870210928A0210928B0210928C0264
:1033400010928D021092140310921503109216031E
:1033500010921703109218031092190310921A0377
:1033600010921B0310921C0310921D0310921E0357
:1033700010921F0310922003109221031092220337
:103380001092230380E58093560310925703109206
:103390005D0310925E03109261031092630382E05A
:1033A00090E0A0E0B0E08093640390936503A09365
:1033B0006603B093670310927B031092850310920B
:1033C000840386E691E090938303809382031092B6
:1033D00087031092BD031092C3031092CA03109288
:1033E000CB031092CC031092CD0381E08093C903EC
:1033F0008093C6031092C70392E09093C803809312
:10340000BC0388E790E09093C1038093C0030E94BF
:10341000CE1C9093C5038093C403009761F028E706
:10342000FC0111922A95E9F788E290E09093BF039E
:103430008093BE0308C01092C1031092C003109283
:10344000BF031092BE0386E08093C2038091BD0348
:10345000882341F061E086E00E944F0260E086E050
:103460000E941F02E4ECF0E0E491F0E0EE0FFF1F99
:10347000EC54FF4F859194919093CF038093CE03AA
:10348000E6EAF0E0E491E093D00381EA93E00C9463
:10349000E60E0E948B1A08F481E00895E89409C0B2
:1034A00097FB3EF490958095709561957F4F8F4F77
:1034B0009F4F9923A9F0F92F96E9BB279395F6958D
:1034C000879577956795B795F111F8CFFAF4BB0F0B
:1034D00011F460FF1BC06F5F7F4F8F4F9F4F16C06F
:1034E000882311F096E911C0772321F09EE8872FF9
:1034F000762F05C0662371F096E8862F70E060E0B5
:103500002AF09A95660F771F881FDAF7880F96952D
:10351000879597F90895990F0008550FAA0BE0E8D1
:10352000FEEF16161706E807F907C0F01216130685
:10353000E407F50798F0621B730B840B950B39F4C5
:103540000A2661F0232B242B252B21F408950A262B
:1035500009F4A140A6958FEF811D811D08950E9459
:10356000C21A0C94331B0E94251B38F00E942C1B9E
:1035700020F0952311F00C941C1B0C94221B112499
:103580000C94671B0E94441B70F3959FC1F3950F29
:1035900050E0551F629FF001729FBB27F00DB11DD7
:1035A000639FAA27F00DB11DAA1F649F6627B00D67
:1035B000A11D661F829F2227B00DA11D621F739F50
:1035C000B00DA11D621F839FA00D611D221F749F5E
:1035D0003327A00D611D231F849F600D211D822FA5
:1035E000762F6A2F11249F5750409AF0F1F08823CC
:1035F0004AF0EE0FFF1FBB1F661F771F881F9150F9
:103600005040A9F79E3F510580F00C941C1B0C9470
:10361000671B5F3FE4F3983ED4F3869577956795F3
:10362000B795F795E7959F5FC1F7FE2B880F911D22
:103630009695879597F9089597F99F6780E870E0C8
:1036400060E008959FEF80EC089500240A94161618
:10365000170618060906089500240A941216130680
:10366000140605060895092E0394000C11F488230E
:1036700052F0BB0F40F4BF2B11F460FF04C06F5F2A
:103680007F4F8F4F9F4F089557FD9058440F551F00
:1036900059F05F3F71F04795880F97FB991F61F0D4
:1036A0009F3F79F087950895121613061406551F4B
:1036B000F2CF4695F1DF08C0161617061806991FB7
:1036C000F1CF86957105610508940895E894BB27AC
:1036D00066277727CB0197F908950E94781BA59F4D
:1036E000900DB49F900DA49F800D911D11240895FD
:1036F000A29FB001B39FC001A39F700D811D112433
:10370000911DB29F700D811D1124911D0895505877
:10371000BB27AA270E949F1B0C94331B0E94251BCA
:1037200038F00E942C1B20F039F49F3F19F426F446
:103730000C94221B0EF4E095E7FB0C941C1BE92F64
:103740000E94441B58F3BA17620773078407950752
:1037500020F079F4A6F50C94661B0EF4E0950B2E80
:10376000BA2FA02D0B01B90190010C01CA01A001D3
:103770001124FF27591B99F0593F50F4503E68F12E
:103780001A16F040A22F232F342F4427585FF3CF6F
:10379000469537952795A795F0405395C9F77EF440
:1037A0001F16BA0B620B730B840BBAF09150A1F089
:1037B000FF0FBB1F661F771F881FC2F70EC0BA0F0F
:1037C000621F731F841F48F4879577956795B79597
:1037D000F7959E3F08F0B0CF9395880F08F0992792
:1037E000EE0F9795879508950E94081C0C94331B43
:1037F0000E942C1B58F00E94251B40F029F45F3FCB
:1038000029F00C941C1B51110C94671B0C94221B67
:103810000E94441B68F39923B1F3552391F3951B40
:10382000550BBB27AA2762177307840738F09F5FE1
:103830005F4F220F331F441FAA1FA9F335D00E2E4E
:103840003AF0E0E832D091505040E695001CCAF7BB
:103850002BD0FE2F29D0660F771F881FBB1F26177E
:1038600037074807AB07B0E809F0BB0B802DBF0155
:10387000FF2793585F4F3AF09E3F510578F00C9424
:103880001C1B0C94671B5F3FE4F3983ED4F38695B2
:1038900077956795B795F7959F5FC9F7880F911D45
:1038A0009695879597F90895E1E0660F771F881F31
:1038B000BB1F621773078407BA0720F0621B730BE4
:1038C000840BBA0BEE1F88F7E09508950E944C1BFD
:1038D00088F09F5798F0B92F9927B751B0F0E1F0D1
:1038E000660F771F881F991F1AF0BA95C9F714C081
:1038F000B13091F00E94661BB1E008950C94661BF4
:10390000672F782F8827B85F39F0B93FCCF38695B9
:1039100077956795B395D9F73EF490958095709516
:1039200061957F4F8F4F9F4F08950E948B1A08F427
:103930008FEF089587FB082E062687FD819567FD8A
:1039400061950E94BC1C0EF4919507FC8195089529
:10395000AA1BBB1B51E107C0AA1FBB1FA617B707B5
:1039600010F0A61BB70B881F991F5A95A9F78095D1
:103970009095BC01CD010895991B79E004C0991F71
:10398000961708F0961B881F7A95C9F780950895B9
:10399000EE0FFF1F0590F491E02D0994CF93DF9374
:1039A0008230910510F482E090E0E091D505F0912D
:1039B000D60520E030E0C0E0D0E0309711F1408142
:1039C000518148175907C0F04817590761F482819F
:1039D0009381209719F09B838A832BC09093D605FF
:1039E0008093D50526C02115310519F042175307DC
:1039F00018F49A01BE01DF01EF010280F381E02D8E
:103A0000DCCF2115310509F1281B390B2430310594
:103A100090F412968D919C9113976115710521F088
:103A2000FB019383828304C09093D6058093D505D0
:103A3000FD01329644C0FD01E20FF31F8193919383
:103A4000225031092D933C933AC02091D3053091F7
:103A5000D405232B41F420910601309107013093C6
:103A6000D4052093D305209104013091050121153F
:103A7000310541F42DB73EB740910801509109013D
:103A8000241B350BE091D305F091D405E217F30721
:103A9000A0F42E1B3F0B2817390778F0AC014E5FBE
:103AA0005F4F2417350748F04E0F5F1F5093D40522
:103AB0004093D3058193919302C0E0E0F0E0CF0101
:103AC000DF91CF9108950F931F93CF93DF930097CA
:103AD00009F48CC0FC013297138212820091D50543
:103AE0001091D6050115110581F420813181820FD5
:103AF000931F2091D3053091D4052817390779F504
:103B0000F093D405E093D30571C0D80140E050E0B4
:103B1000AE17BF0750F412962D913C911397AD014B
:103B20002115310509F1D901F3CF9D01DA01338364
:103B3000228360817181860F971F8217930769F432
:103B4000EC0128813981260F371F2E5F3F4F3183CB
:103B500020838A819B8193838283452B29F4F09370
:103B6000D605E093D50542C01396FC93EE931297C9
:103B7000ED01499159919E01240F351FE217F3077A
:103B800071F480819181840F951F029611969C9308
:103B90008E938281938113969C938E931297E0E08B
:103BA000F0E0D80112968D919C911397009719F02F
:103BB000F8018C01F6CF8D919C9198012E5F3F4FBB
:103BC000820F931F2091D3053091D4052817390710
:103BD00069F4309729F41092D6051092D50502C0E9
:103BE000138212821093D4050093D305DF91CF91F5
:103BF0001F910F91089581E090E0F8940C94271E96
:103C0000FB01DC0104C08D910190801921F4415029
:103C10005040C8F7881B990B0895FC0181918617C5
:103C200021F08823D9F7992708953197CF01089576
:103C3000FB01DC014150504048F001900D92002002
:103C4000C9F701C01D9241505040E0F7089510E0BF
:103C5000CAE6D0E004C0FE010E94C81C2196CB3603
:083C6000D107C9F7F894FFCF6A
:103C6800FFFFFFFF0000D70580004D794D61704EC2
:103C78004E2E747874000000000203040C141C24F7
:103C88002322212018100800010A0B131B1A1911EE
:103C9800090000000000630981094209450F4F0F20
:103CA800790900000000EE00EC11B7009500A900AA
:103CB8003501000000006101EC1161016101610141
:103CC8006101000000003109EC11000000006101F1
:103CD800EC11564D4450565F317C315F564D44507F
:103CE800560D0A002F00244750524D432C303634CD
:103CF8003935312E3030302C412C323330372E319B
:103D08003235362C4E2C31323031362E343433386D
:103D18002C452C302E30332C3136352E34382C327D
:103D280036303430362C332E30352C572C412A324D
:023D3800430046
:00000001FF
